:0200000460009A
:100000004643464200000156000000000103030081
:1000100000000000000000000000000000000000E0
:1000200000000000000000000000000000000000D0
:1000300000000000000000000000000000000000C0
:1000400000000000010408000000000000000000A3
:100050000000800000000000000000000000000020
:100060000000000000000000000000000000000090
:100070000000000000000000000000000000000080
:10008000EB04180A063204260000000000000000FD
:10009000050404240000000000000000000000002F
:1000A0000000000000000000000000000000000050
:1000B0000604000000000000000000000000000036
:1000C0000000000000000000000000000000000030
:1000D00020041808000000000000000000000000DC
:1000E0000000000000000000000000000000000010
:1000F0000000000000000000000000000000000000
:10010000D8041808000000000000000000000000F3
:100110000204180804200000000000000000000095
:1001200000000000000000000000000000000000CF
:10013000600400000000000000000000000000005B
:1001400000000000000000000000000000000000AF
:10015000000000000000000000000000000000009F
:10016000000000000000000000000000000000008F
:10017000000000000000000000000000000000007F
:10018000000000000000000000000000000000006F
:10019000000000000000000000000000000000005F
:1001A000000000000000000000000000000000004F
:1001B000000000000000000000000000000000003F
:1001C000000100000010000001000000000000001D
:1001D000000001000000000000000000000000001E
:1001E000000000000000000000000000000000000F
:1001F00000000000000000000000000000000000FF
:10020000D4D4D4D4D4D4D4D4D4D4D4D4D4D4D4D4AE
:10021000D4D4D4D4D4D4D4D4D4D4D4D4D4D4D4D49E
:10100000D10020402C100060000000000000000013
:1010100020100060001000600000002000000000B0
:101020000000006018CF0000000000000000012058
:1010300035100060D0B502AF4CF238014AF6AB2053
:10104000C4F20A01CAF6AA2048F2F00CC8600720D0
:10105000C0F2200088604FF42A00086048F20000C7
:1010600040F20001C2F20700854644F6B030C4F2F7
:101070000D0CC0F20000C0F20001BFF34F8F81429F
:101080004FF00801CCF864101DD241F2B03140F2AB
:101090000002C6F20001C0F200020B6842F8043BF5
:1010A000824210D24B6842F8043B82423EBF8B68BA
:1010B00042F8043B824206D2CB6842F8043B8242AB
:1010C00001F11001E9D342F2E01040F20001C2F256
:1010D0000000C2F2000181421DD245F6607140F26B
:1010E0000002C6F20001C2F200020B6842F8043BA3
:1010F000824210D24B6842F8043B82423EBF8B686A
:1011000042F8043B824206D2CB6842F8043B82425A
:1011100001F11001E9D347F2207043F20001C2F25D
:101120000000C2F20001814210D2002241F8042BDB
:1011300081420BD241F8042B81423CBF41F8042B81
:10114000814203D241F8042B8142EFD34EF6245E54
:101150004FF47000CEF2000E4FF6405347F20042BB
:10116000CFF6FF73CEF8640041F60760C2F20002CA
:10117000C0F20000D118B033C1F8C002C1F8C402F7
:10118000C1F8C802C1F8CC02C1F8D002C1F8D4023B
:10119000C1F8D802C1F8DC02C1F8E002C1F8E402EB
:1011A000C1F8E802C1F8EC02C1F8F002C1F8F4029B
:1011B000C1F8F802C1F8FC02C1F80003C1F8040349
:1011C000C1F80803C1F80C03C1F81003C1F81403F7
:1011D000C1F81803C1F81C03C1F82003C1F82403A7
:1011E000C1F82803C1F82C03C1F83003C1F8340357
:1011F000C1F83803C1F83C03C1F84003C1F8440307
:10120000C1F84803C1F84C03C1F85003C1F85403B6
:10121000C1F85803C1F85C03C1F86003C1F8640366
:10122000C1F86803C1F86C03A4D14EF2004300205A
:10123000CEF2000380211C1819542830A0286170B8
:10124000A170E17021716171A171E171217261720E
:10125000A172E17221736173A173E17321746174EE
:10126000A174E17421756175A175E17521766176CE
:10127000A176E17621776177A177E17784F8201074
:1012800084F8211084F8221084F8231084F82410A4
:1012900084F8251084F8261084F82710CBD14FF05D
:1012A000803041F21B014EF81C2CC2F21801CCF820
:1012B00014004024CCF81010CCF8040040F60C5078
:1012C000C1F21130CCF80000DEF8000040F4E0205C
:1012D000CEF800004CF21C00C4F20F00016864F369
:1012E00006010160816864F30601816042F2111019
:1012F00044F6D351C0F20000906340F22920C1F2BD
:101300006201C0F20000D06341F64440C2F2000026
:101310000068A0FB01014FF0FF3000EB91104FF689
:101320001441CFF6FF7158504FF61840CFF6FF70BA
:10133000002119504FF61040CFF6FF7003211950CD
:101340000020C2F220004EF8040CDEF8D80040F075
:101350008070CEF8D80041F20000CEF200000168A3
:1013600041F00101016043F204014068C2F2000152
:10137000086044F20060C2F2C33000F007F800F0E9
:101380000AF8BDE8D04000F00BB8D4D442F2131CE8
:10139000C0F2000C604740F2210CC0F2000C604724
:1013A00042F2AB4CC0F2000C6047D4D4D4D4D4D4B5
:1013B000D4D4D4D4D4D4D4D4D4D4D4D4D4D4D4D4ED
:1013C000D4D4D4D4D4D4D4D4D4D4D4D4D4D4D4D4DD
:1013D00080B56F4684B048F248100521C4F21F0062
:1013E00001603821C0F8F0114CF26C00C4F20A0020
:1013F0004FF0FF31016044F20400C4F200200168A4
:1014000041F0080101600821C0F8801000F0AEFD35
:1014100000F0E0FD9FED6A8B9FED6B9B48F21F5A39
:101420004CF6CD4B49F69A1844F6D35441F259760E
:1014300001A8C5F2EB1ACCF6CC4BC1F69918C1F253
:101440006204CDF2B71642F210790730009007E03F
:101450000C2101A800F093FC4FF47A7000F0C5F85D
:10146000B0EE480BB0EE491B02F060FAB7EEC00BCD
:1014700057A042F220034FF0203CC0F60D23B5EEFA
:10148000400AB0EE402AF1EE10FA48BF043090ED69
:10149000001A21EE001ABDEEC11A11EE100AB1EECB
:1014A000401A48BFB0EE412ABDEEC21A039350FB6A
:1014B0000AF1CDF808C0CDF804C04A1102EBD17191
:1014C000642201FB12004CF6CD4281B25143CA0C9A
:1014D00041F69A11514302EB8203090CA0EB430041
:1014E00001EB810511EE101A40F030008DF80D006F
:1014F000A2EB450242F030008DF80C002E200129AD
:101500008DF80B00009849DB0098A1FB0B230A29FA
:101510004FEAD30202EB8203A1EB430343F0300313
:1015200000F8013C31D3A2FB0835642905EB8503A3
:10153000A2EB430242F0300200F8022C2DD3A1FBB3
:101540000A23B1F57A7F4FEA5312A2FB083505EB67
:101550008503A2EB430242F0300200F8032C27D3AC
:10156000A1FB042349454FEA9312A2FB083505EB82
:101570008503A2EB4302A1FB063542F0300200F8DE
:10158000042D4FEA5531C0D208E00138B5EE400ACB
:10159000F1EE10FA7FF55CAF06E00238B5EE400AD6
:1015A000F1EE10FA7FF554AF2D2100F8011C4FE742
:1015B0000338B5EE400AF1EE10FA7FF549AFF3E7D4
:1015C0009A9999999999C93F9A9999999999D93FCD
:1015D0000000C8420000C8C243F20000C2F200008E
:1015E00001680131016070477047002808BF7047EB
:1015F000F0B503AF4DF8048D43F200010124C2F2AF
:10160000000101F10C0252E8003F0B684D6842E80E
:101610000046002EF7D141F2040C4FF47A7ECEF250
:10162000000CDCF80060761B8D68A5FB0664B4F541
:101630007A7F28BF744603FB0E48012452E8005FFE
:101640000D684E6842E80043002BF7D1DCF800300B
:101650009B1B8E68A6FB033605FB0EF3B6F57A7F5F
:10166000A3EB080328BF76463344B3F57A7FE5D36E
:10167000013802D008F57A78E0E75DF8048BBDE820
:10168000F04070477047F0B503AF2DE9000F81B00F
:1016900047F2413046F2AC1AC2F200004FF400713A
:1016A000C2F2000A4EF65C7600788022CEF2000686
:1016B0000024002843F2200008BF4021AAF80610A9
:1016C000C2F20000AAF80810002100F03EFC43F22C
:1016D000A0080021C2F200084FF4807240468AF848
:1016E0000040AAF80A4000F030FC0AF11A0000217C
:1016F000102200F02AFC0AF12A000021102200F03A
:1017000024FC02201021002200238AF801408AF8DC
:101710000240CAF80C4001F0C4FBBAF8081040F2CD
:101720002173C0F200030320002201F088FBBAF805
:10173000061004200122002301F0B3FB4FF2302BEE
:101740004FF40030CFF6FF7B43F2A019C2F200093C
:10175000002346F80B004046BAF80820494601F03D
:10176000D3FBBAF808004946BFF34F8F484401F154
:101770002002316082420ED202F1200132608142A9
:1017800009D201F120023160824204D202F120012B
:1017900032608142EBD303204146BFF34F8FBFF34A
:1017A0006F8F01F086FC4FF2B0114FF40030CFF68E
:1017B000FF7108F1200509F50074012370502146DE
:1017C00046F80B002846BAF8082001F09DFBBAF84D
:1017D0000800BFF34F8F204404F1200134608142A0
:1017E0000ED201F120023160824209D202F12001C1
:1017F0003260814204D201F1200431608442EBD393
:1018000003202946BFF34F8FBFF36F8F01F051FCC8
:101810004FF2B0114FF40030CFF6FF7108F14005E0
:1018200009F5806402237050214646F80B002846D3
:10183000BAF8082001F068FBBAF80800BFF34F8F30
:10184000204404F12001346081420ED201F12002D3
:101850003160824209D202F120013260814204D219
:1018600001F1200431608442EBD303202946BFF309
:101870004F8FBFF36F8F01F01CFC4FF2B0114FF48C
:101880000030CFF6FF7108F1600509F5C06403234D
:101890007050214646F80B002846BAF8082001F09F
:1018A00033FBBAF80800BFF34F8F204404F1200146
:1018B000346081420ED201F120023160824209D2AD
:1018C00002F120013260814204D201F12004316032
:1018D0008442EBD303202946BFF34F8FBFF36F8FB2
:1018E00001F0E7FB4FF2B0114FF40030CFF6FF717B
:1018F00008F1800509F5006404237050214646F87C
:101900000B002846BAF8082001F0FEFABAF80800E1
:10191000BFF34F8F204404F12001346081420ED286
:1019200001F120023160824209D202F120013260CD
:10193000814204D201F1200431608442EBD30320C0
:101940002946BFF34F8FBFF36F8F01F0B2FB4FF209
:10195000B0114FF40030CFF6FF7108F1A00509F582
:10196000206405237050214646F80B002846BAF83B
:10197000082001F0C9FABAF80800BFF34F8F2044DD
:1019800004F12001346081420ED201F12002316065
:10199000824209D202F120013260814204D201F177
:1019A000200431608442EBD303202946BFF34F8FDC
:1019B000BFF36F8F01F07DFB4FF2B0114FF4003099
:1019C000CFF6FF7108F1C00509F540640623705099
:1019D000214646F80B002846BAF8082001F094FA90
:1019E000BAF80800BFF34F8F204404F1200134609F
:1019F00081420ED201F120023160824209D202F10D
:101A000020013260814204D201F12004316084421D
:101A1000EBD303202946BFF34F8FBFF36F8F01F045
:101A200048FB4FF2B0114FF40030CFF6FF7108F1D0
:101A3000E00409F5606507237050294646F80B005D
:101A40002046BAF8082001F05FFABAF80800BFF3A0
:101A50004F8F284405F12001356081420ED201F1FB
:101A600020023160824209D202F1200132608142BB
:101A700004D201F1200531608542EBD303202146D9
:101A8000BFF34F8FBFF36F8F01F013FB4FF2B01115
:101A90004FF40030CFF6FF71705047F24830C2F279
:101AA000000040F60D11C0F20001016040F2481044
:101AB000C4F22E00002140F8C41C4A2140F8C81C82
:101AC000016841F08071016001B0BDE8000FF0BD18
:101AD000F0B503AF2DE9000F81B046F2AC18C2F2A9
:101AE0000008B8F8082010F8041F10F8183F10F884
:101AF000171C10F8161C10F8156C457841EA0621E1
:101B0000C678807843EA05236FF3DF3140EA062088
:101B10008A4243EA004447D143F2A0134EF65C7573
:101B2000C2F200034FF2302003EB442643F2A0033D
:101B3000CEF20005CFF6FF70C2F200034FF4003181
:101B400003EB4419295048463146234601F0DCF99D
:101B5000B8F80800BFF34F8F304406F120012E6023
:101B600081420ED201F120022960824209D202F1A3
:101B700020012A60814204D201F1200629608642B8
:101B8000EBD303204946BFF34F8FBFF36F8F01F0B4
:101B900090FA4FF2B0104FF40031CFF6FF70295099
:101BA00001B0BDE8000FF0BD98F80100551A98F893
:101BB000023098420AD008EB0001097C08EB410A88
:101BC000BAF81AB0CBF50072954217D908EB440168
:101BD000421C07284FF0000088BF0022488508EB10
:101BE00002004D83047488F80120D8F80C002844C2
:101BF000C8F80C0001B0BDE8000FF0BD43F2A01220
:101C00004EF65C79C2F20002CEF2000902EB4120EE
:101C100002EB4426584431462A4600F09DF90BEB6E
:101C20000500AAF81A00D8F80C004FF40031284437
:101C3000C8F80C004FF230202346CFF6FF7049F869
:101C4000001043F2A000C2F20000B8F8082000EB38
:101C500044153146284601F057F9B8F80800BFF39B
:101C60004F8F304406F12001C9F80060814211D243
:101C700001F12002C9F8001082420BD202F12001CA
:101C8000C9F80020814205D201F12006C9F80010F0
:101C90008642E7D303202946BFF34F8FBFF36F8FF0
:101CA00001F007FA4FF2B0104FF40031CFF6FF7099
:101CB00049F8001001B0BDE8000FF0BDF0B503AF6A
:101CC0002DE9000B46F2AC19C2F2000999F80300A5
:101CD00010B1BDE8000BF0BD47F24030C2F2000089
:101CE00000780028F5D0B9F80A000028F1D099F85A
:101CF000001043F22002C2F20002C0F500664EF668
:101D00007074002302EB411844F2A012C2F20002E8
:101D1000404602EBC12532462946CEF2000401F0CE
:101D2000F3F87019BFF34F8F05F120012560814250
:101D30000ED201F120022160824209D202F120017B
:101D40002260814204D201F1200521608542EBD35B
:101D500004204146BFF34F8FBFF36F8F01F036F978
:101D600099F800000130C1B2032988BF002089F82A
:101D700000000020A9F80A00BDE8000BF0BDF0B596
:101D800003AF2DE9000F81B047F240320024C2F2C8
:101D9000000212780090002A00F0D2800E4600293E
:101DA00000F0CE804EF6707B46F2AC1A44F2A015DD
:101DB000CEF2000BC2F2000AC2F200051AE000994E
:101DC000324600F0C9F8BAF80A004FF04042811BD1
:101DD0000020AAF80A108421C4F22E0100283444FD
:101DE00006460A604FF00001BFF34F8F8AF80310D8
:101DF00000F0A68001208AF803009AF8000043F260
:101E00002001BAF80A20C2F20001A84601EB4019ED
:101E10005AB9484601F0C3F9000657D44FF400629E
:101E2000AAF80A2000208AF804009AF80000454623
:101E3000964208EBC020A0EB020000F50060BED384
:101E4000009900F089F89AF800004FF4006200232E
:101E500005EBC0254846294601F056F805F5006017
:101E6000BFF34F8F05F12001CBF80050814211D212
:101E700001F12002CBF8001082420BD202F12001C6
:101E8000CBF80020814205D201F12005CBF80010EB
:101E90008542E7D304204946BFF34F8FBFF36F8FCE
:101EA00001F094F89AF800000022BAF80A3045468A
:101EB0000130C1B2032988BF002000998AF80000D0
:101EC0001944F01A009100211E4682E743F20001F6
:101ED000BFF34F8FC2F2000100208AF803000D68A3
:101EE0009AF8040060BB0868401B782825D847F2A0
:101EF0004030C2F20000007810B3FFF775FB0120FC
:101F00008AF80300BAF80A20002A7FF48EAF484608
:101F100001F045F900067FF581AFBFF34F8F002038
:101F20008AF803009AF8040050B943F20000C2F2A4
:101F300000000068401B7928D9D301208AF80400EA
:101F4000204601B0BDE8000FF0BD00239A4208BF53
:101F50007047C1540133F9E7D0B502AF00239A426C
:101F600008BFD0BDCC5CC4540133F8E7F0B503AF73
:101F70004DF804BD48F214004FF40051C4F20D00B6
:101F80004FF4805E4FF0400C4FF480334FF44042EA
:101F900043F2420401E0C0F800E050F8045CAE07F0
:101FA0000DD4AE040FD5EE04F5D5B5F1FF3FF4DC4A
:101FB000EE030AD46D060AD4C0F800C0EDE7426013
:101FC00003604460E9E70160E7E74360E5E75DF847
:101FD00004BBF0BDF0B503AF4DF8048D49F2000429
:101FE0004FF22010C4F20D04CFF6FF7040F661717D
:101FF00040F2401521504CF28000C4F20F00C4F2B0
:102000002E054EF20C1849F238060168CEF200088F
:1020100041F00301016040F20440286241F60041B2
:102020002068C0F21E01C4F20D06084204BFA86E6B
:102030005FEA80701ED04FF0004046F8040C28681C
:1020400040F0020028602868800709D528688007CA
:1020500044BF28685FEA807002D528688007F2D400
:102060004FF40030C8F880014FF000403060192074
:10207000FFF7BBFA4FF0804030600020206047F24D
:1020800000040A20C2F20004A86600214FF4207266
:102090002046FFF75AFF4FF4810020604FF4800084
:1020A000206440F24310AC61A86047F20040C2F2E5
:1020B000000040F62151C0F20001C0F804124FF4B4
:1020C0000030C8F80000012028605DF8048BF0BDE6
:1020D000F0B503AF2DE9000F89B040F2B016C4F29D
:1020E0002E0656F86C1C0891C80746F86C1C00F0C8
:1020F000528656F8040C47F240350028C2F200051B
:1021000000F0B88441F2140142F21402294407910C
:10211000A918069143F2140144F2140229440591CE
:10212000A918049141F2280142F22802294403919E
:10213000A91847F2000C029143F2280147F2003936
:1021400047F2203BC2F2000C4FF001134FF0000A9F
:1021500044F228022944C2F20009C2F2000B0191A4
:10216000A918009117E04FF6C000844208BF11F48F
:102170007F4F00F0188347F2403547F2000C4FF0D4
:1021800001133361C2F20005C2F2000C56F8040CD0
:10219000002800F06F8446F8040CDCE90AE156F8E8
:1021A000702C42F4005246F8702C56F8702C9204B1
:1021B0001FD456F8702C42F4005246F8702C56F892
:1021C000702C92045FBF56F8702C42F4005246F80F
:1021D000702C56F8702C58BF5FEA824209D456F82A
:1021E000702C42F4005246F8702C56F8702C920471
:1021F000D5D556F8702C22F4005246F8702C736036
:10220000726812F0011F0BD0726812F0011F1CBF20
:10221000726812F0011F03D0726812F0011FEFD133
:102220004FEA1E4285F804A01FFA8EF442EA0142EA
:102230004FEA1148B4F5086F8BB246DA40F201302C
:10224000844200F3AC80802C00F0EE80822C00F001
:102250003B81B4F5817F8ED101F07F0007288AD8B9
:1022600006EB800047F2000C0906C2F2000C6FF486
:102270008031026958BF6FF00101114001610120F6
:1022800047F24035CBF800008020CBF804004FF037
:102290000113CBF808A0C2F20005CCE912BAF36032
:1022A000306840F48030306085F804A03068002841
:1022B0003FF46CAF306800281CBF306800283FF442
:1022C00065AF30680028F1D160E742F220208442F7
:1022D00000F39F80B4F5086F00F05F81B4F5106FD4
:1022E00000F0AE8142F22100844208BFB8F1070F2E
:1022F0007FF441AF47F240350120C2F20005C9F832
:102300000000802047F2000CC0F20700C2F2000C6F
:10231000C5E908E1C9F8040005F12800C9F808007A
:102320000398C9F80C000298C9F810000198C9F880
:1023300014000098C9F81800CCE9029A306840F0FF
:1023400001003060306840B1306800281CBF306840
:10235000002802D030680028F4D10121CBF8001009
:1023600048F28000CBF80400CBF808A04FF001132E
:10237000CCE912BAF360306840F4803030602971E3
:10238000306800283FF402AF306800281CBF306876
:1023900000283FF4FBAE30680028F1D1F6E6A4F542
:1023A000D065022DC0F0018240F20230844200F07C
:1023B000C181B4F5A06F7FF4DEAE47F2000C0120BE
:1023C000C2F2000C47F24035CBF800008020CBF879
:1023D00004004FF00113CBF808A0C2F20005CCE9CD
:1023E00012BAF360306840F48030306085F804A0A1
:1023F000306840B1306800281CBF3068002802D027
:1024000030680028F4D1500600F1807046F85C0C6A
:10241000BCE642F22120844200F0598142F2213090
:1024200084427FF4A0AE63E101212846C9F8001080
:102430008021C0F2020120F814AFC9F8041000F5A1
:102440008051C9F80C1000F50051C9F80800C9F80E
:10245000101000F54051C9F8141000F58040C9F87B
:102460001800CCE9129A306840F48030306030684F
:1024700040B1306800281CBF3068002802D03068A6
:102480000028F4D10120CBF800008020CBF8040014
:10249000CBF808A04FF00113CCE902BAF360306822
:1024A00040F00100306085F804A0306800283FF457
:1024B0006DAE306800281CBF306800283FF466AE5F
:1024C00030680028F1D161E601F07F0007283FF66F
:1024D00052AE06EB800047F24035C2F20005090615
:1024E0000069A5F814A002D510F4803204D10029A7
:1024F00004D410F0010001D0012028750120C9F892
:102500000000802047F2000CC0F20200C9F804006D
:1025100005F11400C9F808000798C9F80C000698DE
:10252000C2F2000CC9F810000598C9F8140004980C
:10253000C9F818004FF00113CCE9129A306840F442
:1025400080303060306840B1306800281CBF30688F
:10255000002802D030680028F4D10120CBF8000018
:102560008020CBF80400CBF808A0CCE902BAF360D5
:10257000306840F00100306085F804A03068002821
:102580003FF404AE306800281CBF306800283FF4D8
:10259000FDAD30680028F1D1F8E52946287801F82A
:1025A000140F0120C9F800008020C0F20200A0F53D
:1025B0008030C9F8040001F58050C9F80C0001F51D
:1025C0000050C9F8100001F54050C9F80810C9F8CA
:1025D000140001F58040C9F81800CCE9129A30685F
:1025E00040F480303060306840B1306800281CBF53
:1025F0003068002802D030680028F4D10120CBF8E0
:1026000000008020CBF80400CBF808A04FF00113A5
:10261000CCE902BAF360306840F00100306085F820
:1026200004A0306800283FF4B1AD306800281CBF1A
:10263000306800283FF4AAAD30680028F1D1A5E544
:1026400002212A70C0F2C80101F58020B061C820C3
:10265000C0F20200F0613162FFF715F847F20004A2
:102660000021C2F20004802204F18000FFF76DFC1B
:102670004CF65D70A446CBF6C600C4F8A00049F243
:1026800019304FF00113C7F2D540C4F8E000012023
:10269000CBF800008020CBF80400CBF808A0CCE9F0
:1026A00012BAF360306840F48030306085F804A0DE
:1026B000306800283FF46AAD306800281CBF3068DD
:1026C00000283FF463AD30680028F1D15EE50804CE
:1026D0000ED143F2000046F2A811C2F20000C2F28D
:1026E00000010068086043F21000C2F200000270AE
:1026F0000120CBF800008020CBF80400CBF808A024
:102700004FF00113CCE912BAF360306840F4803026
:10271000306085F804A0306800283FF437AD306899
:1027200000281CBF306800283FF430AD3068002816
:10273000F1D12BE501F07F0007283FF61CAD06EB39
:10274000800047F2000C0906C2F2000C4FF4803101
:10275000026958BF012111430161012047F2403550
:10276000CBF800008020CBF804004FF00113CBF829
:1027700008A0C2F20005CCE912BAF360306840F458
:102780008030306085F804A0306800283FF4FEAC4B
:10279000306800281CBF306800283FF4F7AC306870
:1027A0000028F1D1F2E443F46E4340F60251C2F244
:1027B000000111F804CFCC784D78897841EA0421E2
:1027C0004CEA052555EA01413FF4D5AC40F60250EC
:1027D000C2F2000000F116041FFA82FC0DE014F8AA
:1027E000160FE1786278A578123445EA012140EAB3
:1027F000022050EA01413FF4BEAC14F8155C14F815
:10280000160C40EA0520604507D114F8130C14F8A3
:10281000145C45EA002083425BD0204610F8081D76
:10282000C5784278807840EA052041EA022151EAE1
:1028300000413FF4A0AC14F80B0C14F80C2C42EA45
:102840000020604507D114F8090C14F80A2C42EA5C
:102850000020834245D0204610F8021FC2784578F8
:10286000807840EA022041EA052151EA00413FF424
:1028700082AC14F8010C14F8022C42EA00206045E6
:1028800005D16078227842EA0020834232D0204687
:1028900010F80C1FC2784578807840EA022041EA9F
:1028A000052151EA00413FF466AC607A227A42EA9F
:1028B0000020604593D1E07AA27A42EA0020834268
:1028C0008DD104F108030EF07F40B0F1407F0FD0AE
:1028D00016E0A4F116030EF07F40B0F1407F07D060
:1028E0000EE0A4F10C030EF07F40B0F1407F07D161
:1028F000087809E0A31E0EF07F40B0F1407FF7D0CA
:10290000587A1B7A43EA002047F2403547F280228A
:102910004045C2F20005C2F2000238BF8046BCF555
:10292000E06F17D0BCF5007F0BD1687840F63E41D0
:10293000C2F20001002840F6A040C2F2000008BF29
:10294000014610464246FFF707FB47F28021C2F2DC
:10295000000115E0687840F6A041C2F200010028AD
:1029600040F63E40C2F2000008BF01461046424613
:10297000FFF7F2FA47F280210720C2F20001487007
:102980004EF6707447F2000C08EB010021F01F01B5
:10299000CEF20004C2F2000CBFF34F8F01F120020F
:1029A000216082420DD201F140032260834208D2AD
:1029B00001F160022360824203D2803122608142B1
:1029C000ECD3B8F1000FBFF34F8FBFF36F8F2ED052
:1029D0000120C9F800004FEA084047F2802180300A
:1029E000C2F20001C9F8040001F58050C9F80C00DA
:1029F00001F50050C9F8100001F54050C9F8081061
:102A0000C9F8140001F58040C9F81800CCE9129A01
:102A1000306840F480303060306840B13068002861
:102A20001CBF3068002802D030680028F4D1012093
:102A3000CBF800008020CBF80400CBF808A04FF0C2
:102A40000113CCE902BAF360306840F00100306055
:102A500085F804A0306800283FF498AB306800285F
:102A60001CBF306800283FF491AB30680028F1D1DA
:102A7000FFF78CBBF468002C00F08D8147F24033E7
:102A8000F460C2F200031879002818BF4FF48030B8
:102A900020422DD0188C42F22102998C50400843DC
:102AA0004FF00000187123D146F2A01503F1280160
:102AB000C2F2000507222846FFF74EFA286847F2BF
:102AC0004033C2F20003862812D172B6987940F0E2
:102AD0000800987156F8680C010606D4802146F863
:102AE0006C1C40F0800046F8680C62B650205871AB
:102AF0001869204000F04F81050C079000F0A58078
:102B00004FF0010B04E00BFA09F0854300F09D80C3
:102B100095FAA5F0B0FA80F947F20000C2F2000081
:102B200000EBC918D8F870000028ECD04FF0000A6C
:102B300001460A4612F8043F54789478D2781A066F
:102B40004FD4CA784B788C78097844EA022241EA5B
:102B5000032141EA024101293ED00A4612F8043F0E
:102B600054789478D2781A0639D4CA784B788C780D
:102B7000097844EA022241EA032141EA024101299B
:102B800035D00A4612F8043F54789478D2781A0661
:102B900030D4CA784B788C78097844EA022241EA2A
:102BA000032141EA024101292CD00A4612F8043FD0
:102BB00054789478D2781A063FD4CA780AF1040A75
:102BC0004B788C78097844EA022241EA032141EAF1
:102BD00002410129ADD117E00AF1010A14E00AF11E
:102BE000010AC8F87010BAF1000F14D18BE70AF18E
:102BF000020A09E00AF1020AC8F87010BAF1000FDF
:102C000009D180E70AF1030A0021C8E91C11BAF1D1
:102C1000000F3FF478AFC17842788378047843EAB4
:102C2000012144EA022242EA0144D8F87810884798
:102C3000BAF1010A2046EED165E70AF1030AC8F8A5
:102C40007010BAF1000FE6D15DE707981FFA80F81F
:102C5000B8F1000F00F09F8047F2000AC2F2000AAC
:102C600006E0012000FA0BF038EA000800F093803B
:102C700098FAA8F0B0FA80FB0AEBCB1E5EF8300F92
:102C80000028EED04FEA4B0C00250346194611F8F8
:102C9000042F4C788C78C97811064CD4D9785A789E
:102CA0009C781B7844EA012143EA022242EA01436C
:102CB000012B3DD0194611F8042F4C788C78C97837
:102CC000110637D4D9785A789C781B7844EA0121C8
:102CD00043EA022242EA0143012B30D0194611F89F
:102CE000042F4C788C78C97811062AD4D9785A7870
:102CF0009C781B7844EA012143EA022242EA01431C
:102D0000012B23D0194611F8042F4C788C78C97800
:102D100011063AD4D97804355A789C781B7844EA5D
:102D2000012143EA022242EA0143012BAED10EE027
:102D300001350CE00135CEF800308DB991E7023550
:102D400005E00235CEF8003055B98AE703350AEBC5
:102D50008C110022CEF800204A63002D3FF481AF91
:102D60000AEB8C1101F13809C17842788378047834
:102D700043EA012144EA022242EA0144D9F8001060
:102D80008847013D2046EFD16BE70335CEF8003090
:102D9000002DE5D165E7089D47F240346806C2F290
:102DA000000419D556F8040C46F8040CF068F060DD
:102DB000306840B1306800281CBF3068002802D05D
:102DC00030680028F4D14FF0FF30706056F82C0CBA
:102DD000FEF758FC00202061E80102D5A06800B190
:102DE0008047A80102D5E06800B18047680704D594
:102DF00056F82C0CC0F34020607056F8680C0006A2
:102E000048BF5FEA056003D409B0BDE8000FF0BD1C
:102E100060790028F8D0013860710106F4D1A079FA
:102E200010F0F700A07105D156F8680C20F0800072
:102E300046F8680CFBBE09B0BDE8000FF0BDF0B568
:102E400003AF2DE900070446053810F1030F25D321
:102E500047F200090D04C2F200094FF0005009EBDF
:102E6000C416002A08BF40EA01450021402230462E
:102E700098464FEAC41AFFF768F80120B8F1000F2E
:102E800049F80A50B060C6F8388007D047F24031A0
:102E9000A040C2F200010A6910430861BDE80007C2
:102EA000F0BDF0B503AF4DF8048D0446053810F1C0
:102EB000030F26D347F200000E04C2F20000002ADE
:102EC0004FF0005200EBC41508BF42EA014605F17D
:102ED0004000002140229846FFF737F8B8F1000F74
:102EE0002E644FF00100A864C5F8788009D047F23D
:102EF00040314FF48030C2F20001A0400A69104313
:102F000008615DF8048BF0BDF0B503AF4DF8048D9A
:102F10004FF0000C80F803C080F802C0012480F854
:102F200001C001F5005E0470802480F805C084466D
:102F300001F5405806460CF8044F140A8CF803407B
:102F40004FEA1E248CF802200A0A44744FEA18241F
:102F5000447501F58044250A45761D0A01F5805C1B
:102F60004577054642724FEA1C2242730A0E05F865
:102F7000081F090CEA704FEA1C62A970014606F8A6
:102F80000CCFF2704FEA1C42B270024601F810EF0B
:102F90004FEA1E66CE704FEA1E468E70014602F85A
:102FA000148F4FEA1866D6704FEA18469670220EB4
:102FB00001F8184FCA70220C8A70190E00F81C3FD5
:102FC000C170190C81705DF8048BF0BD421F12F1C5
:102FD000030F38BF7047F0B503AF4DF804BD47F29B
:102FE00000024FF4803CC2F2000202EBC01EDEF889
:102FF00078205AB10A4612F8044F53789578D6785B
:103000009570D67043F080035370147072B60CFA4A
:1030100000FCDEF87420A2B140F2B013080EC4F236
:103020002E03D070080C11709070080A5070186848
:1030300010EA0C0F18D0CEF8741062B65DF804BB1D
:10304000F0BD0020CEE9121040F2B010C4F22E0004
:10305000026842EA0C020260CEF87010CEF87410DA
:1030600062B65DF804BBF0BD41F20400CEF2000090
:10307000026853F8704C44F4804443F8704C9C68E8
:1030800053F8705C6D0404D40568AD1AB5F5166F7D
:10309000EFD314EA0C0FCED10020CEE9121018683D
:1030A00040EA0C001860CEF8741062B65DF804BBFC
:1030B000F0BD421F12F1030F38BF7047F0B503AFE8
:1030C0004DF8048D47F2000E4FF0010CC2F2000ED5
:1030D0000EEBC0139B6B002B4FEA40030CD00D4648
:1030E00015F8048F6A78AE78EC78AE70EC7042F028
:1030F00080026A7085F800800EEB831E72B67246FD
:103100000CFA00FC52F8343F9BB140F2B0100C0EA8
:10311000C4F22E00DC700C0C19709C700C0A5C70F0
:10312000036813EA0C0F16D0116062B65DF8048BC9
:10313000F0BD0020CEE9021040F2B010C4F22E0023
:10314000036843EA0C030360CEF83010116062B6E6
:103150005DF8048BF0BD41F20403CEF200031C685D
:1031600050F8705C45F4804540F8705C856850F814
:10317000706C760404D41E68361BB6F5166FEFD358
:1031800015EA0C0FD0D10023CEE90213036843EAFD
:103190000C030360116062B65DF8048BF0BD10F89B
:1031A000041F42788378C07841EA022143EA002074
:1031B00041EA0040704780B56F464FF6807472B6A2
:1031C000C2F227044EF670724FF6B851EFF3058045
:1031D000CEF200026060CFF6FF711EF0040F0CBF4C
:1031E000EFF30880EFF3098048F2203A5158A160CC
:1031F0004FF6BC51CEF6B85ACFF6FF715158E16088
:103200004FF6C451CFF6FF71515821614FF6C851A6
:10321000CFF6FF71515861618169A161C069E061B8
:1032200000F01CFB84ED080A00F049FBA64642F2C0
:10323000C80B44F290194FF0FF32C3F66E3BC7F251
:10324000DC6904F1280C60620B214EF804195EF869
:10325000043F5A40D4078AEA520308BF53088AEA57
:1032600053045FEA827858BF5C088AEA5405510724
:1032700058BF65088AEA5501100758BF69088AEAED
:103280005100D60658BF480892068AEA500258BF35
:1032900042089B068AEA520358BF5308A4068AEAEA
:1032A000530458BF5C08AD068AEA540558BF650848
:1032B00089068AEA550158BF690880068AEA5100E2
:1032C00058BF480892068AEA500258BF42089B0637
:1032D0008AEA520358BF5308A4068AEA530458BF27
:1032E0005C08AD068AEA540558BF650889068AEA73
:1032F000550158BF690880068AEA510058BF48083E
:1033000092068AEA500258BF42089B068AEA520394
:1033100058BF5308A4068AEA530458BF5C08AD0698
:103320008AEA540558BF650889068AEA550158BFDC
:10333000690880068AEA510058BF480892068AEA5E
:10334000500658BF46089A068AEA560358BF7308C3
:10335000A2068AEA530458BF5C08AA064CF2194236
:10336000C0F26D7282EA941258BFA209890648F62B
:103370003201C0F6DB6148BF4A40800641F264007A
:10338000C1F6B75048BF4240B00648BF82EA0B02C0
:10339000980648BF82EA0902A0060EF1040048BF61
:1033A00082EA0A026045FFF452AF4FF680704EF693
:1033B0007078C2F22700CEF2000844F20C144FF6E7
:1033C000F4668262C4F20804BFF34F8FC8F80000AD
:1033D0002030C8F800004CF21C00C4F20F00BFF30C
:1033E0004F8FBFF36F8FCFF6FF76016D402241F410
:1033F000405101650221A151016862F3060101609B
:1034000041F6484143F68050C2F20001C0F6CD308B
:103410000968814201D900F054F849F6007000258E
:10342000C0F22400A55144F8045C012644F80C0CB9
:103430004EF28010CEF2000044F8046C4FF0FF31E1
:10344000016041608160C160016101E0FEF740FE02
:1034500020680028FAD0013526604F2DF6D940F2B9
:1034600040100221C4F22E00016049F23400C4F27F
:103470000D004FF000410160206848B14FF69C50AC
:103480000421CFF6FF70C0F2FA5148F80010FEE7B1
:1034900048F23000F121C4F20F00C0F6AD310160F6
:1034A0002268002AEAD101602268002A02BF016076
:1034B0002268002AE2D101602268002AEFD0DDE70D
:1034C0007047F0B503AF2DE9000F81B04CF248030F
:1034D00040F2000AC4F20F03C4F2080A4AF20141A2
:1034E000C1F6787153F8349C884253F8306CDAF89E
:1034F0000CC01CD344F20161C2F2C331884221D313
:103500004BF600214BF22322CDF63C41C0F24C0297
:103510000144090AA1FB0212D10919225143B1F554
:10352000A27F88BF40F2451101F2E2410CE043F274
:10353000016240F27E41C0F26E12904238BF40F20A
:10354000B63101E040F2E241A1F5487144F2AF75B5
:103550008AB26A430CF01F05A1EB124189B24908F7
:1035600001EB12419A6B42F0C0029A63B5EB111F56
:103570004FEA1112009216D22CF01F0141EA020C00
:10358000CAF80CC0DAF8001000290CD4DAF80010E0
:1035900000295CBFDAF80010002904D4DAF8001022
:1035A000B1F1FF3FEEDC43F2400848F2000E5FEA63
:1035B0008911C8F20008C4F20D0E2ED4DEF81010E6
:1035C000002201EA0801B1EB080518BF01254145B9
:1035D00009F0605108BF4FF0C05291424FEA0531E7
:1035E00005D029F0605542EA050943F8349C06F4F9
:1035F00040528A4240F01C8149F0007943F8349CE3
:103600001968890609D51968890644BF19685FEAEF
:10361000816102D519688906F2D44BF20022C2F208
:103620009F62904215D201260146012505E0013531
:1036300005FB00F1714391420ED2072DF7D9042EFC
:103640000AD80136012505FB00F171439142F4D3FC
:1036500002E001250126014601F5B70049F6817116
:1036600000F55860C1F25E61A0FB01026C2141F6D9
:10367000003BA8F58254100DC0F2B70B6C2843F242
:103680007F0038BF110D3629C8F2010098BF3621DE
:10369000DEF800200C43024001FB0BF0A24240F098
:1036A000818053F8381C01F00702691EB0FBF5F069
:1036B0008A4240F093804FF4E05109F4E05201EB6C
:1036C000862101F4E051B0FBF6F08A42009E40F002
:1036D00099804DF27F1141F29F02C0F6F001C0F2D5
:1036E000E50201440424C909A1FB0212110B0429BB
:1036F0004FF4407138BF140B01EB042109F4407200
:1037000001F440718A4204D029F44072114343F815
:10371000341C53F8341C21F0007143F8341C196830
:10372000890609D51968890644BF19685FEA81616D
:1037300002D519688906F2D44DF68361C4F21B31B3
:10374000A0FB0112B0FBF4F3910C4FF0FF32B2FB7F
:10375000F1F141F64842C2F20002106053600CF0F1
:103760001F02B24243F20802C2F20002116015D9F0
:103770002CF01F013143CAF80C10DAF800100029B0
:103780000CD4DAF8001000295CBFDAF80010002928
:1037900004D4DAF80010B1F1FF3FEEDC01B0BDE86F
:1037A000000FF0BD4FF48052CEF8002001F500511B
:1037B000CEF80010DEF8001000293FF572AFDEF8F9
:1037C000001000295CBFDEF8001000293FF569AF4A
:1037D000DEF80010B1F1FF3FECDC62E701F0070119
:1037E00043F8381C1968C9037FF565AF1968C90328
:1037F00044BF19685FEAC1317FF55DAF1968C9033D
:10380000F0D458E729F4E05241EA020943F8349C25
:10381000196889077FF55DAF1968890744BF196882
:103820005FEA81717FF555AF19688907F0D450E7D9
:1038300026F44052114343F8301C196809077FF5FC
:10384000DBAE1968090744BF19685FEA01717FF5AB
:10385000D3AE19680907F0D4CEE6704748F280105D
:10386000C4F20D000168490709D4016849075CBF2B
:1038700001685FEA417102D401684907F2D5006826
:1038800047F2C061C2F20001C0F30B2001EE100A42
:1038900091ED010AB8EE400A91ED032AB8EE411A03
:1038A00031EE400A91ED021A21EE000A91ED001A64
:1038B000B8EE411A80EE020A31EE400A7047D0B5E8
:1038C00002AF44F2240EC4F20D0EDEF800C0DEF8A2
:1038D0000400DEF80010DEF80430984203D18C4575
:1038E000024664461DD0DEF800C0DEF804008342C4
:1038F00003D161451A460C4613D0DEF80030DEF8DD
:103900000410884203D19C450246644609D0DEF883
:1039100000C0DEF804008142DBD163450A461C4644
:10392000D7D1600440EAD230D0BDD4D480B56F4640
:1039300000F002F880BD00BF80B56F4692B08DEDFB
:10394000001B8DED020B0020119010900F900E9037
:103950000D900C908DED060B069807991191109023
:103960008DED081B089809990F910E900E48784428
:103970004FF4807100F07AFB8DED0A0B0A980B99D9
:103980000D910C9000F012F89DED001B9DED020BC7
:1039900030EE410B8DED040B082000F075F99DED24
:1039A000040B12B080BD00BFAEE7FF1F80B56F46AD
:1039B0008AB00020099008908DED020B02980399BF
:1039C000099108900E4878444FF4807100F04EFB46
:1039D0008DED000B0B487844006807900A48784446
:1039E00008301021072202F0ACFA9DED000B049084
:1039F00080ED020B04A800F011F80AB080BD00BFF2
:103A000056E7FF1FB6FBFF1F6AF6FF1F80B56F4624
:103A100050461021072202F095FA80BD80B56F460E
:103A200082B00146C8680090019150F8040C90F8EB
:103A30002A008007002808D4FFE70099019851F870
:103A4000042C5268904702B080BD0198006802F0D3
:103A500077FA02B080BD80B56F4600F001F880BDF6
:103A600084B00091014600980022039202920391D3
:103A7000029008440246019200BF884203D6FFE745
:103A8000019804B07047FEDE80B56F4600F001F883
:103A900080BD83B000220292019202900191421AED
:103AA000009200BF884203D6FFE7009803B070473A
:103AB000FEDE80B56F4600F001F880BD83B00022C5
:103AC000029201920290019100FB01F280FB011031
:103AD000009200BFB0EBE17F03D1FFE7009803B095
:103AE0007047FEDE80B56F4600F001F880BD84B0FF
:103AF000009101900022039202920390029100BF74
:103B000031B1FFE70198009990FBF1F004B07047E4
:103B1000FEDE80B56F4600F001F880BD85B00191F2
:103B2000029000220492039204900391884203D1F0
:103B3000FFE70298009002E001980090FFE70098EC
:103B400005B0704780B56F4600F002F880BD00BF39
:103B5000C0B501AF4DF804AD88B0029103900022CA
:103B60000792069207900691059004910C487844BC
:103B700003680C487844D0F800A005A804A9524670
:103B800000F00EFFC00718B1FFE70398019002E0B4
:103B900002980190FFE7019808B05DF804ABC0BD42
:103BA00022FAFF1F20FAFF1F80B56F4600F001F8D0
:103BB00080BD85B00191029000220492039204908E
:103BC0000391884203DAFFE70298009002E001982F
:103BD0000090FFE7009805B07047D4D4F0B503AF6C
:103BE0004DF8048D002816D4044600F0ADF8411CB1
:103BF00011D000F10B010619DFF83C8021F007011C
:103C00000C1FC8F8006084420ED0251A284600F028
:103C10009BF8B04205D04FF0FF3420465DF8048B8E
:103C2000F0BD7019C8F80000D8F804000028F4D1DD
:103C3000C8F80440F1E700BFD4760020F0B503AF28
:103C40004DF804BD0F4A04460068126826189642D3
:103C500003D000205DF804BBF0BD0D1A082D98BFFD
:103C600008252846FFF7BAFFB04205D0411CF0D026
:103C700020C000F093F8ECE7206828442060012081
:103C8000E8E700BFD4760020F0B503AF2DE9000BC4
:103C900010F1140F06D32B490C2200F079F8425092
:103CA00000243DE00446254800F0B6F8E01D244E0F
:103CB00020F0070808F10809346884B12068354607
:103CC000484515D2264656F8040F0028F4D1204660
:103CD0004946FFF7B3FF0028EED0306816E04846AB
:103CE000FFF77CFF044601301ED0C4F800900EE0C0
:103CF000A0EB0900082831BF606844F8090004EB14
:103D00000900616824BF4160C4F8009028600B4836
:103D100000F083F8043448F00401204600F07EF8F7
:103D20002046BDE8000BF0BD06490C2200F030F83B
:103D30004250024800F071F8B2E700BFE076002080
:103D4000D076002008000000D0B502AF0C4A014632
:103D5000B1F1FF3F10680BDD0A4B1B1A8B420CD2EE
:103D600009490C2200F014F842504FF0FF30D0BD4A
:103D7000064B4C42C31AA342F2D301441160D0BD9A
:103D8000B01C00200000282008000000685200003D
:103D900001480068704700BFDC760020B0B502AF74
:103DA000A0B104460020254645F80409174800F054
:103DB00033F81749086850B1854208D301684218A2
:103DC000AA4209D0854216D0011DF3E7B0BD20609C
:103DD0000D6054F8041C05E02A6805461144426849
:103DE000016010466A1882420AD1D0E900020844F4
:103DF000C5E9000204E007490C22FFF7C9FF425061
:103E00000248BDE8B04000F008B800BFE0760020EE
:103E1000D076002008000000704770470A46002155
:103E2000FEF793B870478AED000B70470148514682
:103E30007844704705000000704700BF80B56F46AA
:103E40002DED028B06484FF4A0617844B0EE408B14
:103E500000F070F9B0EE480BBDEC028B80BD00BFE6
:103E6000E2E2FF1F80B56F462DED028B06484FF44E
:103E7000A0617844B1EE408B00F05CF9B0EE480BE5
:103E8000BDEC028B80BD00BFBAE2FF1F9AED000BB4
:103E9000B1EE400B8AED000B704700BF80B56F4656
:103EA0002DED028B06484FF4A061784430EE018B73
:103EB00000F040F9B0EE480BBDEC028B80BD00BFB6
:103EC00082E2FF1F80B56F462DED028B06484FF44E
:103ED000A061784430EE418B00F02CF9B0EE480B35
:103EE000BDEC028B80BD00BF5AE2FF1F80B56F465C
:103EF0002DED028B06484FF4A061784420EE018B33
:103F000000F018F9B0EE480BBDEC028B80BD00BF8D
:103F100032E2FF1F80B56F462DED028B06484FF44D
:103F2000A061784480EE018B00F004F9B0EE480BFC
:103F3000BDEC028B80BD00BF0AE2FF1F0020B4EE83
:103F4000410BF1EE10FA08BF012000F0ADBD00BF3B
:103F5000D0B502AF2DED028B91ED000B0446064863
:103F600078444FF4A061B1EE408B00F0E3F884EDAB
:103F7000008BBDEC028BD0BDCCE1FF1F9AED000B96
:103F8000B1EE400B8AED000B704790ED000B91ED08
:103F9000001B0020B4EE410BF1EE10FA08BF012027
:103FA00000F082BDD0B502AF2DED028B91ED000B7C
:103FB00092ED001B0446064878444FF4A06120EEC1
:103FC000018B00F0B7F884ED008BBDEC028BD0BD07
:103FD00074E1FF1F00F012BDD0B502AF2DED028BD2
:103FE00091ED000B92ED001B0446064878444FF417
:103FF000A06130EE018B00F09DF884ED008BBDECEC
:10400000028BD0BD40E1FF1F00F05CBBD0B502AF1A
:104010002DED028B91ED000B92ED001B044606483E
:1040200078444FF4A06130EE418B00F083F884EDCA
:10403000008BBDEC028BD0BD0CE1FF1F00F06FBB0D
:10404000704780ED000B7047B0B502AF82B0054CF1
:10405000054D7D447C4400942D68019500F030F8B6
:1040600002B0B0BD8CF0FF1F46F5FF1F01F06CBF22
:1040700001487844704700BF6EF0FF1FD0B502AF13
:1040800004460846114601F05FFF84ED000BD0BDE9
:1040900001487844704700BF5EF0FF1FB0B502AF23
:1040A00082B0054C054D7D447C4400942D680195FB
:1040B00000F006F802B0B0BD48F0FF1FF6F4FF1F95
:1040C00080B56F4684B0D7E902EC91ED000B02A9F0
:1040D000CDF800E08DED020BE04704B080BD00BFDD
:1040E0000248002178440830704700BF1CF0FF1FD1
:1040F00080B56F4652F8043C1B69984780BDD4D404
:1041000080B56F4652F8043C1B69984780BDD4D4F3
:104110007047CAF80000704701485146784470471C
:104120000500000070477047026811400160704749
:1041300008407047090A202994BF00680020704792
:10414000120A202A94BF096800210160704700BF4D
:10415000B0B502AF054601200C4600F0A7FC0748A9
:104160001321784401222C4401F08CF801F0B2F8BC
:10417000AC427CBF2046B0BDFEDE00BF7AE2FF1F2E
:10418000B0B502AF054601200C4600F08FFC064892
:1041900013217844012201F075F801F09BF8A54243
:1041A0007CBF281BB0BDFEDE4AE2FF1FF0B503AFA7
:1041B0004DF804BD044601200E68156800F076FC39
:1041C0000748132178440122354401F05BF801F0DF
:1041D00081F8B5427EBF25605DF804BBF0BDFEDE10
:1041E00018E2FF1F00F06EBAF0B503AF4DF804BD42
:1041F000044601200D68166800F058FC074813219A
:104200007844012201F03EF801F064F8B5427FBF26
:10421000A81B20605DF804BBF0BDFEDEDCE1FF1FE3
:1042200000F07DBA00228842B8BF0122104600F09B
:104230003BBC0268096800208A42B8BF012000F038
:1042400033BC00F084BB00F098BB00F0A9BB401A5F
:10425000B0FA80F0400900F027BC00680968401AF5
:10426000B0FA80F0400900F01FBC00BFD0B502AF2B
:1042700082B009680191044C01A97C440094FFF7C5
:104280003FFF02B0D0BD00BFBAEEFF1FF0B503AFD5
:104290004DF8048D054601200C4600F007FC094846
:1042A00013217844012285FB046800F0EBFF01F044
:1042B00011F8B8EBE67F02BF05FB04F05DF8048B54
:1042C000F0BDFEDE3AE1FF1FF0B503AF2DE9000BB4
:1042D000804601200D68166800F0E8FB0A481321AB
:1042E0007844012285FB064900F0CCFF00F0F2FF84
:1042F000B9EBE47F01BF05FB06F0C8F80000BDE89C
:10430000000BF0BDFEDE00BFFCE0FF1F00F076BB3F
:10431000F0B503AF2DE9000F8BB06C466FF30304CB
:10432000A546079089460A9110211D48012278442C
:1043300000F0A8FF83461B488A4614467844422171
:10434000012200F09FFF054617480E4678444FF4BF
:104350000061904601F094F88DE87001134A08A9B5
:104360007A44049010465A46534600F08FF90020D4
:1043700000F09CFB04460E4878441321012200F013
:1043800081FF00F0A7FFE00701BF079890FBF9F05D
:10439000A7F11C04A54604BFBDE8000FF0BDFEDE7A
:1043A0004EDFFF1FF0DEFF1FE4DDFF1F51000000A6
:1043B00064E0FF1F4CE100BFF0B503AF2DE9000F33
:1043C0008BB06C466FF30304A5460A9182461848E9
:1043D0000C4678442721012200F054FF07918146C2
:1043E0001448934678444221012200F04BFF0546D1
:1043F00011480E4678444FF40061904601F040F8B1
:10440000CDE900B5CDE902680C4A08A97A440490C8
:1044100010464A46079B00F039F99AFBF4F000FB7E
:1044200014A0A7F11C04A546BDE8000FF0BD00BF15
:10443000DADFFF1F48DEFF1F2CDDFF1F3100000009
:1044400006E100BFF0B503AF2DE9000F8BB06C465D
:104450006FF30304A546079008680690D2F8008021
:10446000CDF8288010211F480122784400F00AFF6F
:1044700081461D488A46934678444221012200F035
:1044800001FF054619480E4678444FF40061144672
:1044900000F0F6FFCDE900B5CDE90264144A08A9A1
:1044A0007A44049010464A46534600F0EFF8002044
:1044B00000F0FCFA04460F4878441321012200F072
:1044C000E1FE00F007FFE00701BF069890FBF8F05F
:1044D0000799086001BFA7F11C04A546BDE8000FBD
:1044E000F0BDFEDE12DEFF1FB4DDFF1FA8DCFF1FE4
:1044F000AB01000024DFFF1FF0B503AF2DE9000F73
:104500008BB06C466FF30304A5460790D2F8009079
:10451000CDF82890D1F8008018482721784401224E
:1045200000F0B0FE06908A46154893467844422132
:10453000012200F0A7FE054612480E4678444FF4CB
:104540000061144600F09CFFCDE900B5CDE902649E
:104550000D4A08A97A4404901046069A534600F082
:1045600095F898FBF9F0079900FB1980A7F11C0456
:104570000860A546BDE8000FF0BD00BF90DEFF1F3C
:1045800000DDFF1FE4DBFF1FF500000000F03BB97A
:1045900000F08FB9B0B502AF054600200C4600F020
:1045A00085FA0120641978BF002000F07DFA0146E9
:1045B0002046B0BDB0B502AF054600200C4600F065
:1045C00075FA0120AC4278BF0020641B00F06CFA41
:1045D00001462046B0BD00BF01487844704700BF87
:1045E0005AEBFF1FF0B503AF4DF804BD04460020A1
:1045F0000D68DAF8006000F059FA0120AD1978BFB3
:10460000002000F051FA25605DF804BBF0BDF0B564
:1046100003AF4DF804BD044600200D68DAF80060D1
:1046200000F044FA0120AE4278BF0020751B00F074
:104630003BFA25605DF804BBF0BD00BF02480021D5
:1046400078440830704700BFA0EBFF1F00E0FFE791
:10465000C0B501AF4DF804AD82B0DAF808000190A2
:10466000002000900748084B78447B4400F1080282
:1046700001A86946924600F0ADF902B05DF804ABBE
:10468000C0BD00BF78EBFF1F0EEBFF1F90B501AF61
:104690004DF804AD8A46804700F01CFA04460748EE
:1046A00078441421012200F0EDFD00F013FEE00734
:1046B00004BF5DF804AB90BDFEDE00BFFCDBFF1F56
:1046C00000F000B8F0B503AF2DE9000D6C466FF3B4
:1046D0000304A54652F8044C80466E469246206A72
:1046E0000A46073020F00700ADEB000020F00F0570
:1046F000AD46D3F808C082B00093284641465346E1
:10470000E04702B063694046294652469847A7F100
:104710001804A546BDE8000DF0BD00F000B8F0B5E6
:1047200003AF2DE9000D6C466FF30304A54652F864
:10473000044C80466E469246206A0A46073020F0B6
:104740000700ADEB000020F00F05AD46D3F810C018
:1047500082B00093284641465346E04702B0636961
:104760004046294652469847A7F11804A546BDE899
:10477000000DF0BD80B56F4682B0D7F808C0DCF8F8
:1047800008E0CDF800C0F04702B080BDD3F80CC0FF
:10479000604780B56F4682B0D7F808C0DCF810E0FB
:1047A000CDF800C0F04702B080BDD3F814C0604718
:1047B000F0B503AF2DE9000D6C466FF30304A54679
:1047C00052F8044C80466E469246206A0A460730EC
:1047D00020F00700ADEB000020F00F05AD46D3F848
:1047E0000CC082B00093284641465346E04702B0D1
:1047F00063694046294652469847A7F11804A546E2
:10480000BDE8000DF0BDF0B503AF2DE9000D6C461D
:104810006FF30304A54652F8044C80466E46924658
:10482000206A0A46073020F00700ADEB000020F0B8
:104830000F05AD46D3F80CC082B000932846414620
:104840005346E04702B063694046294652469847BE
:10485000A7F11804A546BDE8000DF0BDF0B503AF03
:104860002DE9000D6C466FF30304A54652F8044C85
:1048700080466E469246206A0A46073020F00700BE
:10488000ADEB000020F00F05AD46D3F810C082B0AC
:104890000093284641465346E04702B063694046CC
:1048A000294652469847A7F11804A546BDE8000DD1
:1048B000F0BDF0B503AF2DE9000D6C466FF30304B6
:1048C000A54652F8044C80466E469246206A0A4637
:1048D000073020F00700ADEB000020F00F05AD46DB
:1048E000D3F810C082B00093284641465346E047B3
:1048F00002B063694046294652469847A7F118041A
:10490000A546BDE8000DF0BD80B56F4682B0D7F872
:1049100008C0DCF80CE0CDF800C0F04702B080BD64
:1049200080B56F4682B0D7F808C0DCF810E0CDF84B
:1049300000C0F04702B080BDD3F814C06047D3F880
:1049400018C0604780B56F4600F001F880BDC0B563
:1049500001AF4DF804AD8446D3F808E0084661463F
:104960009246F0475DF804ABBDE8C04000F0B2B835
:1049700080B56F4600F001F880BDC0B501AF4DF8BD
:1049800004ADD3F808C09246E0475DF804ABBDE83B
:10499000C04000F09FB880B56F4600F001F880BDC0
:1049A000C0B501AF4DF804AD8446D3F808E0084621
:1049B00061469246F0475DF804ABC0BDD3F808C02D
:1049C0006047D3F80CC06047D3F810C06047D3F8F5
:1049D00014C06047C0B501AF4DF804ADD3F804C0B2
:1049E0009246E0475DF804ABBDE8C04000F072B805
:1049F000D3F804C06047D4D400F000B8F0B503AFDA
:104A00002DE9000D6C466FF30304A54652F8044CE3
:104A100080466E469246206A0A46073020F007001C
:104A2000ADEB000020F00F05AD46D3F80CC082B00E
:104A30000093284641465346E04702B0636940462A
:104A4000294652469847A7F11804A546BDE8000D2F
:104A5000F0BD80B56F4682B0D7F808C0DCF80CE036
:104A6000CDF800C0F04702B080BDD3F810C0604759
:104A7000704700F001008AF8000070470148514675
:104A80007844704705000000704700BF80B56F464E
:104A900004484FF48071784400F0E0F800F0010021
:104AA00080BD00BF86D6FF1F70477047704701F07A
:104AB00001010170704770470978017070477047B5
:104AC000484080F00100704700780978484080F045
:104AD0000100704780F001007047C00708D0C0B5E2
:104AE00001AF4DF804AD924688475DF804ABC0BDF8
:104AF00000207047C00701D001207047C0B501AF4A
:104B00004DF804AD924688475DF804ABC0BD00BFC8
:104B100001487844704700BF26E7FF1F09780170FD
:104B20007047704789B3FF292CD34FF600734A1C96
:104B3000C0F2FF0304219A4238BF0221B2F57F4F31
:104B400038BF0121042907D0022918D18178427881
:104B500042EA012169B915E0014611F801CFCB788D
:104B60004A78897841EA03214CEA022242EA01416B
:104B700041B1007840EA01200238013070474178A5
:104B80000029F6D10078022803D24FF0FF3001301F
:104B90007047A0F10040023820F00040013070471B
:104BA000FF2A1DD34FF6007C531CC0F2FF0C0422D9
:104BB000634538BF0222B3F57F4F38BF0122FE297B
:104BC00011D9A1F1FF030121037001EB1321DFE8EB
:104BD00002F01918032B11004170090A8170704707
:104BE0000022FE29EDD8DFE802F019030E1F1200A3
:104BF00000220AE000F8011F0A0EC2700A0C090A1E
:104C000082704170704700228270427006E0024656
:104C1000002302F8013FD37093705370002908BF3E
:104C20007047013101707047024800217844083014
:104C3000704700BF58E6FF1F70478AF800007047B2
:104C4000014851467844704705000000704770479E
:104C5000027811400170704708407047090A08291E
:104C600094BF006800207047120A082A94BF0968A0
:104C700000210170704700BFB0B502AF45B20120FE
:104C80000C46FFF713FF0848132145FA84F47844D3
:104C9000012265B200F0F6FA00F01CFBA54204BF49
:104CA0002046B0BDFEDE00BF4ED7FF1FB0B502AF3D
:104CB00045B201204CB2FFF7F9FE07482C1B78449F
:104CC0001321012265B200F0DDFA00F003FBA542DA
:104CD00004BF2046B0BDFEDE1ED7FF1FF0B503AFF8
:104CE0004DF804BD91F9005092F90060044601208E
:104CF000FFF7DCFE084835447844132101226EB2E8
:104D000000F0C0FA00F0E6FAAE4202BF25705DF88E
:104D100004BBF0BDFEDE00BFE4D6FF1FFFF7D2BC30
:104D2000F0B503AF4DF804BD91F9005092F9006061
:104D300004460120FFF7BAFE0848AD1B7844132152
:104D400001226EB200F09EFA00F0C4FAAE4202BF39
:104D500025705DF804BBF0BDFEDE00BFA0D6FF1FCE
:104D6000FFF7DDBC49B242B200208A42B8BF012041
:104D7000FFF79ABE90F9002091F9001000208A42B6
:104D8000B8BF0120FFF790BEFFF7E1BDFFF7F5BD0B
:104D9000FFF706BEC9B2C0B2401AB0FA80F04009AF
:104DA000FFF782BE00780978401AB0FA80F0400917
:104DB000FFF77ABED0B502AF82B009788DF8041043
:104DC00001A9034C7C440094FFF79AF902B0D0BDCE
:104DD000E4E4FF1FB0B502AF45B201204CB2FFF7CB
:104DE00065FE6C43064878441321012265B200F049
:104DF00049FA00F06FFAA54204BF2046B0BDFEDEBE
:104E0000F6D5FF1FF0B503AF4DF804BD91F9005082
:104E100092F9006004460120FFF748FE75430848F8
:104E20007844132101226EB200F02CFA00F052FAFD
:104E3000AE4202BF25705DF804BBF0BDFEDE00BFD0
:104E4000BCD5FF1FFFF7DABDF0B503AF2DE9000FAA
:104E50008BB06C466FF30304A546079089468DF826
:104E6000281010211F480122784400F00BFA8346D5
:104E70001D488A46154678444321012200F002FA73
:104E800004461A480E4678444FF40061904600F0FC
:104E9000F7FACDE90054CDE90268154A08A97A4429
:104EA000049010465A465346FFF7F0FB0020FFF7E8
:104EB000FDFD04460F4878441321012200F0E2F979
:104EC00000F008FAE00701BF4FFA89F0079949B2EC
:104ED00091FBF0F001BFA7F11C04A546BDE8000F4F
:104EE000F0BDFEDE14D4FF1F46D4FF1FAAD2FF1F61
:104EF0005700000026D5FF1F5AE100BFF0B503AFF1
:104F00002DE9000F8BB06C466FF30304A5468DF8B6
:104F1000281001224FFA80F817484FFA81FB784495
:104F2000272100F0AFF9079089461448924678444B
:104F30004321012200F0A6F9044611480D467844A9
:104F40004FF40061164600F09BFACDE900A4CDE9CC
:104F500002560C4A08A97A4404901046079A4B4618
:104F6000FFF794FB98FBFBF0A7F11C0400FB1B80F0
:104F7000A546BDE8000FF0BD8ED4FF1F8ED3FF1FE6
:104F8000E2D1FF1F2F00000012E100BFF0B503AF18
:104F90002DE9000F8BB06C466FF30304A54609782A
:104FA00092F8008006911021079001228DF8288048
:104FB0002048784400F066F981461F488A469346A7
:104FC00078444321012200F05DF905461B480E4656
:104FD00078444FF40061144600F052FACDE900B570
:104FE000CDE90264164A08A97A44049010464A465C
:104FF0005346FFF74BFB0020FFF758FD04461148CE
:1050000078441321012200F03DF900F063F9E00734
:1050100001BF4FFA88F0069949B291FBF0F001BF49
:1050200007990870A7F11C04A54604BFBDE8000F4E
:10503000F0BDFEDECAD2FF1FFCD2FF1F60D1FF1FF2
:10504000C3010000DCD3FF1FF0B503AF2DE9000F53
:105050008BB06C466FF30304A54692F9009007905D
:105060008DF8289091F90080184827217844012272
:1050700000F008F906908A46154893467844432183
:10508000012200F0FFF8054612480E4678444FF41E
:105090000061144600F0F4F9CDE900B5CDE90264F1
:1050A0000D4A08A97A4404901046069A5346FFF721
:1050B000EDFA98FBF9F0079900FB1980A7F11C04A1
:1050C0000870A546BDE8000FF0BD00BF40D3FF1F2C
:1050D00040D2FF1F94D0FF1F05010000FFF793BBD4
:1050E000FFF7E7BBB0B502AF044600204DB2FFF7B3
:1050F000DDFC45FA84F460B2001B18BF0120FFF705
:10510000D3FCE1B260F308210846B0BDB0B502AFF0
:1051100044B200204DB2FFF7C9FC2C1B60B2001B4B
:1051200018BF0120FFF7C0FCE1B260F30821084678
:10513000B0BD00BF01487844704700BF72E1FF1F57
:10514000F0B503AF4DF804BD91F900509AF9006035
:1051500004460020FFF7AAFC354468B2401B18BF84
:105160000120FFF7A1FC25705DF804BBF0BDF0B590
:1051700003AF4DF804BD91F900509AF90060044660
:105180000020FFF793FC751B68B2401B18BF01207D
:10519000FFF78AFC25705DF804BBF0BD02480021D2
:1051A00078440830704700BFB4E1FF1F00E0FFE71C
:1051B000C0B501AF4DF804AD82B09AF80800694659
:1051C0008DF8040000208DF800000748074B784454
:1051D0007B4400F1080201A89246FFF7FBFB02B0F6
:1051E0005DF804ABC0BD00BF86E1FF1F1CE1FF1FDF
:1051F0007047CAF80000704701485146784470472C
:1052000005000000704708467047CAF80400704760
:1052100002480AF104017844704700BF070000000B
:105220007047104670478AF80800704702480AF134
:1052300008017844704700BF07000000704700BFB6
:10524000B0B502AF0C484FF48071784400F0B6FB63
:1052500004460A4878444FF4407100F0AFFB05461D
:105260000120FFF721FCC0074FF0000108BF2546D1
:1052700003482A467844B0BDD2CEFF1FD0CEFF1FD0
:105280007EDBFF1F00E000BFF0B503AF2DE9000B90
:1052900081460E48884678444FF48071154600F0E8
:1052A0008DFB04460A4878444FF4407100F086FBB9
:1052B00006462846FFF7F8FBC007414608BF2646CA
:1052C00048463246BDE8000BF0BD00BF86CEFF1F4A
:1052D0007ECEFF1F704700BFD0B502AF104600F072
:1052E00066FB04460B4878444FF4007100F066FBFF
:1052F0000146204600F060FB0446074878444FF41E
:10530000807100F05BFB01462046BDE8D04000F014
:10531000F3BB00BF42CEFF1F20CEFF1F90B501AFF1
:105320004DF804AD82B0104600F041FB0446114830
:1053300078444FF4407100F041FB0146204600F0F4
:105340003BFB8DF804004FF480710B48784400F06B
:1053500035FB8DF8000009480949794478440A680A
:10536000036801A869469246FFF734FB02B05DF876
:1053700004AB90BDF4CDFF1FD0CDFF1F44E2FF1F53
:105380004AE2FF1FF0B503AF2DE9000705460F48BD
:10539000894678444FF480719A46904600F00EFB9F
:1053A00004460B4878444FF4407100F007FB064672
:1053B0005046FFF779FBC5F80090C007C5F8048098
:1053C00008BF26462E72BDE80007F0BD8ACDFF1F3C
:1053D00080CDFF1F704700BF01487844704700BF71
:1053E0009EDFFF1FD1E90023097A0260436001724A
:1053F00070470A7A0272D1E90021C0E900217047A2
:10540000704769B1417A59B1C178427883780078A0
:1054100043EA012140EA022040EA0140013070479E
:105420000020704759B1002AA1F101014FF000039B
:1054300003720160436008BF7047012101E00AB1B7
:1054400000214172704700BF0248002178440830B3
:10545000704700BF6CDFFF1FFFF714BF7047CAF82B
:10546000000070470148514678447047050000002D
:1054700070477047026811400160704708407047EC
:105480004A0A102A02464FF0000098BF11F00101AD
:1054900008BF10687047530A102B4FF0000398BFE5
:1054A00012F0010208BF0B6803607047B0B502AF8D
:1054B000054601200C46FFF7F9FA07481321784406
:1054C00001226419FFF7DEFEFFF704FFAC4224BFA0
:1054D0002046B0BDFEDE00BF1ECFFF1FF0B503AFFC
:1054E0004DF804BD064601200D46FFF7DFFA0848D7
:1054F000132178440122741BFFF7C4FEFFF7EAFE74
:10550000AE4222BF20465DF804BBF0BDFEDE00BF08
:10551000EACEFF1FF0B503AF4DF804BD04460120ED
:105520000E681568FFF7C2FA074813217844012274
:10553000AD19FFF7A7FEFFF7CDFEB54222BF2560EC
:105540005DF804BBF0BDFEDEB0CEFF1FFFF7BAB8BA
:10555000F0B503AF4DF8048D804601200E68146845
:10556000FFF7A4FA0848132178440122351BFFF7FE
:1055700089FEFFF7AFFEA64222BFC8F800505DF8D3
:10558000048BF0BDFEDE00BF74CEFF1FFFF7C7B86F
:105590000022884238BF01221046FFF785BA026810
:1055A000096800208A4238BF0120FFF77DBAFFF763
:1055B000CEB9FFF7E2B9FFF7F3B9401AB0FA80F0BD
:1055C0004009FFF771BA00680968401AB0FA80F024
:1055D0004009FFF769BA00BFD0B502AF82B00968D1
:1055E0000191044C01A97C440094FEF789FD02B0AE
:1055F000D0BD00BFFEDDFF1FB0B502AF05460120E4
:105600000C46FFF753FA0748132178440122A5FB03
:105610000445FFF737FEFFF75DFE002D04BF20466F
:10562000B0BDFEDED2CDFF1FF0B503AF4DF804BD17
:10563000044601200D681668FFF738FA0848132160
:1056400078440122A5FB0656FFF71CFEFFF742FE39
:10565000002E02BF25605DF804BBF0BDFEDE00BF7A
:105660009CCDFF1FFFF7CAB9F0B503AF2DE9000BC2
:105670008CB06C466FF30304A5460A9180461A4825
:105680008946784410210122FFF7FCFD06461748A1
:105690000D461446784444210122FFF7F3FDCDE97D
:1056A0000040CDE9021212484922784408A9049228
:1056B00032462B46FEF7EAFF0020FFF7F7F90446D3
:1056C0000C48784413210122FFF7DCFDFFF702FEAE
:1056D000E00701BFB8FBF9F0A7F11804A546BDE843
:1056E000000B08BFF0BDFEDEFACBFF1F78CCFF1F1A
:1056F0004B0000001ACDFF1F30E100BFF0B503AF33
:105700002DE9000B8CB06C466FF30304A5460A919B
:10571000054613480C46784427210122FFF7B2FDC5
:105720008146104888461646784444210122FFF7F6
:10573000A9FDCDE90060CDE902120B485222784460
:1057400008A904924A464346FEF7A0FFB5FBF4F0D1
:1057500000FB1450A7F11804A546BDE8000BF0BDEE
:1057600096CCFF1FE4CBFF1F2B000000F6E000BF2C
:10577000F0B503AF2DE900078CB06C466FF303045E
:10578000A546D2F800A0CDF828A08046D1F8009018
:105790001A48102178440122FFF774FD0546184885
:1057A0000E461446784444210122FFF76BFDCDE9F3
:1057B0000040CDE9021213484922784408A9049216
:1057C0002A463346FEF762FF0020FFF76FF90446D2
:1057D0000D48784413210122FFF754FDFFF77AFDAD
:1057E000E00701BFB9FBFAF0C8F80000A7F1180400
:1057F000A54604BFBDE80007F0BDFEDEE8CAFF1FF6
:1058000068CBFF1F9D0100000ACCFF1FF0B503AF5E
:105810002DE900078CB06C466FF30304A5461668AB
:105820000A9680460D681448272178440122FFF724
:1058300029FD814611488A461446784444210122B4
:10584000FFF720FDCDE90040CDE902120C485222BD
:10585000784408A904924A465346FEF717FFB5FB61
:10586000F6F000FB1650A7F11804C8F80000A54692
:10587000BDE80007F0BD00BF82CBFF1FD2CAFF1FEB
:1058800005010000FEF7BFBFFFF713B8F0B503AF87
:105890004DF804BD054600200C460026FFF706F92A
:1058A000641946F10000FFF7FFF8014620465DF855
:1058B00004BBF0BDF0B503AF4DF804BD05460020B4
:1058C0000C460026FFF7F2F8641B46F1000080F05A
:1058D0000100FFF7E9F8014620465DF804BBF0BD82
:1058E00001487844704700BF02DBFF1FF0B503AFEB
:1058F0004DF8048D044600200D68DAF800604FF082
:105900000008FFF7D3F8AD1948F10000FFF7CCF815
:1059100025605DF8048BF0BDF0B503AF4DF8048D44
:10592000044600200D68DAF800604FF00008FFF729
:10593000BDF8751B48F1000080F00100FFF7B4F8D6
:1059400025605DF8048BF0BD0248002178440830E2
:10595000704700BF44DBFF1F00E0FFE7C0B501AFA9
:105960004DF804AD82B0DAF80800019000200090F4
:105970000748084B78447B4400F1080201A86946B7
:105980009246FFF727F802B05DF804ABC0BD00BF38
:105990001CDBFF1FB2DAFF1F70478AF80000704758
:1059A0000148514678447047050000007047704731
:1059B0000278114001707047084070474A0A042A73
:1059C00002464FF0000098BF11F0010108BF1068B7
:1059D0007047530A042B4FF0000398BF12F00102E6
:1059E00008BF0B6803707047B0B502AFC5B20120A5
:1059F0000C46FFF75BF80848132155FA84F4784405
:105A00000122E5B2FFF73EFCFFF764FCA54204BFAC
:105A10002046B0BDFEDE00BFDEC9FF1FB0B502AF3D
:105A2000C5B20120CCB2FFF741F807482C1B7844DF
:105A300013210122E5B2FFF725FCFFF74BFCA5423D
:105A400004BF2046B0BDFEDEAEC9FF1FF0B503AFF8
:105A50004DF804BD0D78167804460120FFF726F8AE
:105A600008483544784413210122EEB2FFF70AFCBE
:105A7000FFF730FCAE4202BF25705DF804BBF0BDFD
:105A8000FEDE00BF78C9FF1FFEF71CBEF0B503AFF6
:105A90004DF804BD0D78167804460120FFF706F88E
:105AA0000848AD1B784413210122EEB2FFF7EAFB50
:105AB000FFF710FCAE4202BF25705DF804BBF0BDDD
:105AC000FEDE00BF38C9FF1FFEF729BEC9B2C2B251
:105AD00000208A4238BF0120FEF7E6BF027809782D
:105AE00000208A4238BF0120FEF7DEBFFEF72FBF3D
:105AF000FEF743BFFEF754BFC9B2C0B2401AB0FAB6
:105B000080F04009FEF7D0BF00780978401AB0FA5B
:105B100080F04009FEF7C8BFD0B502AF82B0097867
:105B20008DF8041001A9034C7C440094FEF7E8FAB8
:105B300002B0D0BD8CD9FF1FB0B502AFC5B20120F5
:105B4000CCB2FEF7B3FF6C43064878441321012220
:105B5000250AFFF797FBFFF7BDFB002D04BF20468A
:105B6000B0BDFEDE92C8FF1FF0B503AF4DF804BD17
:105B70000D78167804460120FEF798FF7543084813
:105B80007844132101222E0AFFF77CFBFFF7A2FBCA
:105B9000002E02BF25705DF804BBF0BDFEDE00BF25
:105BA0005CC8FF1FFEF72ABFF0B503AF2DE9000F59
:105BB0008BB06C466FF30304A546079089468DF8B9
:105BC000281010211F4801227844FFF75BFB834611
:105BD0001D488A461546784445210122FFF752FBAD
:105BE00004461A480E4678444FF400619046FFF789
:105BF00047FCCDE90054CDE90268154A08A97A446A
:105C0000049010465A465346FEF740FD0020FEF72A
:105C10004DFF04460F48784413210122FFF732FB61
:105C2000FFF758FBE00701BF5FFA89F00799C9B297
:105C3000B1FBF0F001BFA7F11C04A546BDE8000FC1
:105C4000F0BDFEDEB4C6FF1F86C7FF1F4AC5FF1F9B
:105C500057000000C6C7FF1F52E100BFF0B503AFF9
:105C60002DE9000F8BB06C466FF30304A5468DF849
:105C7000281001225FFA80F817485FFA81FB784408
:105C80002721FFF7FFFA0790894614489246784487
:105C900045210122FFF7F6FA044611480D467844E3
:105CA0004FF400611646FFF7EBFBCDE900A4CDE908
:105CB00002560C4A08A97A4404901046079A4B46AB
:105CC000FEF7E4FCB8FBFBF0A7F11C0400FB1B8013
:105CD000A546BDE8000FF0BD2EC7FF1FCEC6FF1FB3
:105CE00082C4FF1F2F0000000AE100BFF0B503AF20
:105CF0002DE9000F8BB06C466FF30304A5460978BD
:105D000092F8008007911021069001228DF82880DA
:105D10001E487844FFF7B6FA81461D488A469346E6
:105D2000784445210122FFF7ADFA054619480E4691
:105D300078444FF400611446FFF7A2FBCDE900B5AB
:105D4000CDE90264144A08A97A44049010464A46F0
:105D50005346FEF79BFC0020FEF7A8FE04460F48C2
:105D6000784413210122FFF78DFAFFF7B3FAE00719
:105D700001BF0798B0FBF8F00699087001BFA7F1C2
:105D80001C04A546BDE8000FF0BDFEDE6AC5FF1F7E
:105D90003CC6FF1F00C4FF1FB30100007CC6FF1FED
:105DA000F0B503AF2DE9000F8BB06C466FF3030421
:105DB000A54692F8009007908DF8289091F8008001
:105DC0001848272178440122FFF75CFA06908A469A
:105DD00015489346784445210122FFF753FA0546BA
:105DE00012480E4678444FF400611446FFF748FB12
:105DF000CDE900B5CDE902640D4A08A97A440490C2
:105E00001046069A5346FEF741FCB8FBF9F0079995
:105E100000FB1980A7F11C040870A546BDE8000F1F
:105E2000F0BD00BFE8C5FF1F88C5FF1F3CC3FF1FB3
:105E3000FD000000FEF7E7BCFEF73BBDB0B502AFCA
:105E400004460020CDB2FEF731FE55FA84F0C4B20C
:105E5000201A18BF0120FEF727FE60F30824204611
:105E6000B0BDB0B502AFC4B20020CDB2FEF71EFE89
:105E7000281BC4B2201A18BF0120FEF715FE60F3DC
:105E800008242046B0BD00BF01487844704700BFD9
:105E90002AD6FF1FF0B503AF4DF804BD0D789AF870
:105EA000006004460020FEF701FE3544E8B2401BC6
:105EB00018BF0120FEF7F8FD25705DF804BBF0BDAA
:105EC000F0B503AF4DF804BD0D789AF800600446B4
:105ED0000020FEF7EBFD751BE8B2401B18BF012048
:105EE000FEF7E2FD25705DF804BBF0BD024800211D
:105EF00078440830704700BF70D6FF1F00E0FFE70E
:105F0000C0B501AF4DF804AD82B09AF808006946FB
:105F10008DF8040000208DF800000748074B7844F6
:105F20007B4400F1080201A89246FEF753FD02B03F
:105F30005DF804ABC0BD00BF42D6FF1FD8D5FF1F20
:105F4000704770477047D4D49FED010B704700BF76
:105F50000000000000000000D4D4D4D4D4D4D4D4A1
:105F60000000000000000000000000000000000031
:105F70000000000000000000000000000000000021
:105F80000000000000000000000000000000000011
:105F90000000000000000000000000000000000001
:106B60000403090410037400650065006E007300DF
:106B70007900000010037300650072006900610075
:106B80006C00000010036E0075006D00620065006F
:106B9000720000000A060002000000400100090225
:106BA0006200030100C032080B000202020100096A
:106BB0000400000102020100052400100105240167
:106BC00001010424020605240600010705820310C2
:106BD000000509040100020A000000070503020085
:106BE0000200070584020002000904020002FF6A95
:106BF000C70007058102000201070501020002012A
:106C000009026200030100C032080B000202020107
:106C10000009040000010202010005240010010522
:106C2000240101010424020605240600010705824F
:106C30000310001009040100020A00000007050308
:106C4000024000000705840240000009040200021F
:106C5000FF6AFF00070581024000010705010240AD
:106C6000000100010000501C00201200000600007E
:106C7000340C00200A00000200003E0C00206200DC
:106C800000070000A00C00206200EE030000621C60
:106C900000201200000004EE741C002028000003F5
:106CA0000000000C0020040001030904040C002073
:106CB000100002030904140C00201000030309044F
:106CC000240C002010000000000000000000000064
:106CD000000000005200000002000000010000005F
:106CE0000800000049000000390F0000C800000043
:106CF000240F000000000000390F0000B800000061
:106D0000240F000000000000350F0000A800000064
:106D1000240F000000000000390F00009800000060
:106D2000200F000000000000350F00008800000068
:106D3000240F0000000000003D0F0000780000005C
:106D4000200F000000000000490F00006800000054
:106D5000280F000000000000450F00005800000050
:106D6000340F000000000000390F00004800000050
:106D7000580F000000000000350F00003800000030
:106D8000240F000000000000290F00002800000070
:106D9000480F00000000000053776966740000008F
:106DA0000000000000000000F0FFFFFF446F75626C
:106DB0006C65000051000000E8FFFFFFF0FFFFFFDF
:106DC000D11E00E0184300E00100000002000000B6
:106DD00003000000000000000000000000000000B0
:106DE0002F55736572732F707572706C6E2F676993
:106DF000746875622F7465656E73792F636F726541
:106E00002F7573776966742F536F75726365732F6F
:106E1000436F72652F496E742F496E742E737769B4
:106E20006674000000000000000000000000000088
:106E30004469766973696F6E206279207A65726F32
:106E40000000000000000000000000000000000042
:106E5000707265636F6E646974696F6E20666169D4
:106E60006C7572650000000000000000000000006A
:106E70002F55736572732F707572706C6E2F676902
:106E8000746875622F7465656E73792F636F7265B0
:106E90002F7573776966742F536F75726365732FDF
:106EA000436F72652F496E742F496E74382E737755
:106EB000696674000000000000000000000000008F
:106EC0002F55736572732F707572706C6E2F6769B2
:106ED000746875622F7465656E73792F636F726560
:106EE0002F7573776966742F536F75726365732F8F
:106EF000436F72652F55496E742F55496E742E730A
:106F000077696674000000000000000000000000C7
:106F10002F55736572732F707572706C6E2F676961
:106F2000746875622F7465656E73792F636F72650F
:106F30002F7573776966742F536F75726365732F3E
:106F4000436F72652F55496E742F55496E74382EF4
:106F50007377696674000000000000000000000004
:106F60004469766973696F6E206279207A65726F01
:106F700020696E2072656D61696E646572206F7044
:106F800065726174696F6E0000000000000000000F
:106F900061726974686D65746963206F7665726685
:106FA0006C6F77004D0D0000A40000003C0D000048
:106FB00000000000590D000094000000380D000092
:106FC00000000000650D000084000000440D00007A
:106FD00000000000610D000074000000500D000072
:106FE00000000000550D000064000000BC0D000012
:106FF000000000005D0D000054000000400D000086
:10700000000000006D0D000044000000480D00006D
:1070100000000000690D000034000000580D000061
:10702000000000006D0D000024000000540D000061
:107030000000000053776966740000000000000043
:1070400000000000F0FFFFFF496E740051000000D7
:10705000ECFFFFFFF4FFFFFF952100E09C4000E004
:10706000010000000200000003000000000000001A
:107070005377696674000000000000000000000003
:10708000F0FFFFFF00000000000000000000000013
:107090005F4578707265737369626C654279427599
:1070A000696C74696E426F6F6C65616E4C69746572
:1070B00072616C0043000300C0FFFFFFD4FFFFFFBD
:1070C00000000000010000000000000002000000BD
:1070D00000000000000000000000000000000000B0
:1070E0004578707265737369626C654279426F6F3F
:1070F0006C65616E4C69746572616C000000000023
:10710000426F6F6C65616E4C69746572616C547925
:10711000706500004300030060FFFFFFC4FFFFFF36
:107120000100000003000000D8FFFFFF8000000006
:10713000FE3A00E080FFFFFF0800000000000000B2
:107140000700000000000000020000000000000036
:107150005F4578707265737369626C6542794275D8
:10716000696C74696E466C6F61744C6974657261A8
:107170006C0000004300030000FFFFFFD4FFFFFF8F
:1071800000000000010000000000000002000000FC
:1071900000000000000000000000000000000000EF
:1071A0004578707265737369626C654279466C6F7D
:1071B00061744C69746572616C000000000000002D
:1071C000466C6F61744C69746572616C547970655A
:1071D0000000000043000300A0FEFFFFC4FFFFFF0C
:1071E0000100000003000000D8FFFFFF8000000046
:1071F000A23A00E080FFFFFF08000000000000004E
:107200000700000000000000020000000000000075
:107210005F4578707265737369626C654279427517
:10722000696C74696E496E74656765724C697465E2
:1072300072616C004300030040FEFFFFD4FFFFFFBC
:10724000000000000100000000000000020000003B
:10725000000000000000000000000000000000002E
:107260004578707265737369626C654279496E74B2
:10727000656765724C69746572616C00000000009E
:10728000496E74656765724C69746572616C547996
:107290007065000043000300E0FDFFFFC4FFFFFF37
:1072A0000100000003000000D8FFFFFF8000000085
:1072B000483A00E080FFFFFF0800000000000000E7
:1072C00007000000000000000200000000000000B5
:1072D0005F4578707265737369626C654279427557
:1072E000696C74696E537472696E674C6974657207
:1072F000616C00004300030080FDFFFFD4FFFFFF2F
:10730000000000000100000000000000020000007A
:10731000000000000000000000000000000000006D
:107320004578707265737369626C654279537472E3
:10733000696E674C69746572616C00000000000042
:10734000537472696E674C69746572616C547970BC
:10735000650000004300030020FDFFFFC4FFFFFFA6
:107360000100000003000000D8FFFFFF80000000C4
:10737000F03900E080FFFFFF08000000000000007F
:1073800007000000000000000200000000000000F4
:107390004578707265737369626C6542794E696C89
:1073A0004C69746572616C0043000300CCFCFFFF04
:1073B000E0FFFFFF000000000100000000000000EF
:1073C00002000000000000000000000000000000BB
:1073D000526177526570726573656E7461626C6537
:1073E0000052617756616C75650000004300030030
:1073F00088FCFFFFDCFFFFFF00000000030000002F
:10740000E1FFFFFF07000000000000001300000084
:107410000000000002000000000000000300000067
:10742000537769667400000000000000000000004F
:10743000F0FFFFFF0000000000000000000000005F
:10744000416464697469766541726974686D6574D4
:107450006963000043000300D0FFFFFFE4FFFFFF6C
:107460000100000005000000000000008000000096
:107470006A3900E04509000000000000000000003B
