:08048000052B00000100000043
:10048800BB8E0720103A3712C8A706EE4637D81C8D
:10049800AB49D3F8C551A2562A6CBC7884E4CA8407
:1004A8000AF3B5EFC3392973C10D429D5A43DB8B5B
:1004B80043FE3C1D965540D339508A64621E9B6AA0
:1004C800278BC5E084F4C6EE2F03A4D0BE777257FD
:1004D80022BB1C6E17563A66C67000C305704B5F88
:1004E8001D35B0BBA7076FFB7D98FF53E9CC0F9470
:1004F800D7ED09F238E46255F4B17EB7EB30F67007
:100508000C6447E96C96FEA00418BA4FE2C1767CE9
:1005180079590A9ADA6CC0837E9AF8E54B0A9E46A6
:10052800A882B6E83E277174EE3549E42D591CE7D8
:1005380052D0EB7396B03733F417E516DF2535FD47
:100548006FA321C563C00600C7C06D5FA0CD3CFA8C
:1005580049023DD4D40F8D50319B198C769BB81E1F
:10056800997CEA2FE2E1B702C2CD8A5B7AA3B50291
:10057800B8732BE647CE41232AFC2D7B172644650A
:100588005FA4EE3755B84162521E0529FF866808F8
:10059800675D372296D84D286A708552F03773C543
:1005A80013CC055E03BF9E8BDBF9BC1352EB77823D
:1005B80094CADF3BA1ACDD6823D9916FF1269E5325
:1005C8001F140EA0E474461DAC46D0B1A5ABB08C88
:1005D80049CCE11476A211312D63AAC075E63A869A
:1005E8000B57A13C62F63FDF8D47929E5DAC1638F3
:1005F80003316DA5E044597206843A288FACECC9E2
:0200000460009A
:100000004643464200000156000000000103030081
:1000100000000000000000000000000000000000E0
:1000200000000000000000000000000000000000D0
:1000300000000000000000000000000000000000C0
:1000400000000000010408000000000000000000A3
:100050000000800000000000000000000000000020
:100060000000000000000000000000000000000090
:100070000000000000000000000000000000000080
:10008000EB04180A063204260000000000000000FD
:10009000050404240000000000000000000000002F
:1000A0000000000000000000000000000000000050
:1000B0000604000000000000000000000000000036
:1000C0000000000000000000000000000000000030
:1000D00020041808000000000000000000000000DC
:1000E0000000000000000000000000000000000010
:1000F0000000000000000000000000000000000000
:10010000D8041808000000000000000000000000F3
:100110000204180804200000000000000000000095
:1001200000000000000000000000000000000000CF
:10013000600400000000000000000000000000005B
:1001400000000000000000000000000000000000AF
:10015000000000000000000000000000000000009F
:10016000000000000000000000000000000000008F
:10017000000000000000000000000000000000007F
:10018000000000000000000000000000000000006F
:10019000000000000000000000000000000000005F
:1001A000000000000000000000000000000000004F
:1001B000000000000000000000000000000000003F
:1001C000000100000010000001000000000000001D
:1001D000000001000000000000000000000000001E
:1001E000000000000000000000000000000000000F
:1001F00000000000000000000000000000000000FF
:10020000D4D4D4D4D4D4D4D4D4D4D4D4D4D4D4D4AE
:10021000D4D4D4D4D4D4D4D4D4D4D4D4D4D4D4D49E
:10100000D10020402C100060000000000000000013
:101010002010006000100060400000200000000070
:1010200000000060642601000000000000000120B4
:1010300035100060D0B502AF4CF238014AF6AF204F
:10104000C4F20A01CAF6AA2048F2F00CC8600720D0
:10105000C0F2200088604FF42A00086040F20000CF
:1010600040F20861C2F20700854648F6E070C4F21B
:101070000D0CC0F20000C0F20001BFF34F8F81429F
:101080004FF00801CCF864101DD241F6300140F257
:101090000862C6F20001C0F200020B6842F8043B8D
:1010A000824210D24B6842F8043B82423EBF8B68BA
:1010B00042F8043B824206D2CB6842F8043B8242AB
:1010C00001F11001E9D342F2C05040F20001C2F236
:1010D0000000C2F2000181421DD24AF2102140F20A
:1010E0000002C6F20001C2F200020B6842F8043BA3
:1010F000824210D24B6842F8043B82423EBF8B686A
:1011000042F8043B824206D2CB6842F8043B82425A
:1011100001F11001E9D347F6402043F20001C2F289
:101120000000C2F20001814210D2002241F8042BDB
:1011300081420BD241F8042B81423CBF41F8042B81
:10114000814203D241F8042B8142EFD34EF6245E54
:101150004FF47000CEF2000E4FF6405347F20042BB
:10116000CFF6FF73CEF8640042F2E120C2F2000233
:10117000C0F20000D118B033C1F8C002C1F8C402F7
:10118000C1F8C802C1F8CC02C1F8D002C1F8D4023B
:10119000C1F8D802C1F8DC02C1F8E002C1F8E402EB
:1011A000C1F8E802C1F8EC02C1F8F002C1F8F4029B
:1011B000C1F8F802C1F8FC02C1F80003C1F8040349
:1011C000C1F80803C1F80C03C1F81003C1F81403F7
:1011D000C1F81803C1F81C03C1F82003C1F82403A7
:1011E000C1F82803C1F82C03C1F83003C1F8340357
:1011F000C1F83803C1F83C03C1F84003C1F8440307
:10120000C1F84803C1F84C03C1F85003C1F85403B6
:10121000C1F85803C1F85C03C1F86003C1F8640366
:10122000C1F86803C1F86C03A4D14EF2004300205A
:10123000CEF2000380211C1819542830A0286170B8
:10124000A170E17021716171A171E171217261720E
:10125000A172E17221736173A173E17321746174EE
:10126000A174E17421756175A175E17521766176CE
:10127000A176E17621776177A177E17784F8201074
:1012800084F8211084F8221084F8231084F82410A4
:1012900084F8251084F8261084F82710CBD14FF05D
:1012A000803041F21B014EF81C2CC2F21801CCF820
:1012B00014004024CCF81010CCF8040040F60C5078
:1012C000C1F21130CCF80000DEF8000040F4E0205C
:1012D000CEF800004CF21C00C4F20F00016864F369
:1012E00006010160816864F30601816042F2F550F5
:1012F00044F6D351C0F20000906340F24570C1F251
:101300006201C0F20000D06341F69870C2F20000A2
:101310000068A0FB01014FF0FF3000EB91104FF689
:101320001441CFF6FF7158504FF61840CFF6FF70BA
:10133000002119504FF61040CFF6FF7003211950CD
:101340000020C2F220004EF8040CDEF8D80040F075
:101350008070CEF8D80041F20000CEF200000168A3
:1013600041F00101016043F204014068C2F2000152
:10137000086044F20060C2F2C33000F007F800F0E9
:101380000AF8BDE8D04000F00BB8D4D442F2F75CC4
:10139000C0F2000C604740F2296CC0F2000C6047BC
:1013A00042F6911CC0F2000C6047D4D4D4D4D4D4FB
:1013B000419701810C844080000000004197018129
:1013C000088450800000000046970181B0ABF08097
:1013D0000000000046970181B0ABF08000000000E3
:1013E00046970181B0ABF080000000004597018175
:1013F000B0ABE0800000000045970181B0ABE08019
:101400000000000041970181B0B00D840000000091
:1014100043970181B0AB80800000000046970181B6
:10142000B0ABF0800000000045970181B0ABE080D8
:101430000000000045970181B0ABE0800000000093
:1014400046970181B0ABF080000000004697018113
:10145000B0ABF0800000000045970181B0ABD080B8
:101460000000000045970181B0ABD0800000000073
:10147000419701810C844080000000004197018168
:101480000C84408000000000419701810C84408062
:1014900000000000419701810C84408000000000A2
:1014A00045970181B0ABD0800000000045970181D5
:1014B000B0ABD0800000000045970181B0ABD08078
:1014C0000000000045970181B0ABD0800000000013
:1014D00045970181B0ABD0800000000045970181A5
:1014E000B0ABD0800000000041970181B0B00D8406
:1014F0000000000041970181B0B00D8400000000A1
:1015000045970181B0AB70800000000045970181D4
:10151000B0ABD0800000000045970181B0ABD08017
:101520000000000045970181B0ABD08000000000B2
:1015300045970181B0ABD080000000004597018144
:10154000B0ABD0800000000041970181B0B00D84A5
:101550000000000041970181B0B00D840000000040
:1015600045970181B0AB7080000000004697018173
:10157000B0ABF0800000000046970181B0ABF08076
:1015800000000000419701810C84408000000000B1
:10159000419701810C844080000000004197018147
:1015A0000C8440800000000041970181B0B00D84A0
:1015B0000000000041970181B0B00D8400000000E0
:1015C00046970181B0ABF080000000004197018197
:1015D0000C84408000000000419701810C84408011
:1015E0000000000046970181B0ABF08000000000D1
:1015F000419701810C8440800000000046970181E2
:10160000B0ABF08000000000419701810C84408065
:101610000000000046970181B0ABF08000000000A0
:1016200041970181B0B00D84000000004597018111
:10163000B0ABD0800000000046970181B0ABF080D5
:101640000000000046970181B0ABF0800000000070
:1016500046970181B0ABF080000000004697018101
:10166000B0ABF0800000000043970181B0AB408038
:101670000000000046970181B0ABF0800000000040
:1016800043970181B0AB4080000000004697018184
:10169000B0ABF0800000000046970181B0ABF08055
:1016A0000000000041970181B0B00D8400000000EF
:1016B00041970181B0B00D84000000004197018185
:1016C000B0B00B840000000041970181B0B00B84E2
:1016D0000000000041970181B0B00B8400000000C1
:1016E00041970181B0B00B84000000004197018157
:1016F000B0B00B840000000041970181B0B00B84B2
:101700000000000041970181B0B00B840000000090
:1017100041970181B0B00B84000000004697018121
:10172000B0ABF0800000000046970181B0ABF080C4
:101730000000000043970181B0AB808000000000F2
:1017400046970181B0ABF080000000004697018110
:10175000B0ABF0800000000046970181B0ABF08094
:101760000000000046970181B0ABF080000000004F
:1017700046970181B0ABF0800000000046970181E0
:10178000B0ABF0800000000046970181B0ABF08064
:101790000000000046970181B0ABF080000000001F
:1017A00046970181B0ABF0800000000045970181B1
:1017B000B0AB70800000000046970181B0ABF080B4
:1017C0000000000046970181B0ABF08000000000EF
:1017D00046970181B0ABF080000000004197018185
:1017E0000C8440800000000046970181B0ABF0807F
:1017F0000000000045970181B0AB70800000000040
:1018000046970181B0ABF080000000004197018154
:101810000C8440800000000041970181B0B00D842D
:1018200000000000419701810C844080000000000E
:10183000D4D4D4D4D4D4D4D4D4D4D4D4D4D4D4D468
:10184000D4D4D4D4D4D4D4D4D4D4D4D4D4D4D4D458
:1018500080B56F4684B048F248100521C4F21F00DD
:1018600044F20404C4F20024082501603821C0F8C1
:10187000F0114CF26C00C4F20A004FF0FF3101602D
:10188000206840F008002060C4F8805000F02CFD73
:1018900000F05EFD4FF47A70C4F8845000F06FF8E9
:1018A000C4F8805042F22005C0F60D254FF02036D6
:1018B00001AC02F07BFC2A20002102F087FB0A2207
:1018C00021460395CDE9016600F023F80C2120465E
:1018D00000F013FC4FF47A7000F051F8E9E7D0B54E
:1018E00002AF0C46022A01DB252A03D30020207018
:1018F00000240CE00021B0F1FF3F05DC0A2A03D1EF
:101900002D21404221700121214400F005F820469C
:10191000D0BDFFF7E4BFD4D4022A01DB242A02D9C8
:10192000002008707047F0B503AF4DF804BD0E4CB1
:101930000023B0FBF2F505FB1206A65DCE54013381
:1019400090422846F5D200205A1EC854904206DA2A
:101950000B5C8C5C0C548B54013A0130F6E7084662
:101960005DF804BBF0BD00BF0D00002043F2000095
:10197000C2F2000001680131016070477047002821
:1019800008BF7047F0B503AF4DF8048D43F2000176
:101990000124C2F2000101F10C0252E8003F0B6881
:1019A0004D6842E80046002EF7D141F2040C4FF496
:1019B0007A7ECEF2000CDCF80060761B8D68A5FB09
:1019C0000664B4F57A7F28BF744603FB0E480124F1
:1019D00052E8005F0D684E6842E80043002BF7D1E3
:1019E000DCF800309B1B8E68A6FB033605FB0EF36C
:1019F000B6F57A7FA3EB080328BF76463344B3F5E8
:101A00007A7FE5D3013802D008F57A78E0E75DF80F
:101A1000048BBDE8F04070477047F0B503AF2DE987
:101A2000000F81B047F2413046F2AC1AC2F200001A
:101A30004FF40071C2F2000A4EF65C760078802204
:101A4000CEF200060024002843F2200008BF402107
:101A5000AAF80610C2F20000AAF80810002100F04F
:101A600032FC43F2A0080021C2F200084FF4807259
:101A700040468AF80040AAF80A4000F024FC0AF127
:101A80001A000021102200F01EFC0AF12A00002199
:101A9000102200F018FC02201021002200238AF8F6
:101AA00001408AF80240CAF80C4001F0AAFBBAF8DB
:101AB000081040F63D43C0F200030320002201F06D
:101AC0006EFBBAF8061004200122002301F099FBF6
:101AD0004FF2302B4FF40030CFF6FF7B43F2A019CA
:101AE000C2F20009002346F80B004046BAF808206D
:101AF000494601F0B8FBBAF808004946BFF34F8FDA
:101B0000484401F12002316082420ED202F12001EC
:101B10003260814209D201F120023160824204D256
:101B200002F1200132608142EBD303204146BFF332
:101B30004F8FBFF36F8F01F069FC4FF2B0114FF47C
:101B40000030CFF6FF7108F1200509F5007401237C
:101B50007050214646F80B002846BAF8082001F0DC
:101B600082FBBAF80800BFF34F8F204404F1200134
:101B7000346081420ED201F120023160824209D2EA
:101B800002F120013260814204D201F1200431606F
:101B90008442EBD303202946BFF34F8FBFF36F8FEF
:101BA00001F034FC4FF2B0114FF40030CFF6FF716A
:101BB00008F1400509F5806402237050214646F87B
:101BC0000B002846BAF8082001F04DFBBAF80800CF
:101BD000BFF34F8F204404F12001346081420ED2C4
:101BE00001F120023160824209D202F1200132600B
:101BF000814204D201F1200431608442EBD30320FE
:101C00002946BFF34F8FBFF36F8F01F0FFFB4FF2F9
:101C1000B0114FF40030CFF6FF7108F1600509F5FF
:101C2000C06403237050214646F80B002846BAF8DA
:101C3000082001F018FBBAF80800BFF34F8F2044CA
:101C400004F12001346081420ED201F120023160A2
:101C5000824209D202F120013260814204D201F1B4
:101C6000200431608442EBD303202946BFF34F8F19
:101C7000BFF36F8F01F0CAFB4FF2B0114FF4003089
:101C8000CFF6FF7108F1800509F500640423705058
:101C9000214646F80B002846BAF8082001F0E3FA7E
:101CA000BAF80800BFF34F8F204404F120013460DC
:101CB00081420ED201F120023160824209D202F14A
:101CC00020013260814204D201F12004316084425B
:101CD000EBD303202946BFF34F8FBFF36F8F01F083
:101CE00095FB4FF2B0114FF40030CFF6FF7108F1C1
:101CF000A00509F5206405237050214646F80B0025
:101D00002846BAF8082001F0AEFABAF80800BFF386
:101D10004F8F204404F12001346081420ED201F142
:101D200020023160824209D202F1200132608142F8
:101D300004D201F1200431608442EBD30320294610
:101D4000BFF34F8FBFF36F8F01F060FB4FF2B01105
:101D50004FF40030CFF6FF7108F1C00509F540647B
:101D600006237050214646F80B002846BAF8082092
:101D700001F079FABAF80800BFF34F8F204404F15C
:101D80002001346081420ED201F120023160824292
:101D900009D202F120013260814204D201F1200413
:101DA00031608442EBD303202946BFF34F8FBFF34A
:101DB0006F8F01F02BFB4FF2B0114FF40030CFF6D4
:101DC000FF7108F1E00409F56065072370502946AA
:101DD00046F80B002046BAF8082001F044FABAF899
:101DE0000800BFF34F8F284405F120013560814280
:101DF0000ED201F120023160824209D202F12001AB
:101E00003260814204D201F1200531608542EBD37A
:101E100003202146BFF34F8FBFF36F8F01F0F6FA17
:101E20004FF2B0114FF40030CFF6FF71705047F20F
:101E30004830C2F2000040F61161C0F200010160BA
:101E400040F24810C4F22E00002140F8C41C4A2180
:101E500040F8C81C016841F08071016001B0BDE824
:101E6000000FF0BDF0B503AF2DE9000F81B046F2D1
:101E7000AC16C2F20006328910F8041F10F8183FA1
:101E800010F8171C10F8161C10F8155C447841EA7D
:101E90000521C578807843EA04236FF3DF3140EAF7
:101EA00005208A4243EA004346D14EF65C744FF265
:101EB000302C43F2A01543F2A000CEF20004CFF67E
:101EC000FF7CC2F20005C2F200004FF4003105EBC6
:101ED000432500EB431844F80C104046294601F016
:101EE000C2F93089BFF34F8F284405F120012560E6
:101EF00081420ED201F120022160824209D202F118
:101F000020012260814204D201F120052160854236
:101F1000EBD303204146BFF34F8FBFF36F8F01F028
:101F200075FA4FF2B0104FF40031CFF6FF70215028
:101F300001B0BDE8000FF0BD7078541AB578A84222
:101F400009D03118097C06EB410ABAF81AB0CBF572
:101F50000072944213D906EB4301421C07284FF04C
:101F6000000088BF00224885B0184C83037472704B
:101F7000F0682044F06001B0BDE8000FF0BD43F20E
:101F8000A0124EF65C79C2F20002CEF2000902EB1A
:101F90004120984602EB432558442946224600F04A
:101FA00099F90BEB0400AAF81A00F0684FF400311D
:101FB0002044F0604FF230204346CFF6FF7049F8DE
:101FC000001043F2A000C2F20000328900EB481476
:101FD0002946204601F047F93089BFF34F8F284446
:101FE00005F12001C9F80050814211D201F120020F
:101FF000C9F8001082420BD202F12001C9F800207A
:10200000814205D201F12005C9F800108542E7D3CD
:1020100003202146BFF34F8FBFF36F8F01F0F6F916
:102020004FF2B0104FF40031CFF6FF7049F80010B6
:1020300001B0BDE8000FF0BDF0B503AF2DE9000B16
:1020400046F2AC19C2F2000999F8030010B1BDE8DC
:10205000000BF0BD47F24030C2F2000000780028CB
:10206000F5D0B9F80A000028F1D099F8001043F231
:102070002002C2F20002C0F500664EF67074002322
:1020800002EB411844F2A012C2F20002404602EBF9
:10209000C12532462946CEF2000401F0E4F8701959
:1020A000BFF34F8F05F12001256081420ED201F16F
:1020B00020022160824209D202F120012260814285
:1020C00004D201F1200521608542EBD30420414672
:1020D000BFF34F8FBFF36F8F01F027F999F800001E
:1020E0000130C1B2032988BF002089F80000002018
:1020F000A9F80A00BDE8000BF0BDF0B503AF2DE96B
:10210000000F81B047F240320024C2F20002127880
:102110000090002A00F0D2800E46002900F0CE8008
:102120004EF6707B46F2AC1A44F2A015CEF2000BCC
:10213000C2F2000AC2F200051AE00099324600F02D
:10214000C9F8BAF80A004FF04042811B0020AAF8F3
:102150000A108421C4F22E010028344406460A6085
:102160004FF00001BFF34F8F8AF8031000F0A680F4
:1021700001208AF803009AF8000043F22001BAF81F
:102180000A20C2F20001A84601EB40195AB948469C
:1021900001F0AEF9000657D44FF40062AAF80A2005
:1021A00000208AF804009AF800004546964208EBA1
:1021B000C020A0EB020000F50060BED3009900F043
:1021C00089F89AF800004FF40062002305EBC0255F
:1021D0004846294601F047F805F50060BFF34F8FE8
:1021E00005F12001CBF80050814211D201F120020B
:1021F000CBF8001082420BD202F12001CBF8002074
:10220000814205D201F12005CBF800108542E7D3C9
:1022100004204946BFF34F8FBFF36F8F01F085F85D
:102220009AF800000022BAF80A3045460130C1B2DF
:10223000032988BF002000998AF800001944F01A89
:10224000009100211E4682E743F20001BFF34F8F49
:10225000C2F2000100208AF803000D689AF8040019
:1022600060BB0868401B782825D847F24030C2F28E
:102270000000007810B3FFF781FB01208AF803000B
:10228000BAF80A20002A7FF48EAF484601F030F9F0
:1022900000067FF581AFBFF34F8F00208AF803005F
:1022A0009AF8040050B943F20000C2F2000000683E
:1022B000401B7928D9D301208AF80400204601B0B8
:1022C000BDE8000FF0BD00239A4208BF7047C1541B
:1022D0000133F9E7D0B502AF00239A4208BFD0BD61
:1022E000CC5CC4540133F8E7F0B503AF4DF804BD3E
:1022F00048F214004FF40051C4F20D004FF4805E18
:102300004FF0400C4FF480334FF4404243F242040C
:1023100001E0C0F800E050F8045CAE070DD4AE0454
:102320000FD5EE04F5D5B5F1FF3FF4DCEE030AD48A
:102330006D060AD4C0F800C0EDE742600360446057
:10234000E9E70160E7E74360E5E75DF804BBF0BD5E
:10235000F0B503AF4DF8048D49F200044FF22010A0
:10236000C4F20D04CFF6FF7040F6617140F24015E3
:1023700021504CF28000C4F20F00C4F22E054EF240
:102380000C1849F238060168CEF2000841F003014A
:10239000016040F20440286241F600412068C0F22A
:1023A0001E01C4F20D06084204BFA86E5FEA8070E9
:1023B0001ED04FF0004046F8040C286840F00200A0
:1023C00028602868800709D52868800744BF2868E6
:1023D0005FEA807002D528688007F2D44FF400309D
:1023E000C8F880014FF0004030601920FFF7C7FAAD
:1023F0004FF0804030600020206047F200040A2047
:10240000C2F20004A86600214FF420722046FFF7B4
:102410005AFF4FF4810020604FF48000206440F2A6
:102420004310AC61A86047F20040C2F2000041F2E4
:102430002521C0F20001C0F804124FF40030C8F8A2
:102440000000012028605DF8048BF0BDF0B503AFFB
:102450002DE9000F8BB040F2B016C4F22E0656F8EC
:102460006C1C0A91C80746F86C1C00F0388656F8B8
:10247000040C47F2403C0028C2F2000C00F09E849D
:1024800047F2802147F20005C2F2000147F2203BEB
:1024900021F01F01019141F21401C2F200056144D3
:1024A000099142F214014FF001146144089143F282
:1024B00014014FF0000A6144079144F21401C2F282
:1024C000000B6144069141F228016144059142F2FA
:1024D00028016144049143F228016144039144F2CC
:1024E00028016144029113E04FF6C000844208BF06
:1024F00011F47F4F00F0F88247F200054FF001140D
:102500003461C2F2000556F8040C002800F056842D
:1025100046F8040CD5E90A9156F8702C42F40052A2
:1025200046F8702C56F8702C92041FD456F8702C74
:1025300042F4005246F8702C56F8702C92045FBF9B
:1025400056F8702C42F4005246F8702C56F8702C55
:1025500058BF5FEA824209D456F8702C42F4005208
:1025600046F8702C56F8702C9204D5D556F8702C7D
:1025700022F4005246F8702C7460726812F0011F49
:102580000BD0726812F0011F1CBF726812F0011F9D
:1025900003D0726812F0011FEFD14FEA19428CF894
:1025A00004A01FFA89F442EA01434FEA1148B4F546
:1025B000086F1FFA81FE42DA40F20130844200F3D4
:1025C000A280802C00F0E080822C00F02A81B4F5FB
:1025D000817F91D101F07F0007288DD806EB800024
:1025E00047F200050906C2F200056FF48031026966
:1025F00058BF6FF00101114001610120CBF80000CC
:102600008020CBF80400CBF808A04FF00114C5E9F6
:1026100012BAF460306840F4803030608CF804A066
:10262000306800283FF46FAF306800281CBF306866
:1026300000283FF468AF30680028F1D163E742F228
:102640002020844200F39580B4F5086F00F04C819F
:10265000B4F5106F00F0CC8142F22100844208BF33
:10266000B8F1070F7FF448AFCCE9089147F2003189
:102670000120C2F2000147F20005C2F20005086025
:102680008020C0F2070048600CF12800886005989F
:10269000C860049808610398486102988861C5E998
:1026A000021A306840F001003060306840B1306894
:1026B00000281CBF3068002802D030680028F4D100
:1026C0000121CBF8001048F28000CBF80400CBF8D1
:1026D00008A04FF00114C5E912BAF460306840F464
:1026E000803030608CF80410306800283FF40BAF65
:1026F000306800281CBF306800283FF404AF306801
:102700000028F1D1FFE6A4F5D065022DC0F0EE81DE
:1027100040F20230844200F0B281B4F5A06F7FF441
:10272000EBAE47F200050120C2F20005CBF8000035
:102730008020CBF80400CBF808A04FF00114C5E9C5
:1027400012BAF460306840F4803030608CF804A035
:10275000306840B1306800281CBF3068002802D0C3
:1027600030680028F4D1580600F1807046F85C0CFF
:10277000C9E642F22120844200F0078142F2213072
:1027800084427FF4B1AE11E147F200320121C2F27E
:102790000002604611608021C0F2020120F814AFEF
:1027A000516000F58051D16000F5005190601161D9
:1027B00000F54051516100F580409061C5E9122A51
:1027C000306840F480303060306840B130680028B4
:1027D0001CBF3068002802D030680028F4D10120E6
:1027E000CBF800008020CBF80400CBF808A04FF015
:1027F0000114C5E902BAF460306840F001003060AD
:102800008CF804A0306800283FF47DAE30680028C2
:102810001CBF306800283FF476AE30680028F1D144
:1028200071E601F07F0007283FF666AE06EB8000F8
:1028300009060069ACF814A002D510F4803204D166
:10284000002905D410F0010002D001208CF81400FA
:1028500047F200310120C2F2000147F20005C2F246
:1028600000054FF0011408608020C0F202004860AB
:102870000CF1140088600998C860089808610798EE
:10288000486106988861C5E9121A306840F48030C2
:102890003060306840B1306800281CBF30680028C4
:1028A00002D030680028F4D10120CBF8000080204D
:1028B000CBF80400CBF808A0C5E902BAF460306890
:1028C00040F0010030608CF804A0306800283FF42C
:1028D0001AAE306800281CBF306800283FF413AEE1
:1028E00030680028F1D10EE6614647F200329CF8CC
:1028F0000000C2F2000201F8140F012010608020D5
:10290000C0F20200A0F58030506001F58050D06028
:1029100001F50050106101F540509160506101F5E2
:1029200080409061C5E9122A306840F48030306000
:10293000306840B1306800281CBF3068002802D0E1
:1029400030680028F4D10120CBF800008020CBF8BB
:102950000400CBF808A04FF00114C5E902BAF460F6
:10296000306840F0010030608CF804A03068002826
:102970003FF4C9AD306800281CBF306800283FF420
:10298000C2AD30680028F1D1BDE508040ED143F294
:10299000000046F2A811C2F20000C2F20001006875
:1029A000086043F21000C2F2000003700120CBF86F
:1029B00000008020CBF80400CBF808A04FF00114F1
:1029C000C5E912BAF460306840F4803030608CF8A9
:1029D00004A0306800283FF496AD306800281CBF82
:1029E000306800283FF48FAD30680028F1D18AE5C7
:1029F00002218CF80030C0F2C80101F58020B061DE
:102A0000C820C0F20200F0613162FFF706F805F15C
:102A1000800000218022FFF756FC4CF65D7047F2E3
:102A2000403CCBF6C600C5F8A00049F21930C2F20E
:102A3000000CC7F2D540C5F8E0000120CBF800003B
:102A40008020CBF80400CBF808A04FF00114C5E9B2
:102A500012BAF460306840F4803030608CF804A022
:102A6000306800283FF44FAD306800281CBF306844
:102A700000283FF448AD30680028F1D143E501F06B
:102A80007F0007283FF638AD06EB800047F20005CF
:102A90000906C2F200054FF48031026958BF0121D6
:102AA000114301610120CBF800008020CBF8040025
:102AB000CBF808A04FF00114C5E912BAF4603068F1
:102AC00040F4803030608CF804A0306800283FF477
:102AD0001AAD306800281CBF306800283FF413ADE1
:102AE00030680028F1D10EE54EF46E4E40F64251AA
:102AF000C2F2000111F804CFCC784D78897841EA10
:102B000004214CEA052547F2403CC2F2000C55EA8C
:102B100001413FF4F1AC40F64250C2F2000000F136
:102B20002C049BB20CE0E0786178A27825782834F8
:102B300042EA002045EA012151EA00413FF4DCACC1
:102B400014F82B5C14F82C2C42EA05229A4207D187
:102B500014F8292C14F82A5C45EA0222964561D023
:102B6000214611F81E2DCD784878897841EA052153
:102B700042EA002050EA01413FF4BEAC14F8210CB7
:102B800014F8222C42EA0020984207D114F81F0CB6
:102B900014F8202C42EA002086454BD0204610F83D
:102BA000141DC2784578807840EA022041EA052168
:102BB00051EA00413FF4A0AC14F8170C14F8182C9B
:102BC00042EA0020984207D114F8150C14F8162C8C
:102BD00042EA0020864536D0204610F80A1DC27809
:102BE0004578807840EA022041EA052151EA004117
:102BF0003FF482AC14F80D0C14F80E2C42EA0020BD
:102C0000984290D114F80B0C14F80C2C42EA0020D6
:102C1000864588D1A4F10E0209F07F40B0F1407FD3
:102C20000FD017E0A4F12C0209F07F40B0F1407FF3
:102C300007D00FE0A4F1220209F07F40B0F1407FFD
:102C400008D108780AE0A4F1180209F07F40B0F139
:102C5000407FF6D0507A127A42EA0020404538BFD1
:102C60008046B3F5E06F18D0B3F5007F0CD19CF827
:102C7000010040F67E41C2F20001002840F6E0402B
:102C8000C2F2000008BF014647F280244246C2F269
:102C900000042046FFF71EFB16E09CF8010040F6FA
:102CA000E04147F28024C2F20001002840F67E4055
:102CB000C2F20000C2F2000408BF014620464246AC
:102CC000FFF708FB072060704EF6707508EB0400F4
:102CD000BFF34F8F0199CEF200054FF0011401F1BF
:102CE0002002296082420DD201F140032A60834212
:102CF00008D201F160022B60824203D280312A6047
:102D00008142ECD347F2403C47F20005B8F1000F96
:102D1000C2F2000CC2F20005BFF34F8FBFF36F8FFA
:102D20002BD047F200320120C2F2000247F280218C
:102D3000C2F2000110604FEA08408030506001F597
:102D40008050D06001F50050106101F54050916055
:102D5000506101F580409061C5E9122A306840F465
:102D600080303060306840B1306800281CBF306867
:102D7000002802D030680028F4D10120CBF80000F0
:102D80008020CBF80400CBF808A0C5E902BAF460B3
:102D9000306840F0010030608CF804A030680028F2
:102DA0003FF4B1AB306800281CBF306800283FF406
:102DB000AAAB30680028F1D1FFF7A5BBF468002C5E
:102DC00000F08D8147F24033F460C2F200031879BD
:102DD000002818BF4FF4803020422DD0188C42F2CA
:102DE0002102998C504008434FF00000187123D104
:102DF00046F2A01503F12801C2F200050722284679
:102E0000FFF768FA47F240332868C2F200038628C9
:102E100012D172B6987940F00800987156F8680C93
:102E2000010606D4802146F86C1C40F0800046F86C
:102E3000680C62B6502058711869204000F04F812C
:102E4000050C099000F0A5804FF0010B04E00BFA8F
:102E500009F0854300F09D8095FAA5F0B0FA80F95D
:102E600047F20000C2F2000000EBC918D8F8700069
:102E70000028ECD04FF0000A01460A4612F8043F41
:102E800054789478D2781A064FD4CA784B788C78D4
:102E9000097844EA022241EA032141EA0241012978
:102EA0003ED00A4612F8043F54789478D2781A0635
:102EB00039D4CA784B788C78097844EA022241EAFE
:102EC000032141EA0241012935D00A4612F8043FA4
:102ED00054789478D2781A0630D4CA784B788C78A3
:102EE000097844EA022241EA032141EA0241012928
:102EF0002CD00A4612F8043F54789478D2781A06F7
:102F00003FD4CA780AF1040A4B788C78097844EAED
:102F1000022241EA032141EA02410129ADD117E031
:102F20000AF1010A14E00AF1010AC8F87010BAF1B6
:102F3000000F14D18BE70AF1020A09E00AF1020A34
:102F4000C8F87010BAF1000F09D180E70AF1030A3E
:102F50000021C8E91C11BAF1000F3FF478AFC17825
:102F600042788378047843EA012144EA022242EA63
:102F70000144D8F878108847BAF1010A2046EED10A
:102F800065E70AF1030AC8F87010BAF1000FE6D13C
:102F90005DE709981FFA80F8B8F1000F00F09F80F4
:102FA00047F2000AC2F2000A06E0012000FA0BF024
:102FB00038EA000800F0938098FAA8F0B0FA80FB95
:102FC0000AEBCB1E5EF8300F0028EED04FEA4B0C18
:102FD00000250346194611F8042F4C788C78C978DF
:102FE00011064CD4D9785A789C781B7844EA012190
:102FF00043EA022242EA0143012B3DD0194611F86F
:10300000042F4C788C78C978110637D4D9785A783F
:103010009C781B7844EA012143EA022242EA0143F8
:10302000012B30D0194611F8042F4C788C78C978D0
:1030300011062AD4D9785A789C781B7844EA012161
:1030400043EA022242EA0143012B23D0194611F838
:10305000042F4C788C78C97811063AD4D978043585
:103060005A789C781B7844EA012143EA022242EA1A
:103070000143012BAED10EE001350CE00135CEF855
:1030800000308DB991E7023505E00235CEF8003009
:1030900055B98AE703350AEB8C110022CEF80020DF
:1030A0004A63002D3FF481AF0AEB8C1101F138091E
:1030B000C17842788378047843EA012144EA022205
:1030C00042EA0144D9F800108847013D2046EFD17B
:1030D0006BE70335CEF80030002DE5D165E70A9C9B
:1030E00047F240326006C2F200021DD556F8040CC9
:1030F00046F8040CF068F060306840B13068002891
:103100001CBF3068002802D030680028F4D14FF08E
:10311000FF30706056F82C0CFEF77EFC47F2403210
:103120000020C2F200021061E00106D5906820B1D3
:10313000804747F24032C2F20002A00106D5D068B3
:1031400020B1804747F24032C2F20002600704D546
:1031500056F82C0CC0F34020507056F8680C00064E
:1031600048BF5FEA046003D40BB0BDE8000FF0BDB8
:1031700050790028F8D0013850710106F4D19079C7
:1031800010F0F700907105D156F8680C20F080001F
:1031900046F8680CFBBE0BB0BDE8000FF0BDF0B503
:1031A00003AF2DE900070446053810F1030F25D3BE
:1031B00047F200090D04C2F200094FF0005009EB7C
:1031C000C416002A08BF40EA0145002140223046CB
:1031D00098464FEAC41AFFF776F80120B8F1000FBD
:1031E00049F80A50B060C6F8388007D047F240313D
:1031F000A040C2F200010A6910430861BDE800075F
:10320000F0BDF0B503AF4DF8048D0446053810F15C
:10321000030F25D347F200000E04C2F20000002A7B
:103220004FF0005200EBC41508BF42EA014605F119
:103230004000002140229846FFF745F80120B8F1F0
:10324000000F2E64A864C5F8788009D047F2403298
:1032500044F01001C2F20002884011690843106175
:103260005DF8048BF0BDF0B503AF4DF8048D4FF061
:10327000000C80F803C080F802C0012480F801C06F
:1032800001F5005E0470802480F805C0844601F5D5
:10329000405806460CF8044F140A8CF803404FEAD5
:1032A0001E248CF802200A0A44744FEA182444753C
:1032B00001F58044250A45761D0A01F5805C4577B5
:1032C000054642724FEA1C2242730A0E05F8081F97
:1032D000090CEA704FEA1C62A970014606F80CCF8F
:1032E000F2704FEA1C42B270024601F810EF4FEA4A
:1032F0001E66CE704FEA1E468E70014602F8148F8D
:103300004FEA1866D6704FEA18469670220E01F8FA
:10331000184FCA70220C8A70190E00F81C3FC17039
:10332000190C81705DF8048BF0BD421F12F1030F80
:1033300038BF7047F0B503AF4DF804BD47F2000247
:103340004FF0010CC2F2000202EBC01E40F0100070
:10335000DEF878205AB10A4612F8044F537895786F
:10336000D6789570D67043F080035370147072B69F
:103370000CFA00FCDEF8742040F2B010C4F22E000B
:1033800082B10B0ED3700B0C117093700B0A53703B
:10339000026812EA0C0F14D0CEF8741062B65DF811
:1033A00004BBF0BD0022CEE91212026842EA0C0210
:1033B0000260CEF87010CEF8741062B65DF804BBEF
:1033C000F0BD41F20403CEF200031A6850F8704CCD
:1033D00044F4804440F8704C846850F8705C6D048C
:1033E00004D41D68AD1AB5F5166FEFD314EA0C0FAF
:1033F000D2D10022CEE91212026842EA0C02026027
:10340000CEF8741062B65DF804BBF0BD421F12F135
:10341000030F38BF7047F0B503AF4DF8048D47F286
:10342000000E4FF0010CC2F2000E0EEBC0139B6BAE
:10343000002B4FEA40030CD00D4615F8048F6A7834
:10344000AE78EC78AE70EC7042F080026A7085F86D
:1034500000800EEB831E72B672460CFA00FC40F23E
:10346000B01052F8343FC4F22E007BB10C0EDC7069
:103470000C0C19709C700C0A5C70036813EA0C0F3A
:1034800012D0116062B65DF8048BF0BD0023CEE966
:103490000213036843EA0C030360CEF83010116096
:1034A00062B65DF8048BF0BD41F20403CEF2000376
:1034B0001C6850F8705C45F4804540F8705C856885
:1034C00050F8706C760404D41E68361BB6F5166F7F
:1034D000EFD315EA0C0FD4D10023CEE90213036811
:1034E00043EA0C030360116062B65DF8048BF0BD23
:1034F00010F8041F42788378C07841EA022143EA39
:10350000002041EA0040704780B56F464FF6807456
:1035100072B6C2F227044EF670724FF6B851EFF34E
:103520000580CEF200026060CFF6FF711EF0040F3E
:103530000CBFEFF30880EFF3098048F2203A5158AE
:10354000A1604FF6BC51CEF6B85ACFF6FF71515874
:10355000E1604FF6C451CFF6FF71515821614FF62B
:10356000C851CFF6FF71515861618169A161C0698D
:10357000E06100F022FB84ED080A00F04FFBA34657
:103580004FF0FF3204F1280E60620B204BF8040963
:103590005BF8040F80EA0205E8078AEA550608BFCF
:1035A0006E088AEA5601A80758BF71088AEA5100D6
:1035B0006A0758BF48088AEA50032A0758BF4308D9
:1035C0008AEA5302EC0658BF5A08AD068AEA52044A
:1035D00058BF5408B6068AEA540858BF4FEA540840
:1035E00089068AEA580958BF4FEA580980068AEACC
:1035F000590C58BF4FEA590C98068AEA5C0358BF29
:103600004FEA5C0390068AEA530258BF5A08A006A4
:103610008AEA520458BF54085FEA88608AEA54056F
:1036200058BF65085FEA89608AEA550158BF690892
:103630005FEA8C608AEA510058BF48089B068AEA14
:10364000500358BF430892068AEA530258BF5A08EB
:10365000A6068AEA520458BF5408AE068AEA540500
:1036600058BF650889068AEA550158BF690880066F
:103670008AEA510058BF48089B068AEA500358BF9F
:10368000430892068AEA530658BF5E08A2068AEAF1
:10369000560458BF7408AA068AEA540558BF65083C
:1036A00089068AEA550158BF690880064CF219401C
:1036B000C0F26D7080EA911258BF8A09980648F6E8
:1036C0003200C0F6DB6048BF4240B00641F2640001
:1036D000C1F6B75048BF4240A00642F2C800C3F648
:1036E0006E3048BF4240A80644F29010C7F2DC603A
:1036F00048BF424088060BF1040048BF82EA0A0234
:103700007045FFF445AF4FF680704EF67078C2F208
:103710002700CEF2000844F20C144FF6F4668262E1
:10372000C4F20804BFF34F8FC8F800002030C8F877
:1037300000004CF21C00C4F20F00BFF34F8FBFF328
:103740006F8FCFF6FF76016D402241F44051016545
:103750000221A151016862F30601016041F69C71EA
:1037600043F68050C2F20001C0F6CD3009688142B4
:1037700001D900F054F849F600700025C0F2240089
:10378000A55144F8045C012644F80C0C4EF280105C
:10379000CEF2000044F8046C4FF0FF31016041604C
:1037A0008160C160016101E0FEF750FE20680028E1
:1037B000FAD0013526604F2DF6D940F24010022193
:1037C000C4F22E00016049F23400C4F20D004FF043
:1037D00000410160206848B14FF69C500421CFF6AB
:1037E000FF70C0F2FA5148F80010FEE748F23000CE
:1037F000F121C4F20F00C0F6AD3101602268002A49
:10380000EAD101602268002A02BF01602268002A12
:10381000E2D101602268002AEFD0DDE77047F0B501
:1038200003AF2DE9000F81B04CF2480340F2000ACB
:10383000C4F20F03C4F2080A4AF20141C1F67871DA
:1038400053F8349C884253F8306CDAF80CC01CD31F
:1038500044F20161C2F2C331884221D34BF6002108
:103860004BF22322CDF63C41C0F24C020144090A3E
:10387000A1FB0212D10919225143B1F5A27F88BFE1
:1038800040F2451101F2E2410CE043F2016240F2E4
:103890007E41C0F26E12904238BF40F2B63101E074
:1038A00040F2E241A1F5487144F2AF758AB26A4331
:1038B0000CF01F05A1EB124189B2490801EB12413E
:1038C0009A6B42F0C0029A63B5EB111F4FEA1112D6
:1038D000009216D22CF01F0141EA020CCAF80CC06B
:1038E000DAF8001000290CD4DAF8001000295CBFC7
:1038F000DAF80010002904D4DAF80010B1F1FF3F23
:10390000EEDC43F2400848F2000E5FEA8911C8F28B
:103910000008C4F20D0E2ED4DEF81010002201EAC9
:103920000801B1EB080518BF0125414509F06051B8
:1039300008BF4FF0C05291424FEA053105D029F03F
:10394000685542EA050943F8349C06F440528A421D
:1039500040F01D8149F0007943F8349C19688906CC
:1039600009D51968890644BF19685FEA816102D5E3
:1039700019688906F2D44BF20022C2F29F6290428B
:1039800015D201260146012505E0013505FB00F1B0
:10399000714391420ED2072DF7D9042E0AD8013671
:1039A000012505FB00F171439142F4D302E00125AA
:1039B0000126014601F5B70049F6817100F558600E
:1039C000C1F25E61A0FB01026C2141F6003B100DCB
:1039D000C0F2B70B6C2843F27F0038BF110D3629B7
:1039E000C8F2010098BF3621DEF8002008EB010480
:1039F0000240A4F5825401FB0BF0A24240F081800A
:103A000053F8381C01F00702691EB0FBF5F08A423A
:103A100040F093804FF4E05109F4E05201EB86212D
:103A200001F4E051B0FBF6F08A42009E40F099802C
:103A30004DF27F1141F29F02C0F6F001C0F2E502A3
:103A400001440424C909A1FB0212110B04294FF4FB
:103A5000407138BF140B01EB042109F4407201F4EA
:103A600040718A4204D029F44072114343F8341C57
:103A700053F8341C21F0007143F8341C196889068E
:103A800009D51968890644BF19685FEA816102D5C2
:103A900019688906F2D44DF68361C4F21B31A0FB8C
:103AA0000112B0FBF4F3910C4FF0FF32B2FBF1F1D5
:103AB00041F69C72C2F20002106053600CF01F02CB
:103AC000B24243F20802C2F20002116015D92CF092
:103AD0001F013143CAF80C10DAF8001000290CD489
:103AE000DAF8001000295CBFDAF80010002904D4CD
:103AF000DAF80010B1F1FF3FEEDC01B0BDE8000FD5
:103B0000F0BD4FF48052CEF8002001F50051CEF800
:103B10000010DEF8001000293FF572AFDEF800104B
:103B200000295CBFDEF8001000293FF569AFDEF820
:103B30000010B1F1FF3FECDC62E701F0070143F850
:103B4000381C1968C9037FF565AF1968C90344BFFC
:103B500019685FEAC1317FF55DAF1968C903F0D418
:103B600058E729F4E05241EA020943F8349C196805
:103B700089077FF55DAF1968890744BF19685FEA57
:103B800081717FF555AF19688907F0D450E726F4A5
:103B90004052114343F8301C196809077FF5DAAE2B
:103BA0001968090744BF19685FEA01717FF5D2AE51
:103BB00019680907F0D4CDE6704748F28010C4F2C6
:103BC0000D000168490709D4016849075CBF016815
:103BD0005FEA417102D401684907F2D5006847F2F3
:103BE000C061C2F20001C0F30B2001EE100A91ED9A
:103BF000010AB8EE400A91ED032AB8EE411A31EEFF
:103C0000400A91ED021A21EE000A91ED001AB8EE79
:103C1000411A80EE020A31EE400A7047D0B502AF79
:103C200044F2240EC4F20D0EDEF800C0DEF80400EB
:103C3000DEF80010DEF80430984203D18C450246CD
:103C400064461DD0DEF800C0DEF80400834203D1D4
:103C500061451A460C4613D0DEF80030DEF8041039
:103C6000884203D19C450246644609D0DEF800C074
:103C7000DEF804008142DBD163450A461C46D7D1F9
:103C8000600440EAD230D0BD80B56F4682B00146B4
:103C9000C8680090019150F8040C90F82A00800741
:103CA000002808D4FFE70099019851F8042C5268C5
:103CB000904702B080BD0198006806F091FA02B00A
:103CC00080BD80B56F4682B0019101460198CA68F7
:103CD000C2600B69036152F8043C1B689847019865
:103CE00002B080BD80B56F468AB00590002100F01B
:103CF00075FA0A46114606910790002A0890099124
:103D000004D4FFE7089809990AB080BD0598079A7E
:103D1000069949421044002302931A4606F069FAB4
:103D2000029B024605981946049111460391694683
:103D30000B6000F056FA0399049808910990E1E7A6
:103D400082B0FFE700200190FFE7002000900120F3
:103D500002B0704780B56F46FFF7F2FF80BDC0B577
:103D600001AF4DF804AD82B000F01FFA404600905C
:103D70008046CDF8048030B9FFE7DDF8008002B05E
:103D80005DF804ABC0BDDDF80480002002B05DF832
:103D900004ABC0BD7047704789B0079108900029F7
:103DA0004FD0FFE70798002847D0FFE70798411C4E
:103DB000084605900120B1F5807F069008D3FFE703
:103DC00005990420B1F5803F38BF02200690FFE737
:103DD000089906980390049118B9FFE70020029013
:103DE00023E00398012804D1FFE7049800780290AB
:103DF0001BE00398022807D1FFE704990878497867
:103E000040EA0120029010E0039804280DD1FFE75A
:103E1000049B18785A789978DB7841EA032140EAC4
:103E2000022040EA01400290FFE70298019020B191
:103E3000FFE701980138009007E04FF0FF30009055
:103E400003E04FF0FF300090FFE70098013009B029
:103E500070478AB006920791089000200990AAB195
:103E6000FFE70698411C084604900120B1F5807FC9
:103E7000059008D3FFE704990420B1F5803F38BFCF
:103E800002200590FFE705980990FFE70798099938
:103E9000039120BBFFE7039808B9FFE71BE00398F5
:103EA000012804D1FFE708990020087013E0039867
:103EB000022805D1FFE708990020487008700AE041
:103EC0000398042807D1FFE708990020C87088707C
:103ED00048700870FFE70798A8B3FFE733E007983A
:103EE000411E012001910021029029B9FFE70198AC
:103EF000013000210290FFE703980299009108B970
:103F0000FFE71FE00398012804D1FFE70098089914
:103F1000087017E00398022806D1FFE70899009877
:103F20000870000A48700DE0039804280AD1FFE7E2
:103F300008990098020ECA70020C8A700870000A74
:103F40004870FFE7FFE70AB07047002070477047EE
:103F5000704700BF0248784408300021704700BF16
:103F6000FEF2FF1F0248784408300021704700BF6E
:103F7000FEF2FF1F80B56F4600F002F880BD00BF63
:103F800080B56F4682B00D4878440068019088B9CA
:103F9000FFE70B48784400F108010A48784406F02E
:103FA0002EF901460846BFF35F8F074A7A44116035
:103FB0000190FFE7019802B080BD00BFAC4900202E
:103FC000C0F2FF1FB4E0FF1F8849002080B56F4694
:103FD00000F002F880BDD4D480B56F4688B00021CF
:103FE000079107900A49794409680591094979447C
:103FF00009680691029002A8009000F00DF80146B1
:1040000000980191FFF740FE019808B080BD00BF05
:10401000FEF7FF1FFAF7FF1F80B56F468AB0002139
:104020000991099004A90291FFF74BFE08487844D2
:10403000FFF758FE029902466B46072018600548B4
:104040007844036803A806F0CCF803980AB080BD52
:104050005EF2FF1FA4F7FF1F80B56F4600F001F866
:1040600080BD84B000910146009800220392029224
:1040700003910290084402460192884203D6FFE76A
:10408000019804B07047FEDE80B56F4600F001F87D
:1040900080BD83B000220292019202900191421AE7
:1040A0000092884203D6FFE7009803B07047FEDE17
:1040B00080B56F4600F001F880BD83B00022029207
:1040C00001920290019180FB01100A460092B0EB30
:1040D000E17F03D1FFE7009803B07047FEDE80B5B3
:1040E0006F4600F001F880BD84B00091019000227D
:1040F000039202920390029131B1FFE70198009977
:1041000090FBF1F004B07047FEDE80B56F4600F022
:1041100001F880BD85B001910290002204920392C3
:1041200004900391884203D1FFE70298009002E0D7
:1041300001980090FFE7009805B0704780B56F4682
:1041400000F001F880BD85B0019102900022049238
:10415000039204900391814203DAFFE702980090F2
:1041600002E001980090FFE7009805B0704780B525
:104170006F4600F001F880BD85B0019102900022E9
:104180000492039204900391884203DAFFE70298B5
:10419000009002E001980090FFE7009805B070479A
:1041A00080B56F4600F0EBFF80BD704780B56F466D
:1041B0002DE9000582B04FF00008FFF7D0FD404622
:1041C0008046CDF8008028B9FFE7002002B0BDE8A6
:1041D000000580BD0098002105F0AAFED0E900018D
:1041E0007047C0E900237047704740207047096856
:1041F000DAF8002052184FF0010178BF0021026068
:10420000084670470A68DAF800300121934278BF07
:1042100000219A1A0260084670470968DAF80020FF
:1042200002FB01F352FB01F1B1EBE37118BF012175
:10423000036008467047FEDEFEDEFEDE120A202A1C
:1042400094BF0968002101607047096812688918E5
:104250007CBF01607047FEDE09681268891A7CBF66
:1042600001607047FEDE0268096800208A42B8BF1C
:104270000120704700680968401AB0FA80F04009D0
:1042800070470021016070470968126881FB0212C3
:10429000B2EBE17F04BF01607047FEDE1268002AC6
:1042A0001FBF096891FBF2F101607047FEDE1268E2
:1042B000002A1FBF096891FBF2F303FB1211016092
:1042C00018BF7047FEDE0968126811400160704730
:1042D000096812681143016070470968126851400B
:1042E00001607047014878440068704712F5FF1F6D
:1042F00001487844006870470AF5FF1F0148784478
:10430000704700BF96EFFF1F01487844704700BF19
:104310001AF0FF1F01487844704700BF32F0FF1FBA
:104320000148784400687047E2F4FF1F0148784470
:1043300000687047DAF4FF1F01487844006870474E
:10434000D2F4FF1F01487844704700BF26F0FF1FDA
:1043500001487844704700BFE6EFFF1FFFF76BBFCF
:10436000090A202994BF006800207047401AB0FA5B
:1043700080F0400970477047CAF800007047D4D4F5
:10438000014851467844704761FEFFFF704708407E
:1043900070470843704748407047402070474018B6
:1043A0004FF0010178BF002170470122814278BFA0
:1043B0000022081A1146704701FB00F251FB00F081
:1043C000B0EBE271104618BF01217047FEDEFEDE41
:1043D000FEDE401878BF7047FEDE401A78BF704797
:1043E000FEDE00228842B8BF01221046704700203E
:1043F000704780FB0101B1EBE07F08BF7047FEDE34
:1044000000291CBF90FBF1F07047FEDE00291EBFA3
:1044100090FBF1F202FB11007047FEDEC8407047CE
:10442000884070470248002178440830704700BF38
:10443000E8EEFF1F80B56F46FFF7C8FFF0B503AF8A
:104440002DE9000F87B06C466FF30304A5466E4656
:104450001C4682467260F16082B021490020794496
:1044600001F1100318310091214605F0CAFE02B097
:10447000054650F8040CB060006A073020F00700D1
:10448000ADEB000121F00F08C546ADEB000020F0B8
:104490000F0BDD4622463460D4F80C907468584601
:1044A0002146C8474046D6F80CA021463268C84786
:1044B000BB6858464146AA465C682A46A0478146E2
:1044C000B068294644684046A04758462946A04758
:1044D000A7F11C044846A546BDE8000FF0BD00BF8B
:1044E00022E1FF1FF0B503AF2DE9000F87B06C4646
:1044F0006FF30304A5466E461C4682467260F16067
:1045000082B021490020794401F110031831009153
:10451000214605F076FE02B0054650F8040CB06066
:10452000006A073020F00700ADEB000121F00F0812
:10453000C546ADEB000020F00F0BDD46224634608F
:10454000D4F80C90746858462146C8474046D6F8BF
:104550000CA021463268C847BB6858464146AA4667
:104560005C682A46A0478146B068294644684046B0
:10457000A04758462946A047A7F11C0489F001002E
:10458000A546BDE8000FF0BD7AE0FF1FF0B503AF10
:104590002DE9000F87B06C466FF30304A5466E4605
:1045A00014468246D7F808B0F16082B02049002056
:1045B000794401F1100318310091594605F021FEAC
:1045C00002B0054650F8040CB060006A073020F0D5
:1045D0000700ADEB000121F00F08C546ADEB000070
:1045E00020F00F09CD465A46DBF80CB0484621466C
:1045F000D8474046D6F80CA02146BA68D847FB6891
:1046000048464146AA465C682A46A0478246B068AA
:10461000294644684046A04748462946A047A7F196
:104620001C048AF00100A546BDE8000FF0BD00BFE4
:10463000D0DFFF1FF0B503AF2DE9000E84B06C464C
:104640006FF30304A5466E46D7F808B08A4659466C
:10465000F06000204446C6E9013200F039FC024611
:1046600050F8040C016A073121F00701ADEB01019C
:1046700021F00F09CD4683684846514698475BF8BC
:10468000045C012148465A46AB699847012809D184
:10469000F068A046D6F804A0B16888474446B8F14F
:1046A000000F04E02B69F06849465A469847A04637
:1046B000A7F11804A546BDE8000EF0BDF0B503AFA4
:1046C0002DE9000E84B06C466FF30304A5466E46D8
:1046D000BC688A462146F0600020C146C6E9013226
:1046E00000F0F6FB024650F8040C016A073121F095
:1046F0000701ADEB010121F00F0BDD468368584641
:104700005146984754F8045C012158462246AB694B
:104710009847012809D1F068C846D6F804A0B168C6
:104720008847C146B8F1000F0CE0A246F4682B6937
:104730002046594652469847ED69002101222046FD
:104740005346A847A7F11804C846A546BDE8000E81
:10475000F0BD80B56F46D3F804C0E04780BD80B59A
:104760006F465368984780BD80B56F46D3F80CC03C
:10477000E04780BD80B56F4682B0D7F808C0DCF84E
:1047800004E0CDF800C0F04702B080BDD0B502AF64
:1047900082B0D7E902ECDCF80440CDE900ECA04798
:1047A00002B0D0BD80B56F465368984780BD80B5D4
:1047B0006F46D3F808C0E04780BD80B56F46D36828
:1047C000984780BD80B56F46FFF7CEFF80BD80B5AE
:1047D0006F46FFF7C9FF80BD80B56F46FFF7C4FF86
:1047E00080BDD4D480B56F468B68012253F8041C79
:1047F000D1F81CC00121E04780BD53F8043C926809
:1048000000F0BBBA042305F0EEBCB0B502AF04461D
:10481000816840F23F1005F0E8FC3F2905460CD8BE
:1048200055F8040C002100F1200201232046002548
:1048300005F0D4FC00212846B0BD3F212846B0BD7C
:10484000F0B503AF2DE9000BD2F808800E46814683
:1048500058F8044CD4E90A32256A002ADAB208BFB3
:104860000135032A10D813F480100DD10C2D0BD86C
:10487000A369012130464246984780B148463146F7
:104880002A46FDF727FD15E002F108013068914343
:10489000C9F8000000EB010905F0A1FC0AE0A368DB
:1048A0004846314642469847E6690021012248467B
:1048B0004346B0474846BDE8000BF0BDF0B503AF36
:1048C0004DF804BD8C6801212246054654F8046C5D
:1048D000B369984700281CBF5DF804BBF0BD72683F
:1048E000284621465DF804BBBDE8F0401047F0B50E
:1048F00003AF4DF8048D95680E468046012155F8AA
:10490000044C30462A46A369984748B1E06A226AB7
:1049100000284046314608BF0132FDF7DBFC0AE0C3
:10492000A368404631462A469847E669002101229D
:1049300040462B46B04740465DF8048BF0BDF0B5CD
:1049400003AF2DE90007966888460121324656F8E4
:1049500004AC8146DAF81840A047054601214046DC
:104960003246A04775B198B9DAF808304846414652
:1049700032469847DAF81C50002101224846334657
:10498000A84710E098B1DAF804204846314690472D
:10499000DAF82C00DAF8202000284846414608BF03
:1049A0000132FDF797FC4846BDE80007F0BDDAF894
:1049B0000C304846414632469847F4E7F0B503AF1D
:1049C0004DF8048D95680E468046012155F8044C3B
:1049D00030462A46A369984748B1E06A226A00280F
:1049E0004046314608BF0132FDF774FC0AE02369F6
:1049F000404631462A469847E66900210122404652
:104A00002B46B04740465DF8048BF0BDF0B503AFD0
:104A10002DE90007966888460121324656F804AC15
:104A20008146DAF81840A047054601214046324643
:104A3000A04775B198B9DAF8103048464146324679
:104A40009847DAF81C500021012248463346A8470F
:104A500010E098B1DAF80420484631469047DAF879
:104A60002C00DAF8202000284846414608BF0132D1
:104A7000FDF730FC4846BDE80007F0BDDAF8143019
:104A80004846414632469847F4E700BFF0B503AFC9
:104A90004DF8048D92688C46002352F8045CE96A54
:104AA0002C6AB1F1010E38BF9E46002908BF0134BF
:104AB000BCF1000F67D0F44540D9032C02D9035D47
:104AC00013BB3BE0E3004FF0FF369E40ACEB0E0C17
:104AD000F643664426FA03F300260133B6EB134F80
:104AE00004D1FF2B23D8022BE9D227E00319065D5E
:104AF00093F8038093F801C09B7843EA082346EAC1
:104B00000C2646EA0343CBB1591EE2009140032C28
:104B100088BF00214CB1032C88BF0424621EDFE84B
:104B200002F002181D2500782AE0002028E0031971
:104B3000065D5B7846EA0323002BE5D1022901D20A
:104B4000002320E0AB699847431E022838BF0023AA
:104B500019E04278007840EA022011E042780378B8
:104B6000807843EA022242EA004009E0C2784378B2
:104B70008678007846EA022240EA032040EA0240B2
:104B800008437044431C18465DF8048BF0BD00BF19
:104B9000F0B503AF2DE9000B9B6814464FF00009F8
:104BA000804653F804CCDCF82C20DCF82050561E4C
:104BB00038BF4E46002A08BF0135B4421ED9032D26
:104BC00004D94FF001098E421AD34DE04FEAC50EC9
:104BD0004FF0FF3000FA0EF0A41BC043204420FA2F
:104BE0000EF00130B9EB104F3AD1012888BF4FF0D9
:104BF0000109B0F5807F28BF4FF002098E4233D201
:104C0000F043042D00EB010610D34046294600F086
:104C100064FA300E88F80300300C88F80200300A7D
:104C200088F8010088F80060012451E0E800002DB8
:104C300026FA00F101F101044AD04FF0FF3101FAE8
:104C400000F029468643404600F047FA032D34D051
:104C5000022D3BD188F80060300A88F8010037E067
:104C60004FF004098E42CBD3DFE809F00E03084F62
:104C70001A00002008F8050039B91BE008EB050010
:104C8000002608F805604670A1B1022A12D301314E
:104C9000DCF81CC04046BDE8000BBDE8F0406047B2
:104CA00008EB0500002608F80560C670867046709F
:104CB0000029EAD1BDE8000BF0BD300A88F8006099
:104CC00088F80100300C88F8020001E088F80060E4
:104CD000DFE809F00304091B0E00EBE708F80540C4
:104CE000BDE8000BF0BD08EB050008F8054007E043
:104CF00008EB0500210E08F80540C170210C8170F9
:104D0000210A4170BDE8000BF0BD8A6852F8041C0E
:104D10008B69012118477047936853F8042CD2F827
:104D20001CC00122604780B56F4684B0CDE90112F6
:104D3000BA6801A9039305F059FA04B080BDF0B533
:104D400003AF4DF804BD52F8046C144605463369B0
:104D50009847F6690021012228462346B0475DF8AE
:104D600004BBF0BD80B56F460B4651F8041C012210
:104D7000D1F81CC00121E04780BDF0B503AF2DE99B
:104D8000000F8FB06C466FF30304A5466E4652F8D1
:104D9000049C9246F062D9F820000730716220F03E
:104DA0000700F360ADEB000121F00F0131618D468A
:104DB000ADEB000020F00F00F061854600201146A9
:104DC000002500F085F850F8048C0446D8F820003F
:104DD000073020F00700ADEB000020F00F00B062BC
:104DE000854682B00020002321462246009505F02A
:104DF000FEF902B050F8041C7161096A073121F014
:104E00000701ADEB010121F00F0BDD46B0618069B8
:104E10000BEB0005C6F82080D8F808805846F16AE8
:104E20002246C0472846716A2246F562C0474D4671
:104E3000D9F81890012158465246C847012809D18F
:104E40000121F06A52464FF00108C8470128306A34
:104E50000ED131E0B06A59462246C0470121F06ABE
:104E60005246C847012808D16A68B06A514690473F
:104E70004FF00008D6E905041EE0B560D5F81080B3
:104E8000F569B16A28465246C047D6F81090F16AD3
:104E900048465246C047F368284649465246D3F82A
:104EA00004C0E0478046B068514645684846A84778
:104EB000F0695146A847306A4268584621469047F3
:104EC000A7F11C044046A546BDE8000FF0BDD4D4B0
:104ED00080B56F4682B0034A7A440092FFF723FF01
:104EE00002B080BD44D7FF1F80B56F46FFF745FF76
:104EF00080F0010080BDF0B503AF2DE9000E84B055
:104F00006C466FF30304A5469D686E4655F804BCD5
:104F1000F060C6F80880D046DBF82000073020F0AB
:104F20000700ADEB000020F00F09C6E90021CD46D7
:104F300053F8040C016A073121F00701ADEB0101C0
:104F400021F00F0AD5468468504641461A46A047CC
:104F5000DBF81830012150462A469847012803D132
:104F60000121D6E9024015E0DBF8103048465146F1
:104F70002A469847F0684946D6F80880D6E900A244
:104F80009047DBF8042048462946444690473CB900
:104F9000F0680021BB6853F8042CD5690122A847AA
:104FA000A046A7F11804A546BDE8000EF0BDF0B577
:104FB00003AF2DE9000E84B06C466FF30304A546E1
:104FC0009D686E4655F8049CB060C6F80C80D046CB
:104FD000D9F82000073020F00700ADEB000020F0EA
:104FE0000F0BC6E90021DD4653F8040C016A0731B6
:104FF00021F00701ADEB010121F00F0AD5468468CD
:10500000504641461A46A047D9F81830012150466B
:105010002A469847012809D1BB680121012253F88B
:10502000040CC569B068A847F46813E0D9F81030DB
:10503000584651462A469847B0685946D6F80C80DB
:10504000D6E900A29047D9F804205846294644469C
:105050009047002CA046A7F11804A546BDE8000E15
:10506000F0BDF0B503AF2DE9000F83B06C466FF3D0
:105070000304A54651F804BC804689466E46DBF819
:1050800020005146073020F00700ADEB000020F073
:105090000F05AD46DBF8083028464A469847D9F850
:1050A000084001212846224654F804ACDAF81830AA
:1050B000984701280BD0DAF810304046294622469E
:1050C0009847A7F11C04A546BDE8000FF0BDDBF82A
:1050D0000420284649469047FEDE0A460021FDF797
:1050E000F2B8D4D491ED000B80ED000B7047096845
:1050F0000160704709680160704709880180704746
:10510000D1E90012C0E900127047097801707047B8
:1051100080B56F46FFF7EEFF80BD80B56F46FFF7A5
:10512000E9FF80BD80B56F46FFF7E7FF80BD80B522
:105130006F46FFF7DFFF80BD80B56F46FFF7E0FFEA
:1051400080BD80B56F46FFF7E0FF80BD80B56F463C
:1051500052F8043C1B69984780BDD4D4704770470F
:105160007047704770477047704770477047704787
:105170007047704770477047704770477047704777
:10518000936818470021C0E90011704791ED000BAA
:1051900090ED001B30EE010B80ED000B7047F0B579
:1051A00003AF2DE9000D6C466FF30304A54652F8DA
:1051B000048C04466E469246D8F820000A46073012
:1051C00020F00700ADEB000020F00F05AD46D3F84E
:1051D0000CC082B00093284621465346E04702B0F7
:1051E000D8F80420204651469047D8F81030204681
:1051F000294652469847A7F11804A546BDE8000D78
:10520000F0BD91ED000B90ED001B31EE400B80EDF9
:10521000000B7047F0B503AF2DE9000D6C466FF33E
:105220000304A54652F8048C04466E469246D8F80C
:1052300020000A46073020F00700ADEB000020F008
:105240000F05AD46D3F814C082B00093284621461E
:105250005346E04702B0D8F8042020465146904714
:10526000D8F810302046294652469847A7F118042E
:10527000A546BDE8000DF0BD00210160704791ED2D
:10528000000A90ED001A30EE010A80ED000A704726
:1052900091ED000A90ED001A31EE400A80ED000A0F
:1052A000704700210160704709E010E00021018093
:1052B00070473FE04AE0002101607047FFE709685E
:1052C000026889187CBF01607047FEDEFFE709684D
:1052D0000268511A7CBF01607047FEDE0021C0E900
:1052E0000011704755E065E000210170704791F9A9
:1052F000001090F9002011444AB28A4204BF0170A4
:105300007047FEDE91F9001090F90020511A4AB260
:105310008A4204BF01707047FEDEFFF740BFFFF70F
:1053200079BF0021016070471FE026E00021018065
:105330007047FFE7B1F90010B0F9002011440AB23C
:105340008A4204BF01807047FEDEFFE7B1F900101A
:10535000B0F90020511A0AB28A4204BF0180704796
:10536000FEDE002101607047FFE7096802688918C6
:105370003CBF01607047FEDEFFE709680268511A12
:1053800024BF01607047FEDE0021C0E900117047B4
:10539000FFE7D1E900C3D0E900211CEB020C41EB8F
:1053A00003024B40514099435CBFC0E900C27047C3
:1053B000FEDEFFE7D1E900C3D0E90021B2EB0C0C1F
:1053C00061EB03024B40514019405CBFC0E900C291
:1053D0007047FEDE002101707047097802781144A1
:1053E000CAB28A4204BF01707047FEDE09780278B3
:1053F000511ACAB28A4204BF01707047FEDED4D48B
:10540000F0B503AF2DE9000F87B06C466FF30304CE
:10541000A5466E4699468846F06082B020492148EC
:10542000794478444246D0F800B0096800200091E1
:1054300019465B4604F0E5FE02B0824650F8040CC3
:10544000006A073020F00700ADEB000020F00F04E9
:10545000A54682B014484146784452465B460068EF
:105460000090484604F0C9FE02B0D0F804C082B0F3
:105470000E494FF480727944009020465346E0472D
:1054800002B0D9F80C50F0682146C24642464B465D
:10549000A847A7F11C04A546BDE8000FF0BD00BF5A
:1054A000D4E3FF1FCAE3FF1F98E3FF1F7AD2FF1F59
:1054B00080B56F4652F8043C9B68984780BD80B524
:1054C0006F469368984780BD80B56F4682B0D7F825
:1054D00008C0DCF80CE0CDF800C0F04702B080BD99
:1054E000D3F810C0604780B56F4682B0D7F808C0C7
:1054F000DCF814E0CDF800C0F04702B080BDD3F86E
:1055000018C060470268096800209142B8BF0120B6
:1055100070470268096800209142A8BF01207047C7
:105520000268096800208A42A8BF01207047096804
:1055300000291FBF026892FBF1F101607047FEDE97
:10554000096800291FBF026892FBF1F303FB1121D8
:10555000016018BF7047FEDE0968026811400160F3
:105560007047096802681143016070470968026862
:10557000514001607047DDF800C0CDF800C060E028
:10558000FEDEFEDEB0F90020B1F9001000209142ED
:10559000B8BF01207047B0F90020B1F90010002019
:1055A0009142A8BF01207047B0F90020B1F9001066
:1055B00000208A42A8BF01207047098800291FBF28
:1055C000B0F9002009B292FBF1F1018018BF7047D9
:1055D000FEDE098800291FBFB0F900200BB292FB44
:1055E000F3F303FB11211CBF01807047FEDE098825
:1055F00002881140018070470988028811430180A8
:1056000070470988028851400180704780B56F4615
:105610001288002A1FBFBAF800E00FFA8EFC13B2FE
:105620009CFBF3F31FBF03FB12E20A80038080BDE3
:10563000FEDEFEDEFEDEFEDEDDF800C0CDF800C0E0
:10564000FFE71268002A1FBFDAF8003093FBF2FC74
:105650000CFB12320A601CBFC0F800C07047FEDEAF
:10566000D0E90002D1E90013081A73EB02004FF0F1
:105670000000B8BF01207047D0E90002D1E9001353
:10568000081A73EB02004FF00000A8BF012070471A
:10569000D0E90002D1E90013401A72EB03004FF089
:1056A0000000A8BF01207047D0B502AFD1E90023A8
:1056B00052EA030107D00446D0E9000100F00AFFD6
:1056C000C4E90001D0BDFEDED0B502AFD1E90023B0
:1056D00052EA030107D00446D0E9000100F0FAFEC7
:1056E000C4E90023D0BDFEDED1E900C2D0E900311B
:1056F000114003EA0C02C0E900217047D1E900C261
:10570000D0E90031114343EA0C02C0E9002170479F
:10571000D1E900C2D0E90031514083EA0C02C0E96E
:1057200000217047F0B503AF2DE90007D2E900640E
:1057300056EA040219D0DAE9005A8946804628461A
:1057400051463246234600F0C5FEA0FB062300FB6F
:10575000043301FB0633AA1AC8E900016AEB03030C
:10576000C9E90023BDE80007F0BDFEDEFEDEFEDE77
:10577000FEDE90F9002091F9001000209142B8BFA0
:105780000120704790F9002091F90010002091420B
:10579000A8BF0120704790F9002091F90010002067
:1057A0008A42A8BF01207047097800291FBF90F9DD
:1057B000002049B292FBF1F1017018BF7047FEDE84
:1057C000097800291FBF90F900204BB292FBF3F338
:1057D00003FB11211CBF01707047FEDE09780278BF
:1057E00011400170704709780278114301707047C9
:1057F0000978027851400170704780B56F46127881
:10580000002A1FBF9AF800E04FFA8EFC53B29CFBAF
:10581000F3F31FBF03FB12E20A70037080BDFEDECC
:10582000FEDEFEDEFEDEF0B503AF2DE9000D6C46B8
:105830006FF30304A54652F8048C04466E46924664
:10584000D8F820000A46073020F00700ADEB000032
:1058500020F00F05AD46D3F824C082B0009328464F
:1058600021465346E04702B0D8F80420204651466E
:105870009047D8F810302046294652469847A7F15D
:105880001804A546BDE8000DF0BDF0B503AF2DE945
:10589000000D6C466FF30304A54652F8048C0446D1
:1058A0006E469246D8F820000A46073020F00700DE
:1058B000ADEB000020F00F05AD46D3F828C082B054
:1058C0000093284621465346E04702B0D8F804200A
:1058D000204651469047D8F8103020462946524677
:1058E0009847A7F11804A546BDE8000DF0BDF0B536
:1058F00003AF2DE9000D6C466FF30304A54652F883
:10590000048C04466E469246D8F820000A460730BA
:1059100020F00700ADEB000020F00F05AD46D3F8F6
:105920002CC082B00093284621465346E04702B07F
:10593000D8F80420204651469047D8F81030204629
:10594000294652469847A7F11804A546BDE8000D20
:10595000F0BDF0B503AF2DE9000D6C466FF3030405
:10596000A54652F8048C04466E469246D8F82000AC
:105970000A46073020F00700ADEB000020F00F05CD
:10598000AD46D3F830C082B0009328462146534636
:10599000E04702B0D8F80420204651469047D8F896
:1059A00010302046294652469847A7F11804A546CC
:1059B000BDE8000DF0BDF0B503AF2DE9000D6C465C
:1059C0006FF30304A54652F8048C04466E469246D3
:1059D000D8F820000A46073020F00700ADEB0000A1
:1059E00020F00F05AD46D3F834C082B000932846AE
:1059F00021465346E04702B0D8F8042020465146DD
:105A00009047D8F810302046294652469847A7F1CB
:105A10001804A546BDE8000DF0BDDDF800C0CDF8C6
:105A200000C000F0F6BA00F013BB80B56F4600F07E
:105A30000BFB026809680020914238BF01207047C3
:105A4000026809680020914228BF0120704702685F
:105A5000096800208A4228BF012070470968002990
:105A60001FBF0268B2FBF1F101607047FEDE0968FA
:105A700000291FBF0268B2FBF1F303FB1121016093
:105A800018BF7047FEDEDDF800C0CDF800C03DE075
:105A90000068002801BFDAF80000B0FA80F0400981
:105AA0007047FEDE098800291FBF0288B2FBF1F1B2
:105AB00001807047FEDE098800291FBF0288B2FB03
:105AC000F1F303FB1121018018BF7047FEDE12883D
:105AD000002A1FBFBAF800C01FFA8CF3B3FBF2F321
:105AE00003FB12C21EBF0A8003807047FEDE0088DF
:105AF000002801BFBAF80000B0FA80F040097047F2
:105B0000FEDEDDF800C0CDF800C0FFE71268002A15
:105B10001FBFDAF80030B3FBF2FC0CFB12320A6054
:105B20001CBFC0F800C07047FEDED0B502AFD1E99F
:105B3000002352EA030107D00446D0E9000100F037
:105B4000E0FCC4E90001D0BDFEDED0B502AFD1E972
:105B5000002352EA030107D00446D0E9000100F017
:105B6000D0FCC4E90023D0BDFEDEF0B503AF2DE9C3
:105B70000007D2E9006456EA040219D0DAE9005AB3
:105B800089468046284651463246234600F0B9FCF5
:105B9000A0FB062300FB043301FB0633AA1AC8E965
:105BA00000016AEB0303C9E90023BDE80007F0BD6B
:105BB000FEDED0E90001084301BFDAE90001084335
:105BC000B0FA80F0400908BF7047FEDE027809781D
:105BD0000020914238BF01207047027809780020E8
:105BE000914228BF012070470278097800208A423C
:105BF00028BF01207047097800291FBF0278B2FB37
:105C0000F1F101707047FEDE097800291FBF0278AC
:105C1000B2FBF1F303FB1121017018BF7047FEDEE8
:105C20001278002A1FBF9AF800C05FFA8CF3B3FB0A
:105C3000F2F303FB12C21EBF0A7003707047FEDE50
:105C40000078002801BF9AF80000B0FA80F04009FF
:105C50007047FEDEFFF756BCFFF75BBCFFF760BC8A
:105C6000FFF790BCFFF797BCFFF79EBCFFF7E1BEC4
:105C7000FFF7E6BEFFF7EBBEFFF7F2BCFFF7FCBC99
:105C8000FFF706BD80B56F46FFF77AFC80BD80B593
:105C90006F46FFF775FC80BD80B56F46FFF7C9FC06
:105CA00080BD80B56F46FFF76BFC80BD80B56F4649
:105CB000FFF75CFD80BD80B56F46FFF7B1FD80BD8D
:105CC000FFF7CCBEFFF7D3BEFFF731BCFFF749BCEF
:105CD000FFF747BCFFF790BCFFF743BCFFF70EBDD3
:105CE000FFF781BDFFF72CBCFFF7D2BEFFF73EBC2C
:105CF000FFF73CBCFFF785BCFFF738BCFFF708BDDA
:105D0000FFF776BDFFF728BCFFF726BCFFF76FBC97
:105D1000FFF722BCFFF7E8BCFFF760BD80B56F4618
:105D2000FFF72FFC80BD80B56F46FFF72AFC80BDD2
:105D300080B56F46FFF725FC80BD80B56F46FFF745
:105D400020FC80BD80B56F46FFF71BFC80BD80B591
:105D50006F46FFF76FFC80BD80B56F46FFF76BFCA9
:105D600080BD80B56F46FFF70CFC80BD80B56F46E7
:105D7000FFF707FC80BD80B56F46FFF7F8FC80BDDC
:105D800080B56F46FFF7F4FC80BD80B56F46FFF726
:105D900048FD80BD80B56F46FFF744FD80BDC0B5AE
:105DA00001AF4DF804AD1B698446084661465B6847
:105DB0009246D3F808E0F0475DF804ABC0BDC0B52B
:105DC00001AF4DF804AD1B698446084661465B6827
:105DD0009246D3F808E0F04780F001005DF804AB8C
:105DE000C0BDC0B501AF4DF804AD1B6992465B68FC
:105DF000D3F808C0E04780F001005DF804ABC0BDF7
:105E0000C0B501AF4DF804AD9B6892465B68D3F80E
:105E100004C0E04780F001005DF804ABC0BDF0B500
:105E200003AF2DE9000D6C466FF30304A54652F84D
:105E3000048C04466E469246D8F820000A46073085
:105E400020F00700ADEB000020F00F05AD46D3F8C1
:105E500024C082B00093284621465346E04702B052
:105E6000D8F80420204651469047D8F810302046F4
:105E7000294652469847A7F11804A546BDE8000DEB
:105E8000F0BDF0B503AF2DE9000D6C466FF30304D0
:105E9000A54652F8048C04466E469246D8F8200077
:105EA0000A46073020F00700ADEB000020F00F0598
:105EB000AD46D3F828C082B0009328462146534609
:105EC000E04702B0D8F80420204651469047D8F861
:105ED00010302046294652469847A7F11804A54697
:105EE000BDE8000DF0BDF0B503AF2DE9000D6C4627
:105EF0006FF30304A54652F8048C04466E4692469E
:105F0000D8F820000A46073020F00700ADEB00006B
:105F100020F00F05AD46D3F82CC082B00093284680
:105F200021465346E04702B0D8F8042020465146A7
:105F30009047D8F810302046294652469847A7F196
:105F40001804A546BDE8000DF0BDF0B503AF2DE97E
:105F5000000D6C466FF30304A54652F8048C04460A
:105F60006E469246D8F820000A46073020F0070017
:105F7000ADEB000020F00F05AD46D3F830C082B085
:105F80000093284621465346E04702B0D8F8042043
:105F9000204651469047D8F81030204629465246B0
:105FA0009847A7F11804A546BDE8000DF0BDF0B56F
:105FB00003AF2DE9000D6C466FF30304A54652F8BC
:105FC000048C04466E469246D8F820000A460730F4
:105FD00020F00700ADEB000020F00F05AD46D3F830
:105FE00034C082B00093284621465346E04702B0B1
:105FF000D8F80420204651469047D8F81030204663
:10600000294652469847A7F11804A546BDE8000D59
:10601000F0BDF0B503AF2DE9000D82B0BE68544667
:106020009A468846D6F824C0214615460096E04791
:10603000D6F828C0404621462A4653460096E047F7
:1060400002B0BDE8000DF0BDFEDEFEDEFEDED4D403
:10605000F0B503AF2DE9000F9BB06C466FF303045E
:10606000A5466E468B46D2F80C80C6F84CA0F26569
:10607000B06582B0AB49AC48794478445A4604686C
:106080000968FF2000914146234604F0BAF802B0A7
:10609000054682B0A548594678442A462346F4630B
:1060A00000680090404604F0A8F802B0816882B011
:1060B0009F4AA0487A4478447163126803680020BC
:1060C000326400922A469A4604F09BF802B030638C
:1060D00050F8040C006A073020F00700ADEB000018
:1060E00020F00F00F06285460020294604F07DF87C
:1060F000B06350F8040CB062006A073020F007006B
:10610000ADEB000121F00F0171628D46ADEB000196
:1061100021F00F0131658D46ADEB000020F00F003E
:10612000B06485465BF8040C7064006A073020F0A8
:106130000700ADEB000020F00F09CD46C6F85480F3
:10614000D8F8084082B0316C0020009121465A46B0
:106150005346554604F055F802B0824650F8040CF8
:10616000006A073020F00700ADEB000020F00F08B8
:10617000C54682B070485946784452462B4635642D
:10618000006830620090204604F037F802B045689D
:1061900082B06A494FF48072794430610090404681
:1061A0005346C6F814A0B561A847454602B0D4F8D6
:1061B0000C8048462946DA465A462346F461C047D1
:1061C000F06D49465A4680684368B06D5C68C6E920
:1061D0000243A0470446706CC6F8449041684846A4
:1061E00089465946C847E0071FD082B054493069F4
:1061F000736979444FF48072009028469A46B469D6
:10620000A04702B0746C29462046DA465A46F36924
:10621000C047F06C2146DA465A46D6E90253A847F1
:10622000804620465946C84775E0756D5946D6E9FF
:1062300013A0D5F818802A46C047D6F82490D6F87F
:1062400058A0484659462A46C6F804B0C04782B00E
:106250003C48B46B7844594600F1580380300090B4
:10626000F06D224603F0C9FF02B0D0F828C082B01A
:10627000D6F850B00090B06C59464A46A246234624
:10628000E04702B0B06A214645684846F565A84730
:1062900058462146A84782B0306AD6F83480D6F8EE
:1062A00030A00090404621465246336C03F0A5FFD3
:1062B00002B0456882B02449D6F82C9079444FF456
:1062C0008072009048465346A84702B0D8F80C5058
:1062D00058464946A24622464346A84782B01B4834
:1062E000716878442246F36B00680090706D03F08B
:1062F00084FF02B04368D6F8489048465946D3F820
:1063000004C02246E047804658462146F56DA8471E
:1063100048462146A847A7F11C044046A546BDE8CB
:10632000000FF0BDA0D7FF1FA2D7FF1F88D7FF1F08
:1063300040D7FF1F36D7FF1F78D6FF1F58C5FF1F56
:10634000FEC4FF1F50C5FF1F34C4FF1F42D5FF1FEF
:10635000F0B503AF2DE9000F87B06C466FF303046F
:10636000A5466E46D2688846F060D2F8089082B0A2
:1063700020492148794478444246D0F800B0096861
:106380000020009149465B4603F03BFF02B0824685
:1063900050F8040C006A073020F00700ADEB000055
:1063A00020F00F04A54682B0144841467844524676
:1063B0005B4600680090484603F01FFF02B0D0F82B
:1063C00004C082B00E494FF4807279440090204698
:1063D0005346E04702B0D9F80C50F0682146C24657
:1063E00042464B46A847A7F11C04A546BDE8000F4E
:1063F000F0BD00BF80D4FF1F76D4FF1F44D4FF1F21
:1064000026C3FF1F8A691047CA69104780B56F46C7
:10641000D3F820C0E04780BD80B56F4682B0D7F882
:1064200008C0DCF824E0CDF800C0F04702B080BD21
:1064300080B56F4682B0D7F808C0DCF828E0CDF808
:1064400000C0F04702B080BD80B56F4682B0D7F87B
:1064500008C0DCF82CE0CDF800C0F04702B080BDE9
:1064600080B56F4682B0D7F808C0DCF830E0CDF8D0
:1064700000C0F04702B080BD80B56F4682B0D7F84B
:1064800008C0DCF834E0CDF800C0F04702B080BDB1
:10649000D3F838C06047D3F83CC06047D3F840C059
:1064A0006047D3F844C06047D3F848C0604780B520
:1064B0006F46D7F808C0DCF84CE0C7F808C0F446CF
:1064C000BDE880406047136D184780B56F46536D37
:1064D000984780BD02460021417102F8041FD17027
:1064E00091700246C17081704170017041734172B8
:1064F00002F80C1F00F8081FD1709170C1708170F4
:106500007047F0B503AF2DE9000F83B0D7E902E57E
:10651000B2EB0E01044673EB05010BD220460021BD
:10652000617100F8041FE170A17061702170C17089
:106530008170D6E1AEF101018EEA010088426FD987
:106540005FEACE7140F0FE805FEA8E7100F1248137
:106550005FEA4E7100F123815FEA0E7100F14A811A
:106560005FEACE6100F149815FEA8E6100F1488106
:106570005FEA4E6100F147815FEA0E6100F14681FA
:106580005FEACE5100F145815FEA8E5100F144810E
:106590005FEA4E5100F143815FEA0E5100F1428102
:1065A0005FEACE4100F14181B868810400F1408189
:1065B000410400F14081010400F14081C10300F178
:1065C0004081810300F14081410300F140810103DA
:1065D00000F14081C10200F14081810200F140815F
:1065E000410200F14081010200F14081C10100F14E
:1065F0004081810100F14081410100F140810101B0
:1066000000F14081C10000F14081810000F1408132
:106610004FF01E0C5FEA4E0158BF4FF01F0C39E1DE
:10662000B5F1FF3F4FF000094FF0000001940292D6
:10663000009340F38A8090461E4618E04FEA4A01D4
:106640002C4641EADB7A96464FEA4B0BB8EB04083E
:10665000FD6866EB0E0619EB0B09D7F808E040EB76
:106660000A00B8EB0E0176EB0501C0F0A380BEEB8B
:1066700008014FF0000A75EB06014FF0010B74465C
:10668000AE462946E2D24FEA4E0141EAD472B8EB57
:10669000440176EB0201D9D36500B5EB080172EB3A
:1066A0000601CBD2002AC9D44FEA8E0141EA947187
:1066B000B8EB840376EB0103C0D3A200B2EB08036E
:1066C00071EB06032CD200292AD44FEACE0343EA09
:1066D000547CB8EBC40376EB0C0321D3E100B1EB9F
:1066E00008027CEB060224D2BCF1000F21D44FEA51
:1066F0000E1242EA147EB8EB041276EB0E0218D3A7
:1067000024014FEA0A11B4EB080241EA1B7A7EEB3E
:1067100006014FEA0B1B99D2BEF1FF3FB3DC95E7B0
:106720004FEA8A03144643EA9B7A8E464FEA8B0B64
