:0200000460009A
:100000004643464200000156000000000103030081
:1000100000000000000000000000000000000000E0
:1000200000000000000000000000000000000000D0
:1000300000000000000000000000000000000000C0
:1000400000000000010408000000000000000000A3
:100050000000800000000000000000000000000020
:100060000000000000000000000000000000000090
:100070000000000000000000000000000000000080
:10008000EB04180A063204260000000000000000FD
:10009000050404240000000000000000000000002F
:1000A0000000000000000000000000000000000050
:1000B0000604000000000000000000000000000036
:1000C0000000000000000000000000000000000030
:1000D00020041808000000000000000000000000DC
:1000E0000000000000000000000000000000000010
:1000F0000000000000000000000000000000000000
:10010000D8041808000000000000000000000000F3
:100110000204180804200000000000000000000095
:1001200000000000000000000000000000000000CF
:10013000600400000000000000000000000000005B
:1001400000000000000000000000000000000000AF
:10015000000000000000000000000000000000009F
:10016000000000000000000000000000000000008F
:10017000000000000000000000000000000000007F
:10018000000000000000000000000000000000006F
:10019000000000000000000000000000000000005F
:1001A000000000000000000000000000000000004F
:1001B000000000000000000000000000000000003F
:1001C000000100000010000001000000000000001D
:1001D000000001000000000000000000000000001E
:1001E000000000000000000000000000000000000F
:1001F00000000000000000000000000000000000FF
:10020000D4D4D4D4D4D4D4D4D4D4D4D4D4D4D4D4AE
:10021000D4D4D4D4D4D4D4D4D4D4D4D4D4D4D4D49E
:10100000D10020402C100060000000000000000013
:1010100020100060001000600000002000000000B0
:1010200000000060A8350100000000000000012061
:1010300035100060D0B502AF4CF238014AF6AF204F
:10104000C4F20A01CAF6AA2048F2F00CC8600720D0
:10105000C0F2200088604FF42A00086040F20000CF
:1010600040F20001C2F20700854649F23050C4F256
:101070000D0CC0F20000C0F20001BFF34F8F81429F
:101080004FF00801CCF864101DD241F2B03140F2AB
:101090000002C6F20001C0F200020B6842F8043BF5
:1010A000824210D24B6842F8043B82423EBF8B68BA
:1010B00042F8043B824206D2CB6842F8043B8242AB
:1010C00001F11001E9D343F2A07040F20001C2F235
:1010D0000000C2F2000181421DD24AF6E00140F256
:1010E0000002C6F20001C2F200020B6842F8043BA3
:1010F000824210D24B6842F8043B82423EBF8B686A
:1011000042F8043B824206D2CB6842F8043B82425A
:1011100001F11001E9D348F2807044F20001C2F2FB
:101120000000C2F20001814210D2002241F8042BDB
:1011300081420BD241F8042B81423CBF41F8042B81
:10114000814203D241F8042B8142EFD34EF6245E54
:101150004FF47000CEF2000E4FF6405348F20042BA
:10116000CFF6FF73CEF8640041F60760C2F20002CA
:10117000C0F20000D118B033C1F8C002C1F8C402F7
:10118000C1F8C802C1F8CC02C1F8D002C1F8D4023B
:10119000C1F8D802C1F8DC02C1F8E002C1F8E402EB
:1011A000C1F8E802C1F8EC02C1F8F002C1F8F4029B
:1011B000C1F8F802C1F8FC02C1F80003C1F8040349
:1011C000C1F80803C1F80C03C1F81003C1F81403F7
:1011D000C1F81803C1F81C03C1F82003C1F82403A7
:1011E000C1F82803C1F82C03C1F83003C1F8340357
:1011F000C1F83803C1F83C03C1F84003C1F8440307
:10120000C1F84803C1F84C03C1F85003C1F85403B6
:10121000C1F85803C1F85C03C1F86003C1F8640366
:10122000C1F86803C1F86C03A4D14EF2004300205A
:10123000CEF2000380211C1819542830A0286170B8
:10124000A170E17021716171A171E171217261720E
:10125000A172E17221736173A173E17321746174EE
:10126000A174E17421756175A175E17521766176CE
:10127000A176E17621776177A177E17784F8201074
:1012800084F8211084F8221084F8231084F82410A4
:1012900084F8251084F8261084F82710CBD14FF05D
:1012A000803041F21B014EF81C2CC2F21801CCF820
:1012B00014004024CCF81010CCF8040040F60C5078
:1012C000C1F21130CCF80000DEF8000040F4E0205C
:1012D000CEF800004CF21C00C4F20F00016864F369
:1012E00006010160816864F30601816042F2111019
:1012F00044F6D351C0F20000906340F22920C1F2BD
:101300006201C0F20000D06342F69400C2F2000015
:101310000068A0FB01014FF0FF3000EB91104FF689
:101320001441CFF6FF7158504FF61840CFF6FF70BA
:10133000002119504FF61040CFF6FF7003211950CD
:101340000020C2F220004EF8040CDEF8D80040F075
:101350008070CEF8D80041F20000CEF200000168A3
:1013600041F00101016044F204014068C2F2000151
:10137000086044F20060C2F2C33000F007F800F0E9
:101380000AF8BDE8D04000F00BB8D4D442F2131CE8
:10139000C0F2000C604740F2210CC0F2000C604724
:1013A00042F2AB4CC0F2000C6047D4D4D4D4D4D4B5
:1013B000D4D4D4D4D4D4D4D4D4D4D4D4D4D4D4D4ED
:1013C000D4D4D4D4D4D4D4D4D4D4D4D4D4D4D4D4DD
:1013D00080B56F4684B048F248100521C4F21F0062
:1013E00001603821C0F8F0114CF26C00C4F20A0020
:1013F0004FF0FF31016044F20400C4F200200168A4
:1014000041F0080101600821C0F8801000F0AEFD35
:1014100000F0E0FD9FED6A8B9FED6B9B48F21F5A39
:101420004CF6CD4B49F69A1844F6D35441F259760E
:1014300001A8C5F2EB1ACCF6CC4BC1F69918C1F253
:101440006204CDF2B71642F210790730009007E03F
:101450000C2101A800F093FC4FF47A7000F0C5F85D
:10146000B0EE480BB0EE491B02F060FAB7EEC00BCD
:1014700057A042F220034FF0203CC0F60D23B5EEFA
:10148000400AB0EE402AF1EE10FA48BF043090ED69
:10149000001A21EE001ABDEEC11A11EE100AB1EECB
:1014A000401A48BFB0EE412ABDEEC21A039350FB6A
:1014B0000AF1CDF808C0CDF804C04A1102EBD17191
:1014C000642201FB12004CF6CD4281B25143CA0C9A
:1014D00041F69A11514302EB8203090CA0EB430041
:1014E00001EB810511EE101A40F030008DF80D006F
:1014F000A2EB450242F030008DF80C002E200129AD
:101500008DF80B00009849DB0098A1FB0B230A29FA
:101510004FEAD30202EB8203A1EB430343F0300313
:1015200000F8013C31D3A2FB0835642905EB8503A3
:10153000A2EB430242F0300200F8022C2DD3A1FBB3
:101540000A23B1F57A7F4FEA5312A2FB083505EB67
:101550008503A2EB430242F0300200F8032C27D3AC
:10156000A1FB042349454FEA9312A2FB083505EB82
:101570008503A2EB4302A1FB063542F0300200F8DE
:10158000042D4FEA5531C0D208E00138B5EE400ACB
:10159000F1EE10FA7FF55CAF06E00238B5EE400AD6
:1015A000F1EE10FA7FF554AF2D2100F8011C4FE742
:1015B0000338B5EE400AF1EE10FA7FF549AFF3E7D4
:1015C0009A9999999999C93F9A9999999999D93FCD
:1015D0000000C8420000C8C244F20000C2F200008D
:1015E00001680131016070477047002808BF7047EB
:1015F000F0B503AF4DF8048D44F200010124C2F2AE
:10160000000101F10C0252E8003F0B684D6842E80E
:101610000046002EF7D141F2040C4FF47A7ECEF250
:10162000000CDCF80060761B8D68A5FB0664B4F541
:101630007A7F28BF744603FB0E48012452E8005FFE
:101640000D684E6842E80043002BF7D1DCF800300B
:101650009B1B8E68A6FB033605FB0EF3B6F57A7F5F
:10166000A3EB080328BF76463344B3F57A7FE5D36E
:10167000013802D008F57A78E0E75DF8048BBDE820
:10168000F04070477047F0B503AF2DE9000F81B00F
:1016900048F2413047F2AC1AC2F200004FF4007138
:1016A000C2F2000A4EF65C7600788022CEF2000686
:1016B0000024002844F2200008BF4021AAF80610A8
:1016C000C2F20000AAF80810002100F03EFC44F22B
:1016D000A0080021C2F200084FF4807240468AF848
:1016E0000040AAF80A4000F030FC0AF11A0000217C
:1016F000102200F02AFC0AF12A000021102200F03A
:1017000024FC02201021002200238AF801408AF8DC
:101710000240CAF80C4001F0C4FBBAF8081040F2CD
:101720002173C0F200030320002201F088FBBAF805
:10173000061004200122002301F0B3FB4FF2302BEE
:101740004FF40030CFF6FF7B44F2A019C2F200093B
:10175000002346F80B004046BAF80820494601F03D
:10176000D3FBBAF808004946BFF34F8F484401F154
:101770002002316082420ED202F1200132608142A9
:1017800009D201F120023160824204D202F120012B
:1017900032608142EBD303204146BFF34F8FBFF34A
:1017A0006F8F01F086FC4FF2B0114FF40030CFF68E
:1017B000FF7108F1200509F50074012370502146DE
:1017C00046F80B002846BAF8082001F09DFBBAF84D
:1017D0000800BFF34F8F204404F1200134608142A0
:1017E0000ED201F120023160824209D202F12001C1
:1017F0003260814204D201F1200431608442EBD393
:1018000003202946BFF34F8FBFF36F8F01F051FCC8
:101810004FF2B0114FF40030CFF6FF7108F14005E0
:1018200009F5806402237050214646F80B002846D3
:10183000BAF8082001F068FBBAF80800BFF34F8F30
:10184000204404F12001346081420ED201F12002D3
:101850003160824209D202F120013260814204D219
:1018600001F1200431608442EBD303202946BFF309
:101870004F8FBFF36F8F01F01CFC4FF2B0114FF48C
:101880000030CFF6FF7108F1600509F5C06403234D
:101890007050214646F80B002846BAF8082001F09F
:1018A00033FBBAF80800BFF34F8F204404F1200146
:1018B000346081420ED201F120023160824209D2AD
:1018C00002F120013260814204D201F12004316032
:1018D0008442EBD303202946BFF34F8FBFF36F8FB2
:1018E00001F0E7FB4FF2B0114FF40030CFF6FF717B
:1018F00008F1800509F5006404237050214646F87C
:101900000B002846BAF8082001F0FEFABAF80800E1
:10191000BFF34F8F204404F12001346081420ED286
:1019200001F120023160824209D202F120013260CD
:10193000814204D201F1200431608442EBD30320C0
:101940002946BFF34F8FBFF36F8F01F0B2FB4FF209
:10195000B0114FF40030CFF6FF7108F1A00509F582
:10196000206405237050214646F80B002846BAF83B
:10197000082001F0C9FABAF80800BFF34F8F2044DD
:1019800004F12001346081420ED201F12002316065
:10199000824209D202F120013260814204D201F177
:1019A000200431608442EBD303202946BFF34F8FDC
:1019B000BFF36F8F01F07DFB4FF2B0114FF4003099
:1019C000CFF6FF7108F1C00509F540640623705099
:1019D000214646F80B002846BAF8082001F094FA90
:1019E000BAF80800BFF34F8F204404F1200134609F
:1019F00081420ED201F120023160824209D202F10D
:101A000020013260814204D201F12004316084421D
:101A1000EBD303202946BFF34F8FBFF36F8F01F045
:101A200048FB4FF2B0114FF40030CFF6FF7108F1D0
:101A3000E00409F5606507237050294646F80B005D
:101A40002046BAF8082001F05FFABAF80800BFF3A0
:101A50004F8F284405F12001356081420ED201F1FB
:101A600020023160824209D202F1200132608142BB
:101A700004D201F1200531608542EBD303202146D9
:101A8000BFF34F8FBFF36F8F01F013FB4FF2B01115
:101A90004FF40030CFF6FF71705048F24830C2F278
:101AA000000040F60D11C0F20001016040F2481044
:101AB000C4F22E00002140F8C41C4A2140F8C81C82
:101AC000016841F08071016001B0BDE8000FF0BD18
:101AD000F0B503AF2DE9000F81B047F2AC18C2F2A8
:101AE0000008B8F8082010F8041F10F8183F10F884
:101AF000171C10F8161C10F8156C457841EA0621E1
:101B0000C678807843EA05236FF3DF3140EA062088
:101B10008A4243EA004447D144F2A0134EF65C7572
:101B2000C2F200034FF2302003EB442644F2A0033C
:101B3000CEF20005CFF6FF70C2F200034FF4003181
:101B400003EB4419295048463146234601F0DCF99D
:101B5000B8F80800BFF34F8F304406F120012E6023
:101B600081420ED201F120022960824209D202F1A3
:101B700020012A60814204D201F1200629608642B8
:101B8000EBD303204946BFF34F8FBFF36F8F01F0B4
:101B900090FA4FF2B0104FF40031CFF6FF70295099
:101BA00001B0BDE8000FF0BD98F80100551A98F893
:101BB000023098420AD008EB0001097C08EB410A88
:101BC000BAF81AB0CBF50072954217D908EB440168
:101BD000421C07284FF0000088BF0022488508EB10
:101BE00002004D83047488F80120D8F80C002844C2
:101BF000C8F80C0001B0BDE8000FF0BD44F2A0121F
:101C00004EF65C79C2F20002CEF2000902EB4120EE
:101C100002EB4426584431462A4600F09DF90BEB6E
:101C20000500AAF81A00D8F80C004FF40031284437
:101C3000C8F80C004FF230202346CFF6FF7049F869
:101C4000001044F2A000C2F20000B8F8082000EB37
:101C500044153146284601F057F9B8F80800BFF39B
:101C60004F8F304406F12001C9F80060814211D243
:101C700001F12002C9F8001082420BD202F12001CA
:101C8000C9F80020814205D201F12006C9F80010F0
:101C90008642E7D303202946BFF34F8FBFF36F8FF0
:101CA00001F007FA4FF2B0104FF40031CFF6FF7099
:101CB00049F8001001B0BDE8000FF0BDF0B503AF6A
:101CC0002DE9000B47F2AC19C2F2000999F80300A4
:101CD00010B1BDE8000BF0BD48F24030C2F2000088
:101CE00000780028F5D0B9F80A000028F1D099F85A
:101CF000001044F22002C2F20002C0F500664EF667
:101D00007074002302EB411845F2A012C2F20002E7
:101D1000404602EBC12532462946CEF2000401F0CE
:101D2000F3F87019BFF34F8F05F120012560814250
:101D30000ED201F120022160824209D202F120017B
:101D40002260814204D201F1200521608542EBD35B
:101D500004204146BFF34F8FBFF36F8F01F036F978
:101D600099F800000130C1B2032988BF002089F82A
:101D700000000020A9F80A00BDE8000BF0BDF0B596
:101D800003AF2DE9000F81B048F240320024C2F2C7
:101D9000000212780090002A00F0D2800E4600293E
:101DA00000F0CE804EF6707B47F2AC1A45F2A015DB
:101DB000CEF2000BC2F2000AC2F200051AE000994E
:101DC000324600F0C9F8BAF80A004FF04042811BD1
:101DD0000020AAF80A108421C4F22E0100283444FD
:101DE00006460A604FF00001BFF34F8F8AF80310D8
:101DF00000F0A68001208AF803009AF8000044F25F
:101E00002001BAF80A20C2F20001A84601EB4019ED
:101E10005AB9484601F0C3F9000657D44FF400629E
:101E2000AAF80A2000208AF804009AF80000454623
:101E3000964208EBC020A0EB020000F50060BED384
:101E4000009900F089F89AF800004FF4006200232E
:101E500005EBC0254846294601F056F805F5006017
:101E6000BFF34F8F05F12001CBF80050814211D212
:101E700001F12002CBF8001082420BD202F12001C6
:101E8000CBF80020814205D201F12005CBF80010EB
:101E90008542E7D304204946BFF34F8FBFF36F8FCE
:101EA00001F094F89AF800000022BAF80A3045468A
:101EB0000130C1B2032988BF002000998AF80000D0
:101EC0001944F01A009100211E4682E744F20001F5
:101ED000BFF34F8FC2F2000100208AF803000D68A3
:101EE0009AF8040060BB0868401B782825D848F29F
:101EF0004030C2F20000007810B3FFF775FB0120FC
:101F00008AF80300BAF80A20002A7FF48EAF484608
:101F100001F045F900067FF581AFBFF34F8F002038
:101F20008AF803009AF8040050B944F20000C2F2A3
:101F300000000068401B7928D9D301208AF80400EA
:101F4000204601B0BDE8000FF0BD00239A4208BF53
:101F50007047C1540133F9E7D0B502AF00239A426C
:101F600008BFD0BDCC5CC4540133F8E7F0B503AF73
:101F70004DF804BD48F214004FF40051C4F20D00B6
:101F80004FF4805E4FF0400C4FF480334FF44042EA
:101F900043F2420401E0C0F800E050F8045CAE07F0
:101FA0000DD4AE040FD5EE04F5D5B5F1FF3FF4DC4A
:101FB000EE030AD46D060AD4C0F800C0EDE7426013
:101FC00003604460E9E70160E7E74360E5E75DF847
:101FD00004BBF0BDF0B503AF4DF8048D49F2000429
:101FE0004FF22010C4F20D04CFF6FF7040F661717D
:101FF00040F2401521504CF28000C4F20F00C4F2B0
:102000002E054EF20C1849F238060168CEF200088F
:1020100041F00301016040F20440286241F60041B2
:102020002068C0F21E01C4F20D06084204BFA86E6B
:102030005FEA80701ED04FF0004046F8040C28681C
:1020400040F0020028602868800709D528688007CA
:1020500044BF28685FEA807002D528688007F2D400
:102060004FF40030C8F880014FF000403060192074
:10207000FFF7BBFA4FF0804030600020206048F24C
:1020800000040A20C2F20004A86600214FF4207266
:102090002046FFF75AFF4FF4810020604FF4800084
:1020A000206440F24310AC61A86048F20040C2F2E4
:1020B000000040F62151C0F20001C0F804124FF4B4
:1020C0000030C8F80000012028605DF8048BF0BDE6
:1020D000F0B503AF2DE9000F89B040F2B016C4F29D
:1020E0002E0656F86C1C0891C80746F86C1C00F0C8
:1020F000528656F8040C48F240350028C2F200051A
:1021000000F0B88441F2140142F21402294407910C
:10211000A918069143F2140144F2140229440591CE
:10212000A918049141F2280142F22802294403919E
:10213000A91848F2000C029143F2280148F2003934
:1021400048F2203BC2F2000C4FF001134FF0000A9E
:1021500044F228022944C2F20009C2F2000B0191A4
:10216000A918009117E04FF6C000844208BF11F48F
:102170007F4F00F0188348F2403548F2000C4FF0D2
:1021800001133361C2F20005C2F2000C56F8040CD0
:10219000002800F06F8446F8040CDCE90AE156F8E8
:1021A000702C42F4005246F8702C56F8702C9204B1
:1021B0001FD456F8702C42F4005246F8702C56F892
:1021C000702C92045FBF56F8702C42F4005246F80F
:1021D000702C56F8702C58BF5FEA824209D456F82A
:1021E000702C42F4005246F8702C56F8702C920471
:1021F000D5D556F8702C22F4005246F8702C736036
:10220000726812F0011F0BD0726812F0011F1CBF20
:10221000726812F0011F03D0726812F0011FEFD133
:102220004FEA1E4285F804A01FFA8EF442EA0142EA
:102230004FEA1148B4F5086F8BB246DA40F201302C
:10224000844200F3AC80802C00F0EE80822C00F001
:102250003B81B4F5817F8ED101F07F0007288AD8B9
:1022600006EB800048F2000C0906C2F2000C6FF485
:102270008031026958BF6FF00101114001610120F6
:1022800048F24035CBF800008020CBF804004FF036
:102290000113CBF808A0C2F20005CCE912BAF36032
:1022A000306840F48030306085F804A03068002841
:1022B0003FF46CAF306800281CBF306800283FF442
:1022C00065AF30680028F1D160E742F220208442F7
:1022D00000F39F80B4F5086F00F05F81B4F5106FD4
:1022E00000F0AE8142F22100844208BFB8F1070F2E
:1022F0007FF441AF48F240350120C2F20005C9F831
:102300000000802048F2000CC0F20700C2F2000C6E
:10231000C5E908E1C9F8040005F12800C9F808007A
:102320000398C9F80C000298C9F810000198C9F880
:1023300014000098C9F81800CCE9029A306840F0FF
:1023400001003060306840B1306800281CBF306840
:10235000002802D030680028F4D10121CBF8001009
:1023600048F28000CBF80400CBF808A04FF001132E
:10237000CCE912BAF360306840F4803030602971E3
:10238000306800283FF402AF306800281CBF306876
:1023900000283FF4FBAE30680028F1D1F6E6A4F542
:1023A000D065022DC0F0018240F20230844200F07C
:1023B000C181B4F5A06F7FF4DEAE48F2000C0120BD
:1023C000C2F2000C48F24035CBF800008020CBF878
:1023D00004004FF00113CBF808A0C2F20005CCE9CD
:1023E00012BAF360306840F48030306085F804A0A1
:1023F000306840B1306800281CBF3068002802D027
:1024000030680028F4D1500600F1807046F85C0C6A
:10241000BCE642F22120844200F0598142F2213090
:1024200084427FF4A0AE63E101212846C9F8001080
:102430008021C0F2020120F814AFC9F8041000F5A1
:102440008051C9F80C1000F50051C9F80800C9F80E
:10245000101000F54051C9F8141000F58040C9F87B
:102460001800CCE9129A306840F48030306030684F
:1024700040B1306800281CBF3068002802D03068A6
:102480000028F4D10120CBF800008020CBF8040014
:10249000CBF808A04FF00113CCE902BAF360306822
:1024A00040F00100306085F804A0306800283FF457
:1024B0006DAE306800281CBF306800283FF466AE5F
:1024C00030680028F1D161E601F07F0007283FF66F
:1024D00052AE06EB800048F24035C2F20005090614
:1024E0000069A5F814A002D510F4803204D10029A7
:1024F00004D410F0010001D0012028750120C9F892
:102500000000802048F2000CC0F20200C9F804006C
:1025100005F11400C9F808000798C9F80C000698DE
:10252000C2F2000CC9F810000598C9F8140004980C
:10253000C9F818004FF00113CCE9129A306840F442
:1025400080303060306840B1306800281CBF30688F
:10255000002802D030680028F4D10120CBF8000018
:102560008020CBF80400CBF808A0CCE902BAF360D5
:10257000306840F00100306085F804A03068002821
:102580003FF404AE306800281CBF306800283FF4D8
:10259000FDAD30680028F1D1F8E52946287801F82A
:1025A000140F0120C9F800008020C0F20200A0F53D
:1025B0008030C9F8040001F58050C9F80C0001F51D
:1025C0000050C9F8100001F54050C9F80810C9F8CA
:1025D000140001F58040C9F81800CCE9129A30685F
:1025E00040F480303060306840B1306800281CBF53
:1025F0003068002802D030680028F4D10120CBF8E0
:1026000000008020CBF80400CBF808A04FF00113A5
:10261000CCE902BAF360306840F00100306085F820
:1026200004A0306800283FF4B1AD306800281CBF1A
:10263000306800283FF4AAAD30680028F1D1A5E544
:1026400002212A70C0F2C80101F58020B061C820C3
:10265000C0F20200F0613162FFF715F848F20004A1
:102660000021C2F20004802204F18000FFF76DFC1B
:102670004CF65D70A446CBF6C600C4F8A00049F243
:1026800019304FF00113C7F2D540C4F8E000012023
:10269000CBF800008020CBF80400CBF808A0CCE9F0
:1026A00012BAF360306840F48030306085F804A0DE
:1026B000306800283FF46AAD306800281CBF3068DD
:1026C00000283FF463AD30680028F1D15EE50804CE
:1026D0000ED144F2000047F2A811C2F20000C2F28B
:1026E00000010068086044F21000C2F200000270AD
:1026F0000120CBF800008020CBF80400CBF808A024
:102700004FF00113CCE912BAF360306840F4803026
:10271000306085F804A0306800283FF437AD306899
:1027200000281CBF306800283FF430AD3068002816
:10273000F1D12BE501F07F0007283FF61CAD06EB39
:10274000800048F2000C0906C2F2000C4FF4803100
:10275000026958BF012111430161012048F240354F
:10276000CBF800008020CBF804004FF00113CBF829
:1027700008A0C2F20005CCE912BAF360306840F458
:102780008030306085F804A0306800283FF4FEAC4B
:10279000306800281CBF306800283FF4F7AC306870
:1027A0000028F1D1F2E443F46E4340F60251C2F244
:1027B000000111F804CFCC784D78897841EA0421E2
:1027C0004CEA052555EA01413FF4D5AC40F60250EC
:1027D000C2F2000000F116041FFA82FC0DE014F8AA
:1027E000160FE1786278A578123445EA012140EAB3
:1027F000022050EA01413FF4BEAC14F8155C14F815
:10280000160C40EA0520604507D114F8130C14F8A3
:10281000145C45EA002083425BD0204610F8081D76
:10282000C5784278807840EA052041EA022151EAE1
:1028300000413FF4A0AC14F80B0C14F80C2C42EA45
:102840000020604507D114F8090C14F80A2C42EA5C
:102850000020834245D0204610F8021FC2784578F8
:10286000807840EA022041EA052151EA00413FF424
:1028700082AC14F8010C14F8022C42EA00206045E6
:1028800005D16078227842EA0020834232D0204687
:1028900010F80C1FC2784578807840EA022041EA9F
:1028A000052151EA00413FF466AC607A227A42EA9F
:1028B0000020604593D1E07AA27A42EA0020834268
:1028C0008DD104F108030EF07F40B0F1407F0FD0AE
:1028D00016E0A4F116030EF07F40B0F1407F07D060
:1028E0000EE0A4F10C030EF07F40B0F1407F07D161
:1028F000087809E0A31E0EF07F40B0F1407FF7D0CA
:10290000587A1B7A43EA002048F2403548F2802288
:102910004045C2F20005C2F2000238BF8046BCF555
:10292000E06F17D0BCF5007F0BD1687840F63E41D0
:10293000C2F20001002840F6A040C2F2000008BF29
:10294000014610464246FFF707FB48F28021C2F2DB
:10295000000115E0687840F6A041C2F200010028AD
:1029600040F63E40C2F2000008BF01461046424613
:10297000FFF7F2FA48F280210720C2F20001487006
:102980004EF6707448F2000C08EB010021F01F01B4
:10299000CEF20004C2F2000CBFF34F8F01F120020F
:1029A000216082420DD201F140032260834208D2AD
:1029B00001F160022360824203D2803122608142B1
:1029C000ECD3B8F1000FBFF34F8FBFF36F8F2ED052
:1029D0000120C9F800004FEA084048F28021803009
:1029E000C2F20001C9F8040001F58050C9F80C00DA
:1029F00001F50050C9F8100001F54050C9F8081061
:102A0000C9F8140001F58040C9F81800CCE9129A01
:102A1000306840F480303060306840B13068002861
:102A20001CBF3068002802D030680028F4D1012093
:102A3000CBF800008020CBF80400CBF808A04FF0C2
:102A40000113CCE902BAF360306840F00100306055
:102A500085F804A0306800283FF498AB306800285F
:102A60001CBF306800283FF491AB30680028F1D1DA
:102A7000FFF78CBBF468002C00F08D8148F24033E6
:102A8000F460C2F200031879002818BF4FF48030B8
:102A900020422DD0188C42F22102998C50400843DC
:102AA0004FF00000187123D147F2A01503F128015F
:102AB000C2F2000507222846FFF74EFA286848F2BE
:102AC0004033C2F20003862812D172B6987940F0E2
:102AD0000800987156F8680C010606D4802146F863
:102AE0006C1C40F0800046F8680C62B650205871AB
:102AF0001869204000F04F81050C079000F0A58078
:102B00004FF0010B04E00BFA09F0854300F09D80C3
:102B100095FAA5F0B0FA80F948F20000C2F2000080
:102B200000EBC918D8F870000028ECD04FF0000A6C
:102B300001460A4612F8043F54789478D2781A066F
:102B40004FD4CA784B788C78097844EA022241EA5B
:102B5000032141EA024101293ED00A4612F8043F0E
:102B600054789478D2781A0639D4CA784B788C780D
:102B7000097844EA022241EA032141EA024101299B
:102B800035D00A4612F8043F54789478D2781A0661
:102B900030D4CA784B788C78097844EA022241EA2A
:102BA000032141EA024101292CD00A4612F8043FD0
:102BB00054789478D2781A063FD4CA780AF1040A75
:102BC0004B788C78097844EA022241EA032141EAF1
:102BD00002410129ADD117E00AF1010A14E00AF11E
:102BE000010AC8F87010BAF1000F14D18BE70AF18E
:102BF000020A09E00AF1020AC8F87010BAF1000FDF
:102C000009D180E70AF1030A0021C8E91C11BAF1D1
:102C1000000F3FF478AFC17842788378047843EAB4
:102C2000012144EA022242EA0144D8F87810884798
:102C3000BAF1010A2046EED165E70AF1030AC8F8A5
:102C40007010BAF1000FE6D15DE707981FFA80F81F
:102C5000B8F1000F00F09F8048F2000AC2F2000AAB
:102C600006E0012000FA0BF038EA000800F093803B
:102C700098FAA8F0B0FA80FB0AEBCB1E5EF8300F92
:102C80000028EED04FEA4B0C00250346194611F8F8
:102C9000042F4C788C78C97811064CD4D9785A789E
:102CA0009C781B7844EA012143EA022242EA01436C
:102CB000012B3DD0194611F8042F4C788C78C97837
:102CC000110637D4D9785A789C781B7844EA0121C8
:102CD00043EA022242EA0143012B30D0194611F89F
:102CE000042F4C788C78C97811062AD4D9785A7870
:102CF0009C781B7844EA012143EA022242EA01431C
:102D0000012B23D0194611F8042F4C788C78C97800
:102D100011063AD4D97804355A789C781B7844EA5D
:102D2000012143EA022242EA0143012BAED10EE027
:102D300001350CE00135CEF800308DB991E7023550
:102D400005E00235CEF8003055B98AE703350AEBC5
:102D50008C110022CEF800204A63002D3FF481AF91
:102D60000AEB8C1101F13809C17842788378047834
:102D700043EA012144EA022242EA0144D9F8001060
:102D80008847013D2046EFD16BE70335CEF8003090
:102D9000002DE5D165E7089D48F240346806C2F28F
:102DA000000419D556F8040C46F8040CF068F060DD
:102DB000306840B1306800281CBF3068002802D05D
:102DC00030680028F4D14FF0FF30706056F82C0CBA
:102DD000FEF758FC00202061E80102D5A06800B190
:102DE0008047A80102D5E06800B18047680704D594
:102DF00056F82C0CC0F34020607056F8680C0006A2
:102E000048BF5FEA056003D409B0BDE8000FF0BD1C
:102E100060790028F8D0013860710106F4D1A079FA
:102E200010F0F700A07105D156F8680C20F0800072
:102E300046F8680CFBBE09B0BDE8000FF0BDF0B568
:102E400003AF2DE900070446053810F1030F25D321
:102E500048F200090D04C2F200094FF0005009EBDE
:102E6000C416002A08BF40EA01450021402230462E
:102E700098464FEAC41AFFF768F80120B8F1000F2E
:102E800049F80A50B060C6F8388007D048F240319F
:102E9000A040C2F200010A6910430861BDE80007C2
:102EA000F0BDF0B503AF4DF8048D0446053810F1C0
:102EB000030F26D348F200000E04C2F20000002ADD
:102EC0004FF0005200EBC41508BF42EA014605F17D
:102ED0004000002140229846FFF737F8B8F1000F74
:102EE0002E644FF00100A864C5F8788009D048F23C
:102EF00040314FF48030C2F20001A0400A69104313
:102F000008615DF8048BF0BDF0B503AF4DF8048D9A
:102F10004FF0000C80F803C080F802C0012480F854
:102F200001C001F5005E0470802480F805C084466D
:102F300001F5405806460CF8044F140A8CF803407B
:102F40004FEA1E248CF802200A0A44744FEA18241F
:102F5000447501F58044250A45761D0A01F5805C1B
:102F60004577054642724FEA1C2242730A0E05F865
:102F7000081F090CEA704FEA1C62A970014606F8A6
:102F80000CCFF2704FEA1C42B270024601F810EF0B
:102F90004FEA1E66CE704FEA1E468E70014602F85A
:102FA000148F4FEA1866D6704FEA18469670220EB4
:102FB00001F8184FCA70220C8A70190E00F81C3FD5
:102FC000C170190C81705DF8048BF0BD421F12F1C5
:102FD000030F38BF7047F0B503AF4DF804BD48F29A
:102FE00000024FF4803CC2F2000202EBC01EDEF889
:102FF00078205AB10A4612F8044F53789578D6785B
:103000009570D67043F080035370147072B60CFA4A
:1030100000FCDEF87420A2B140F2B013080EC4F236
:103020002E03D070080C11709070080A5070186848
:1030300010EA0C0F18D0CEF8741062B65DF804BB1D
:10304000F0BD0020CEE9121040F2B010C4F22E0004
:10305000026842EA0C020260CEF87010CEF87410DA
:1030600062B65DF804BBF0BD41F20400CEF2000090
:10307000026853F8704C44F4804443F8704C9C68E8
:1030800053F8705C6D0404D40568AD1AB5F5166F7D
:10309000EFD314EA0C0FCED10020CEE9121018683D
:1030A00040EA0C001860CEF8741062B65DF804BBFC
:1030B000F0BD421F12F1030F38BF7047F0B503AFE8
:1030C0004DF8048D48F2000E4FF0010CC2F2000ED4
:1030D0000EEBC0139B6B002B4FEA40030CD00D4648
:1030E00015F8048F6A78AE78EC78AE70EC7042F028
:1030F00080026A7085F800800EEB831E72B67246FD
:103100000CFA00FC52F8343F9BB140F2B0100C0EA8
:10311000C4F22E00DC700C0C19709C700C0A5C70F0
:10312000036813EA0C0F16D0116062B65DF8048BC9
:10313000F0BD0020CEE9021040F2B010C4F22E0023
:10314000036843EA0C030360CEF83010116062B6E6
:103150005DF8048BF0BD41F20403CEF200031C685D
:1031600050F8705C45F4804540F8705C856850F814
:10317000706C760404D41E68361BB6F5166FEFD358
:1031800015EA0C0FD0D10023CEE90213036843EAFD
:103190000C030360116062B65DF8048BF0BD10F89B
:1031A000041F42788378C07841EA022143EA002074
:1031B00041EA0040704780B56F464FF6807472B6A2
:1031C000C2F227044EF670724FF6B851EFF3058045
:1031D000CEF200026060CFF6FF711EF0040F0CBF4C
:1031E000EFF30880EFF3098048F2203A5158A160CC
:1031F0004FF6BC51CEF6B85ACFF6FF715158E16088
:103200004FF6C451CFF6FF71515821614FF6C851A6
:10321000CFF6FF71515861618169A161C069E061B8
:1032200000F01CFB84ED080A00F049FBA64642F2C0
:10323000C80B44F290194FF0FF32C3F66E3BC7F251
:10324000DC6904F1280C60620B214EF804195EF869
:10325000043F5A40D4078AEA520308BF53088AEA57
:1032600053045FEA827858BF5C088AEA5405510724
:1032700058BF65088AEA5501100758BF69088AEAED
:103280005100D60658BF480892068AEA500258BF35
:1032900042089B068AEA520358BF5308A4068AEAEA
:1032A000530458BF5C08AD068AEA540558BF650848
:1032B00089068AEA550158BF690880068AEA5100E2
:1032C00058BF480892068AEA500258BF42089B0637
:1032D0008AEA520358BF5308A4068AEA530458BF27
:1032E0005C08AD068AEA540558BF650889068AEA73
:1032F000550158BF690880068AEA510058BF48083E
:1033000092068AEA500258BF42089B068AEA520394
:1033100058BF5308A4068AEA530458BF5C08AD0698
:103320008AEA540558BF650889068AEA550158BFDC
:10333000690880068AEA510058BF480892068AEA5E
:10334000500658BF46089A068AEA560358BF7308C3
:10335000A2068AEA530458BF5C08AA064CF2194236
:10336000C0F26D7282EA941258BFA209890648F62B
:103370003201C0F6DB6148BF4A40800641F264007A
:10338000C1F6B75048BF4240B00648BF82EA0B02C0
:10339000980648BF82EA0902A0060EF1040048BF61
:1033A00082EA0A026045FFF452AF4FF680704EF693
:1033B0007078C2F22700CEF2000844F20C144FF6E7
:1033C000F4668262C4F20804BFF34F8FC8F80000AD
:1033D0002030C8F800004CF21C00C4F20F00BFF30C
:1033E0004F8FBFF36F8FCFF6FF76016D402241F410
:1033F000405101650221A151016862F3060101609B
:1034000042F6980143F68050C2F20001C0F6CD307A
:103410000968814201D900F054F849F6007000258E
:10342000C0F22400A55144F8045C012644F80C0CB9
:103430004EF28010CEF2000044F8046C4FF0FF31E1
:10344000016041608160C160016101E0FEF740FE02
:1034500020680028FAD0013526604F2DF6D940F2B9
:1034600040100221C4F22E00016049F23400C4F27F
:103470000D004FF000410160206848B14FF69C50AC
:103480000421CFF6FF70C0F2FA5148F80010FEE7B1
:1034900048F23000F121C4F20F00C0F6AD310160F6
:1034A0002268002AEAD101602268002A02BF016076
:1034B0002268002AE2D101602268002AEFD0DDE70D
:1034C0007047F0B503AF2DE9000F81B04CF248030F
:1034D00040F2000AC4F20F03C4F2080A4AF20141A2
:1034E000C1F6787153F8349C884253F8306CDAF89E
:1034F0000CC01CD344F20161C2F2C331884221D313
:103500004BF600214BF22322CDF63C41C0F24C0297
:103510000144090AA1FB0212D10919225143B1F554
:10352000A27F88BF40F2451101F2E2410CE043F274
:10353000016240F27E41C0F26E12904238BF40F20A
:10354000B63101E040F2E241A1F5487144F2AF75B5
:103550008AB26A430CF01F05A1EB124189B24908F7
:1035600001EB12419A6B42F0C0029A63B5EB111F56
:103570004FEA1112009216D22CF01F0141EA020C00
:10358000CAF80CC0DAF8001000290CD4DAF80010E0
:1035900000295CBFDAF80010002904D4DAF8001022
:1035A000B1F1FF3FEEDC43F2400848F2000E5FEA63
:1035B0008911C8F20008C4F20D0E2ED4DEF81010E6
:1035C000002201EA0801B1EB080518BF01254145B9
:1035D00009F0605108BF4FF0C05291424FEA0531E7
:1035E00005D029F0605542EA050943F8349C06F4F9
:1035F00040528A4240F01C8149F0007943F8349CE3
:103600001968890609D51968890644BF19685FEAEF
:10361000816102D519688906F2D44BF20022C2F208
:103620009F62904215D201260146012505E0013531
:1036300005FB00F1714391420ED2072DF7D9042EFC
:103640000AD80136012505FB00F171439142F4D3FC
:1036500002E001250126014601F5B70049F6817116
:1036600000F55860C1F25E61A0FB01026C2141F6D9
:10367000003BA8F58254100DC0F2B70B6C2843F242
:103680007F0038BF110D3629C8F2010098BF3621DE
:10369000DEF800200C43024001FB0BF0A24240F098
:1036A000818053F8381C01F00702691EB0FBF5F069
:1036B0008A4240F093804FF4E05109F4E05201EB6C
:1036C000862101F4E051B0FBF6F08A42009E40F002
:1036D00099804DF27F1141F29F02C0F6F001C0F2D5
:1036E000E50201440424C909A1FB0212110B0429BB
:1036F0004FF4407138BF140B01EB042109F4407200
:1037000001F440718A4204D029F44072114343F815
:10371000341C53F8341C21F0007143F8341C196830
:10372000890609D51968890644BF19685FEA81616D
:1037300002D519688906F2D44DF68361C4F21B31B3
:10374000A0FB0112B0FBF4F3910C4FF0FF32B2FB7F
:10375000F1F142F69802C2F20002106053600CF0E0
:103760001F02B24244F20802C2F20002116015D9EF
:103770002CF01F013143CAF80C10DAF800100029B0
:103780000CD4DAF8001000295CBFDAF80010002928
:1037900004D4DAF80010B1F1FF3FEEDC01B0BDE86F
:1037A000000FF0BD4FF48052CEF8002001F500511B
:1037B000CEF80010DEF8001000293FF572AFDEF8F9
:1037C000001000295CBFDEF8001000293FF569AF4A
:1037D000DEF80010B1F1FF3FECDC62E701F0070119
:1037E00043F8381C1968C9037FF565AF1968C90328
:1037F00044BF19685FEAC1317FF55DAF1968C9033D
:10380000F0D458E729F4E05241EA020943F8349C25
:10381000196889077FF55DAF1968890744BF196882
:103820005FEA81717FF555AF19688907F0D450E7D9
:1038300026F44052114343F8301C196809077FF5FC
:10384000DBAE1968090744BF19685FEA01717FF5AB
:10385000D3AE19680907F0D4CEE6704748F280105D
:10386000C4F20D000168490709D4016849075CBF2B
:1038700001685FEA417102D401684907F2D5006826
:1038800048F2C061C2F20001C0F30B2001EE100A41
:1038900091ED010AB8EE400A91ED032AB8EE411A03
:1038A00031EE400A91ED021A21EE000A91ED001A64
:1038B000B8EE411A80EE020A31EE400A7047D0B5E8
:1038C00002AF44F2240EC4F20D0EDEF800C0DEF8A2
:1038D0000400DEF80010DEF80430984203D18C4575
:1038E000024664461DD0DEF800C0DEF804008342C4
:1038F00003D161451A460C4613D0DEF80030DEF8DD
:103900000410884203D19C450246644609D0DEF883
:1039100000C0DEF804008142DBD163450A461C4644
:10392000D7D1600440EAD230D0BDD4D400F000B882
:10393000D0B502AF2DED048B0A4C4FF48071B0EE80
:10394000418BB0EE409B7C44204600F095F9204628
:103950004FF4807100F090F939EE480BBDEC048B08
:10396000D0BD00BFD6E7FF1F02484FF480717844F6
:1039700000F082B9AEE7FF1F00F000B8401878BF32
:103980007047FEDE00F000B8401A78BF7047FEDED8
:1039900000F000B880FB0123B3EBE27F04BF484393
:1039A0007047FEDE00F000B811B190FBF1F07047F7
:1039B000FEDE084670470846704700F000B88142B6
:1039C000C8BF0846704700F000B88842A8BF084644
:1039D0007047D4D470478AED000B704701485146B8
:1039E0007844704705000000704700BF80B56F46FF
:1039F00006484FF48071784401F0E3F800EE100AB5
:103A0000B8EEC00AB7EEC00A80BD00BF26E7FF1FB0
:103A1000704741EC100B704751EC100B05F04FBA9A
:103A2000B7EEC00A70477047B1EE400B70479AED91
:103A3000000BB1EE400B8AED000B704730EE010B2E
:103A4000704730EE410B704720EE010B704780EE5F
:103A5000010B70470020B4EE410BF1EE10FA08BFE5
:103A6000012003F035B900BFF0B503AF2DE9000721
:103A700084B0104803217844012203F0ADFF804652
:103A80000D488946924678444721012203F0A4FF5D
:103A900004460A480D4678444FF40061164604F087
:103AA00035FA02904046494652462346CDE9005633
:103AB00001F0C2FBABE6FF1F76E7FF1F22EAFF1F04
:103AC0000020B4EE401BF1EE10FA08BF012003F015
:103AD000FFB80020B4EE401BF1EE10FA48BF012001
:103AE00003F0F6B80020B4EE401BF1EE10FA98BFD8
:103AF000012003F0EDB8B7EEC00A80ED000B70476F
:103B000080ED000B704791ED000B92ED001B80EEF5
:103B1000010B80ED000B704702F0BFBBF0B503AFA7
:103B20002DE9000784B0104803217844012203F0F6
:103B300053FF80460D48894692467844472101222A
:103B400003F04AFF04460A480D4678444FF40061EA
:103B5000164604F0DBF90290404649465246234699
:103B6000CDE9005601F068FBF7E5FF1FC2E6FF1F35
:103B70006EE9FF1F02F0EDBB90ED000B9AED001B0C
:103B80000020B4EE401BF1EE10FA08BF012003F054
:103B90009FB890ED000B9AED001B0020B4EE401B87
:103BA000F1EE10FA48BF012003F092B890ED000B3F
:103BB0009AED001B0020B4EE401BF1EE10FA98BF06
:103BC000012003F085B891ED000BB1EE400B80EDC4
:103BD000000B70479AED000BB1EE400B8AED000B25
:103BE000704703F056B89AED000BB0EEC00B80EDB5
:103BF000000B7047B0EEC00B704791ED000B92EDDB
:103C0000001B20EE010B80ED000B704702F050BC52
:103C100080B56F46024B7B4401F094FB80BD00BF32
:103C2000C201002091ED000B92ED001B30EE010B64
:103C300080ED000B704701F025BB91ED000B92ED7C
:103C4000001B30EE410B80ED000B704701F047BBCD
:103C5000704700BFB0B502AF82B0054C054D7D4442
:103C60007C4400942D68019500F024F802B0B0BDAA
:103C70008C000020EE0E002006F026BED0B502AF6C
:103C800004460846114606F01FFE84ED000BD0BD29
:103C9000B0B502AF82B0054C054D7D447C44009424
:103CA0002D68019500F006F802B0B0BD600000205C
:103CB000B60E002080B56F4684B0D7E902EC91EDD6
:103CC000000B02A9CDF800E08DED020BE04704B037
:103CD00080BD30EE410B704730EE010B704700BFE6
:103CE0000148784400687047720E0020014878440B
:103CF000006870476A0E00200148784400687047E9
:103D0000620E002001487844704700BF0A0000207E
:103D100001487844704700BF920000200148784471
:103D2000704700BFCEFFFF1F01487844704700BFB7
:103D3000D2FFFF1F01487844704700BFDAFFFF1F22
:103D400001487844704700BF62FFFF1F91ED000BF0
:103D50009AED001B30EE410B80ED000B704791EDAA
:103D6000000B9AED001B30EE010B80ED000B70474D
:103D7000014B7B4402F02CBBFEFFFF1F014B7B4439
:103D800002F034BBF2FFFF1F014B7B4402F049BB42
:103D9000E6FFFF1F014B7B4402F036BBDAFFFF1F3B
:103DA00090ED000B91ED001B0020B4EE410BF1EE05
:103DB00010FA08BF012002F08BBF00BF02480021AB
:103DC00078440830704700BF78FFFF1F80B56F460A
:103DD000FFF796FE80BDD4D480B56F4652F8043C00
:103DE0001B69984780BDD4D480B56F4652F8043C17
:103DF0001B69984780BDD4D47047CAF8000070474B
:103E000001485146784470470500000070477047EC
:103E1000084070470843704748407047402070474B
:103E2000090A202994BF006800207047402070478D
:103E300080B56F46024B7B4402F07DFB80BD00BF26
:103E4000BE00002080B56F46024B7B4402F0A4FB0D
:103E500080BD00BFAA000020F0B503AF4DF804BD3F
:103E6000044600200D68DAF8006002F033FF0120FC
:103E7000AD1978BF002002F02BFF25605DF804BB70
:103E8000F0BDB0B502AF054600200C4602F022FF9F
:103E90000120641978BF002002F01AFF0146204675
:103EA000B0BDF0B503AF4DF804BD044600200D6869
:103EB000DAF8006002F00EFF0120AE4278BF002069
:103EC000751B02F005FF25605DF804BBF0BDB0B5C1
:103ED00002AF054600200C4602F0FCFE0120AC4279
:103EE00078BF0020641B02F0F3FE01462046B0BDFF
:103EF000F0B503AF4DF8048D804600200D68DAF868
:103F0000006002F0E7FE06FB05F456FB05F0B0EB9F
:103F1000E47018BF012002F0DBFEC8F800405DF835
:103F2000048BF0BDF0B503AF4DF804BD054600208D
:103F30000C4602F0CFFE04FB05F654FB05F0B0EB97
:103F4000E67018BF012002F0C3FE014630465DF85E
:103F500004BBF0BDD0B502AF82B0034C7C440094EA
:103F600000F018F802B0D0BD74E5FF1F80B56F46B1
:103F7000014A7A4400F042F85EE5FF1FD0B502AF77
:103F800082B0034C7C44009400F004F802B0D0BD31
:103F900044E5FF1FF0B503AF2DE9000F83B01148D2
:103FA0000A2178440122D7F8088003F015FD8246E3
:103FB0000D488B46914678444221012203F00CFDC6
:103FC00004460D464FF400614046164603F09EFF3E
:103FD0000290504659464A462346CDE9005601F024
:103FE0002BF900BF83E1FF1F86E1FF1F80B56F46FD
:103FF000014A7A4400F002F8D6E4FF1FF0B503AF9F
:104000002DE9000F83B01048904678440A21012220
:1040100003F0E2FC82460D488B46914678444221EB
:10402000012203F0D9FC04460D464FF400614046DE
:10403000164603F06BFF0290504659464A46234607
:10404000CDE9005601F0F8F81BE1FF1F20E1FF1F4A
:10405000F0B503AF2DE9000784B010480A21784479
:10406000012203F0B9FC80460D4889469246784407
:104070004221012203F0B0FC04460A480D46784470
:104080004FF41061164603F041FF02904046494646
:1040900052462346CDE9005601F0CEF8C7E0FF1F97
:1040A000CEE0FF1F2EE4FF1FF0B503AF2DE90007A0
:1040B00084B010480A217844012203F08DFC804628
:1040C0000D488946924678444221012203F084FC3F
:1040D00004460A480D4678444FF41061164603F032
:1040E00015FF02904046494652462346CDE9005608
:1040F00001F0A2F86FE0FF1F76E0FF1FD6E3FF1F7D
:10410000F0B503AF2DE9000784B010480A217844C8
:10411000012203F061FC80460D48894692467844AE
:104120004221012203F058FC04460A480D46784417
:104130004FF41061164603F0E9FE029040464946EE
:1041400052462346CDE9005601F076F817E0FF1FEE
:104150001EE0FF1F86E3FF1FF0B503AF2DE9000748
:1041600084B010480A217844012203F035FC8046CF
:104170000D488946924678444221012203F02CFCE6
:1041800004460A480D4678444FF41061164603F081
:10419000BDFE02904046494652462346CDE90056B0
:1041A00001F04AF8BFDFFF1FC6DFFF1F2EE3FF1F2E
:1041B00080B56F4602F06BFB80BD02F001BC120AB5
:1041C000202A94BF0968002101607047B0B502AF92
:1041D000054601200C4602F07DFD07481321784476
:1041E00001222C4403F0F8FB03F01EFCAC427CBF20
:1041F0002046B0BDFEDE00BFAEE2FF1FB0B502AF8D
:10420000054601200C4602F065FD0648132178445E
:10421000012203F0E1FB03F007FCA5427CBF281B51
:10422000B0BDFEDE7EE2FF1F80B56F46024B7B44D1
:1042300001F088F880BD00BF1AFCFF1FF0B503AF86
:104240004DF804BD044601200E68156802F042FDD9
:104250000748132178440122354403F0BDFB03F0E5
:10426000E3FBB5427EBF25605DF804BBF0BDFEDE1A
:1042700038E2FF1F01F006B8F0B503AF4DF804BDFA
:10428000044601200D68166802F024FD074813213A
:104290007844012203F0A0FB03F0C6FBB5427FBFC8
:1042A000A81B20605DF804BBF0BDFEDEFCE1FF1F33
:1042B00001F015B800228842B8BF0122104602F072
:1042C00007BD0268096800208A42B8BF012002F0D9
:1042D000FFBC00BF014B7B4401F09CBCA6FBFF1F51
:1042E000014B7B4401F0A9BC9AFBFF1F014B7B44AF
:1042F00001F0B3BC8EFBFF1F401AB0FA80F04009FA
:1043000002F0E6BC00680968401AB0FA80F0400983
:1043100002F0DEBCD0B502AF82B009680191044C56
:1043200001A97C440094FFF75FFD02B0D0BD00BF3F
:1043300002FCFF1F02484FF48071784403F0E6BD91
:10434000E2DDFF1FF0B503AF4DF8048D05460120F7
:104350000C4602F0BFFC094813217844012285FB7A
:10436000046803F039FB03F05FFBB8EBE67F02BFA4
:1043700005FB04F05DF8048BF0BDFEDE32E1FF1FAB
:10438000D0B502AF0446044878444FF4807103F07E
:10439000BDFD2060D0BD00BF94DDFF1FF0B503AFB1
:1043A0002DE9000B804601200D68166802F092FC92
:1043B0000A4813217844012285FB064903F00CFBCF
:1043C00003F032FBB9EBE47F01BF05FB06F0C8F850
:1043D0000000BDE8000BF0BDFEDE00BFD8E0FF1F0F
:1043E00002F066B8F0B503AF2DE9000F8BB06C4654
:1043F0006FF30304A546079089460A9110211D48D2
:104400000122784403F0E8FA83461B488A461446A2
:1044100078444221012203F0DFFA054617480E4690
:1044200078444FF40061904603F070FD8DE8700110
:10443000134A08A97A44049010465A46534600F09D
:10444000DFFE002002F046FC04460E4878441321AB
:10445000012203F0C1FA03F0E7FAE00701BF079871
:1044600090FBF9F0A7F11C04A54604BFBDE8000FBE
:10447000F0BDFEDEDADDFF1F2CDDFF1F88E0FF1F31
:104480005100000040E0FF1F94E100BFF0B503AF12
:104490002DE9000F8BB06C466FF30304A5460A911B
:1044A000824618480C4678442721012203F094FAEA
:1044B000079181461448934678444221012203F033
:1044C0008BFA054611480E4678444FF40061904639
:1044D00003F01CFDCDE900B5CDE902680C4A08A93E
:1044E0007A44049010464A46079B00F089FE9AFBE6
:1044F000F4F000FB14A0A7F11C04A546BDE8000FD2
:10450000F0BD00BF66DFFF1F84DCFF1FDCDFFF1F85
:10451000310000004EE100BF0149794402F008B8C3
:10452000DAF9FF1F0149794401F04EBEDEF8FF1FA2
:1045300080B56F46024B7B4401F09EFD80BD00BFFD
:10454000CEF8FF1FF0B503AF2DE9000F8BB06C461E
:104550006FF30304A546079008680690D2F8008020
:10456000CDF8288010211F480122784403F034FA46
:1045700081461D488A46934678444221012203F031
:104580002BFA054619480E4678444FF4006114464C
:1045900003F0BCFCCDE900B5CDE90264144A08A9DA
:1045A0007A44049010464A46534600F029FE002003
:1045B00002F090FB04460F4878441321012203F0D7
:1045C0000BFA03F031FAE00701BF069890FBF8F010
:1045D0000799086001BFA7F11C04A546BDE8000FBC
:1045E000F0BDFEDE72DCFF1FC4DBFF1F20DFFF1FFC
:1045F0000F020000D4DEFF1FF0B503AF2DE9000F5E
:104600008BB06C466FF30304A5460790D2F8009078
:10461000CDF82890D1F8008018482721784401224D
:1046200003F0DAF906908A46154893467844422109
:10463000012203F0D1F9054612480E4678444FF4A2
:104640000061144603F062FCCDE900B5CDE90264D7
:104650000D4A08A97A4404901046069A534600F081
:10466000CFFD98FBF9F0079900FB1980A7F11C0416
:104670000860A546BDE8000FF0BD00BFF0DDFF1FDC
:1046800010DBFF1F68DEFF1F590100000968126878
:10469000114001607047096812681143016070475A
:1046A0000968126851400160704700F0F2BE00F0E6
:1046B00046BF00F09ABF00F0EEBF01F042B8DDF84F
:1046C00000C0CDF800C001F06DB800BF024A034B36
:1046D0007A447B4401F0BABF34F7FF1F22F8FF1F72
:1046E00080B56F4601F000FA80BD02F0D2BA00BF7B
:1046F000D0B502AF1346044A04467A440846194628
:1047000001F0BCFA2060D0BD82F7FF1F80B56F4674
:104710000968024B7B4401F0DDFA80BD68F7FF1F9A
:10472000C840704788407047014878440068704727
:104730003A04002001487844006870471E040020B5
:1047400001487844704700BFC2F6FF1F0148784413
:10475000704700BFA6F7FF1F01487844704700BFAD
:10476000CAF7FF1F01487844006870470204002020
:104770000148784400687047FA03002001487844F3
:1047800000687047F203002001487844704700BF7A
:10479000C6F7FF1F01487844704700BF7AF7FF1F34
:1047A0000248002178440830704700BFFCF7FF1F23
:1047B00000E0FFE7C0B501AF4DF804AD82B0DAF814
:1047C00008000190002000900748084B78447B4483
:1047D00000F1080201A86946924601F00BFA02B006
:1047E0005DF804ABC0BD00BFD4F7FF1FAEF6FF1FDE
:1047F0007047CAF800007047014851467844704736
:104800000500000070477047084070470843704734
:104810004840704702484FF4E0617844FFF700BB1E
:10482000A6DCFF1F02484FF4E0617844FFF7F8BAB6
:1048300096DCFF1F80B56F46024B7B4401F07BFE88
:1048400080BD00BF6AF8FF1F80B56F46024B7B44F6
:1048500001F0A2FE80BD00BF56F8FF1FF0B503AF08
:104860004DF804BD044600200D68DAF8006002F03F
:1048700031FA0120AD1978BF002002F029FA256035
:104880005DF804BBF0BDB0B502AF054600200C4694
:1048900002F020FA0120641978BF002002F018FA13
:1048A00001462046B0BDF0B503AF4DF804BD044647
:1048B00000200D68DAF8006002F00CFA0120AE4228
:1048C00078BF0020751B02F003FA25605DF804BB79
:1048D000F0BDB0B502AF054600200C4602F0FAF973
:1048E0000120AC4278BF0020641B02F0F1F90146C0
:1048F0002046B0BDF0B503AF4DF8048D80460020D2
:104900000D68DAF8006002F0E5F906FB05F456FBE5
:1049100005F0B0EBE47018BF012002F0D9F9C8F837
:1049200000405DF8048BF0BDF0B503AF4DF804BD59
:10493000054600200C4602F0CDF904FB05F654FBB9
:1049400005F0B0EBE67018BF012002F0C1F9014696
:1049500030465DF804BBF0BDD0B502AF82B0034C69
:104960007C44009400F018F802B0D0BD70DBFF1F4B
:1049700080B56F46014A7A4400F042F85ADBFF1FC7
:10498000D0B502AF82B0034C7C44009400F004F830
:1049900002B0D0BD40DBFF1FF0B503AF2DE9000F23
:1049A00083B011480A2178440122D7F8088003F027
:1049B00013F882460D488B469146784444210122E3
:1049C00003F00AF804460D464FF4006140461646CF
:1049D00003F09CFA0290504659464A462346CDE9D8
:1049E000005600F029FC00BF7FD7FF1FD2D7FF1F62
:1049F00080B56F46014A7A4400F002F8D2DAFF1F10
:104A0000F0B503AF2DE9000F83B01048904678440D
:104A10000A21012202F0E0FF82460D488B469146B2
:104A200078444421012202F0D7FF04460D464FF49A
:104A300000614046164603F069FA02905046594616
:104A40004A462346CDE9005600F0F6FB17D7FF1F74
:104A50006CD7FF1FF0B503AF2DE9000784B01048F5
:104A60000A217844012202F0B7FF80460D488946AA
:104A7000924678444421012202F0AEFF04460A48DF
:104A80000D4678444FF41061164603F03FFA029049
:104A90004046494652462346CDE9005600F0CCFB3D
:104AA000C3D6FF1F1AD7FF1F2ADAFF1FF0B503AFC7
:104AB0002DE9000784B010480A217844012202F051
:104AC0008BFF80460D488946924678444421012256
:104AD00002F082FF04460A480D4678444FF4106104
:104AE000164603F013FA02904046494652462346C2
:104AF000CDE9005600F0A0FB6BD6FF1FC2D6FF1F0A
:104B0000D2D9FF1FF0B503AF2DE9000784B01048DC
:104B10000A217844012202F05FFF80460D48894651
:104B2000924678444421012202F056FF04460A4886
:104B30000D4678444FF41061164603F0E7F90290F1
:104B40004046494652462346CDE9005600F074FBE4
:104B500013D6FF1F6AD6FF1F82D9FF1FF0B503AF20
:104B60002DE9000784B010480A217844012202F0A0
:104B700033FF80460D4889469246784444210122FD
:104B800002F02AFF04460A480D4678444FF41061AB
:104B9000164603F0BBF9029040464946524623466A
:104BA000CDE9005600F048FBBBD5FF1F12D6FF1F12
:104BB0002AD9FF1F80B56F4601F069FE80BD01F064
:104BC000FFBE090A202994BF006800207047120A1E
:104BD000202A94BF0968002101607047B0B502AF78
:104BE000054601200C4602F075F807481321784469
:104BF00001222C4402F0F0FE02F016FFAC427CBF12
:104C00002046B0BDFEDE00BF9ED8FF1FB0B502AF8C
:104C1000054601200C4602F05DF806481321784451
:104C2000012202F0D9FE02F0FFFEA5427CBF281B44
:104C3000B0BDFEDE6ED8FF1F80B56F46024B7B44D1
:104C400000F080FB80BD00BFBAF3FF1FF0B503AFDB
:104C50004DF804BD044601200E68156802F03AF8CC
:104C60000748132178440122354402F0B5FE02F0D2
:104C7000DBFEB5427EBF25605DF804BBF0BDFEDE05
:104C800028D8FF1F00F0FEBAF0B503AF4DF804BD01
:104C9000044601200D68166802F01CF8074813212D
:104CA0007844012202F098FE02F0BEFEB5427FBFBA
:104CB000A81B20605DF804BBF0BDFEDEECD7FF1F33
:104CC00000F00DBB00228842B8BF0122104601F05F
:104CD000FFBF0268096800208A42B8BF012001F0C6
:104CE000F7BF00BF014B7B4400F094BF46F3FF1FAA
:104CF000014B7B4400F0A1BF3AF3FF1F014B7B4403
:104D000000F0ABBF2EF3FF1F401AB0FA80F040094D
:104D100001F0DEBF00680968401AB0FA80F040096F
:104D200001F0D6BFD0B502AF82B009680191044C42
:104D300001A97C440094FFF757F802B0D0BD00BF32
:104D4000A2F3FF1F02484FF48071784403F0A4BD22
:104D5000D2D3FF1FF0B503AF4DF8048D05460120F7
:104D60000C4601F0B7FF094813217844012285FB66
:104D7000046802F031FE02F057FEB8EBE67F02BF96
:104D800005FB04F05DF8048BF0BDFEDE22D7FF1FAB
:104D9000D0B502AF0446044878444FF4807103F064
:104DA0007BFD2060D0BD00BF84D3FF1FF0B503AFF3
:104DB0002DE9000B804601200D68166801F08AFF7E
:104DC0000A4813217844012285FB064902F004FEBB
:104DD00002F02AFEB9EBE47F01BF05FB06F0C8F83C
:104DE0000000BDE8000BF0BDFEDE00BFC8D6FF1F0F
:104DF00001F05EBBF0B503AF2DE9000F8BB06C4640
:104E00006FF30304A546079089460A9110211D48B7
:104E10000122784402F0E0FD83461B488A4614468E
:104E200078444421012202F0D7FD054617480E467A
:104E300078444FF40061904603F068F88DE8700103
:104E4000134A08A97A44049010465A46534600F083
:104E5000D7F9002001F03EFF04460E4878441321A4
:104E6000012202F0B9FD02F0DFFDE00701BF079863
:104E700090FBF9F0A7F11C04A54604BFBDE8000FA4
:104E8000F0BDFEDECAD3FF1F6CD3FF1F78D6FF1F15
:104E90005100000030D6FF1F90E100BFF0B503AF16
:104EA0002DE9000F8BB06C466FF30304A5460A9101
:104EB000824618480C4678442721012202F08CFDD6
:104EC000079181461448934678444421012202F018
:104ED00083FD054611480E4678444FF40061904624
:104EE00003F014F8CDE900B5CDE902680C4A08A931
:104EF0007A44049010464A46079B00F081F99AFBD9
:104F0000F4F000FB14A0A7F11C04A546BDE8000FB7
:104F1000F0BD00BF56D5FF1FC4D2FF1FCCD5FF1F69
:104F2000310000004AE100BF014878440068704742
:104F300052FCFF1F01487844006870474AFCFF1F7D
:104F400001487844006870471EFCFF1F0148784400
:104F5000006870470EFCFF1F01487844704700BF8F
:104F60007AF1FF1F01487844006870471EFCFF1F5C
:104F7000014878440068704716FCFF1F01487844D8
:104F8000006870470EFCFF1F0149794401F0D0BA58
:104F90001AF1FF1F0149794401F016B91EF0FF1FF5
:104FA00080B56F46024B7B4401F066F880BD00BFC0
:104FB0000EF0FF1FF0B503AF2DE9000F8BB06C466C
:104FC0006FF30304A546079008680690D2F80080A6
:104FD000CDF8288010211F480122784402F0FCFC03
:104FE00081461D488A46934678444421012202F0B6
:104FF000F3FC054619480E4678444FF40061144608
:1050000002F084FFCDE900B5CDE90264144A08A995
:105010007A44049010464A46534600F0F1F80020C6
:1050200001F058FE04460F4878441321012202F093
:10503000D3FC02F0F9FCE00701BF069890FBF8F002
:105040000799086001BFA7F11C04A546BDE8000F41
:10505000F0BDFEDE02D2FF1FA4D1FF1FB0D4FF1FA0
:10506000A701000064D4FF1FF0B503AF2DE9000FC6
:105070008BB06C466FF30304A5460790D2F80090FE
:10508000CDF82890D1F800801848272178440122D3
:1050900002F0A2FC06908A461548934678444421C3
:1050A000012202F099FC054612480E4678444FF45E
:1050B0000061144602F02AFFCDE900B5CDE9026493
:1050C0000D4A08A97A4404901046069A534600F007
:1050D00097F898FBF9F0079900FB1980A7F11C04D9
:1050E0000860A546BDE8000FF0BD00BF80D3FF1FDC
:1050F000F0D0FF1FF8D3FF1FF1000000096812680D
:1051000011400160704709681268114301607047DF
:105110000968126851400160704700F0BAB900F0A8
:105120000EBA00F062BA00F0B6BA00F00ABBDDF8C1
:1051300000C0CDF800C000F035BB00BF024A034BF1
:105140007A447B4401F082BA74EEFF1F62EFFF1FC6
:1051500080B56F4600F0C8FC80BD01F09ABD00BF6D
:10516000014878440068704712FAFF1F01487844EC
:10517000006870470AFAFF1FD0B502AF1346044A11
:1051800004467A440846194600F078FD2060D0BDF8
:10519000AAEEFF1F80B56F460968024B7B4400F002
:1051A00099FD80BD90EEFF1F024800217844083031
:1051B000704700BFA8EFFF1F00E0FFE7C0B501AFD9
:1051C0004DF804AD82B0DAF808000190002000909C
:1051D0000748084B78447B4400F1080201A869465F
:1051E000924600F007FD02B05DF804ABC0BD00BF01
:1051F00080EFFF1F56EEFF1F012001F06BBD00BFC7
:1052000090B501AF4DF804AD8A46804701F076FDB8
:105210000446074878441421012202F0DDFB02F025
:1052200003FCE00704BF5DF804AB90BDFEDE00BFE9
:1052300038D0FF1F02F0AEBB80B56F46002001F0F2
:1052400049FD01F05BFD044814217844012202F07D
:10525000C3FB02F0E9FBFEDE02D0FF1FC0B501AFC9
:105260004DF804AD924688475DF804ABC0BDC0B5AB
:1052700001AF4DF804AD8A4680475DF804ABC0BD70
:1052800000F000B8F0B503AF2DE9000D6C466FF3E8
:105290000304A54652F8044C80466E469246206AA6
:1052A0000A46073020F00700ADEB000020F00F05A4
:1052B000AD46D3F80CC082B0009328464146534611
:1052C000E04702B063694046294652469847A7F135
:1052D0001804A546BDE8000DF0BD00F000B8F0B51B
:1052E00003AF2DE9000D6C466FF30304A54652F899
:1052F000044C80466E469246206A0A46073020F0EB
:105300000700ADEB000020F00F05AD46D3F814C048
:1053100082B00093284641465346E04702B0636995
:105320004046294652469847A7F11804A546BDE8CD
:10533000000DF0BD80B56F4652F8043C9B6898475D
:1053400080BD00BFF0B503AF2DE9000F87B06C46FC
:105350006FF30304A5466E4699468846F06082B016
:1053600020492148794478444246D0F800B0096881
:105370000020009119465B4605F0A3FA02B0824670
:1053800050F8040C006A073020F00700ADEB000075
:1053900020F00F04A54682B0144841467844524696
:1053A0005B4600680090484605F089FA02B0D0F8E4
:1053B00004C082B00E494FF48072794400902046B8
:1053C0005346E04702B0D9F80C50F0682146C24677
:1053D00042464B46A847A7F11C04A546BDE8000F6E
:1053E000F0BD00BF34F8FF1F2AF8FF1FF8F7FF1FBA
:1053F00062CDFF1F80B56F469368984780BD80B52A
:105400006F4682B0D7F808C0DCF80CE0CDF800C0D9
:10541000F04702B080BDD3F810C0604780B56F463A
:1054200082B0D7F808C0DCF814E0CDF800C0F0472F
:1054300002B080BDD3F818C06047D4D4F0B503AF34
:105440002DE9000D6C466FF30304A54652F8044C99
:1054500080466E469246206A0A46073020F00700D2
:10546000ADEB000020F00F05AD46D3F824C082B0AC
:105470000093284641465346E04702B063694046E0
:10548000294652469847A7F11804A546BDE8000DE5
:10549000F0BDF0B503AF2DE9000D6C466FF30304CA
:1054A000A54652F8044C80466E469246206A0A464B
:1054B000073020F00700ADEB000020F00F05AD46EF
:1054C000D3F824C082B00093284641465346E047B3
:1054D00002B063694046294652469847A7F118042E
:1054E000A546BDE8000DF0BDF0B503AF2DE9000DF8
:1054F0006C466FF30304A54652F8044C80466E4692
:105500009246206A0A46073020F00700ADEB000003
:1055100020F00F05AD46D3F828C082B0009328468E
:1055200041465346E04702B0636940462946524629
:105530009847A7F11804A546BDE8000DF0BDF0B5E9
:1055400003AF2DE9000D6C466FF30304A54652F836
:10555000044C80466E469246206A0A46073020F088
:105560000700ADEB000020F00F05AD46D3F828C0D2
:1055700082B00093284641465346E04702B0636933
:105580004046294652469847A7F11804A546BDE86B
:10559000000DF0BDF0B503AF2DE9000D6C466FF3C3
:1055A0000304A54652F8044C80466E469246206A93
:1055B0000A46073020F00700ADEB000020F00F0591
:1055C000AD46D3F82CC082B00093284641465346DE
:1055D000E04702B063694046294652469847A7F122
:1055E0001804A546BDE8000DF0BDF0B503AF2DE9E8
:1055F000000D6C466FF30304A54652F8044C804638
:105600006E469246206A0A46073020F00700ADEB4E
:10561000000020F00F05AD46D3F82CC082B00093F7
:10562000284641465346E04702B063694046294652
:1056300052469847A7F11804A546BDE8000DF0BDF5
:10564000F0B503AF2DE9000D6C466FF30304A546DA
:1056500052F8044C80466E469246206A0A4607304D
:1056600020F00700ADEB000020F00F05AD46D3F8A9
:1056700030C082B00093284641465346E04702B00E
:1056800063694046294652469847A7F11804A54643
:10569000BDE8000DF0BDF0B503AF2DE9000D6C467F
:1056A0006FF30304A54652F8044C80466E469246BA
:1056B000206A0A46073020F00700ADEB000020F01A
:1056C0000F05AD46D3F830C082B00093284641465E
:1056D0005346E04702B06369404629465246984720
:1056E000A7F11804A546BDE8000DF0BDF0B503AF65
:1056F0002DE9000D6C466FF30304A54652F8044CE7
:1057000080466E469246206A0A46073020F007001F
:10571000ADEB000020F00F05AD46D3F834C082B0E9
:105720000093284641465346E04702B0636940462D
:10573000294652469847A7F11804A546BDE8000D32
:10574000F0BDF0B503AF2DE9000D6C466FF3030417
:10575000A54652F8044C80466E469246206A0A4698
:10576000073020F00700ADEB000020F00F05AD463C
:10577000D3F834C082B00093284641465346E047F0
:1057800002B063694046294652469847A7F118047B
:10579000A546BDE8000DF0BDDDF800C0CDF800C0A5
:1057A00000F000B8F0B503AF2DE9000D82B0BE687F
:1057B00054469A468846D6F824C021461546009697
:1057C000E047D6F828C0404621462A465346009670
:1057D000E04702B0BDE8000DF0BD00F001B800BF29
:1057E000F0B503AF2DE9000F9BB06C466FF30304D7
:1057F000A5466E468B46D2F80C80C6F84CA0F265E2
:10580000B06582B0AB49AC48794478445A460468E4
:105810000968FF2000914146234605F052F802B086
:10582000054682B0A548594678442A462346F46383
:1058300000680090404605F042F802B0816882B0EE
:105840009F4AA0487A447844716312680368002034
:10585000326400922A469A4605F033F802B030636B
:1058600050F8040C006A073020F00700ADEB000090
:1058700020F00F00F06285460020294605F01DF853
:10588000B06350F8040CB062006A073020F00700E3
:10589000ADEB000121F00F0171628D46ADEB00010F
:1058A00021F00F0131658D46ADEB000020F00F00B7
:1058B000B06485465BF8040C7064006A073020F021
:1058C0000700ADEB000020F00F09CD46C6F854806C
:1058D000D8F8084082B0316C0020009121465A4629
:1058E0005346554604F0EDFF02B0824650F8040CD2
:1058F000006A073020F00700ADEB000020F00F0831
:10590000C54682B070485946784452462B463564A5
:10591000006830620090204604F0D1FF02B0456874
:1059200082B06A494FF480727944306100904046F9
:105930005346C6F814A0B561A847454602B0D4F84E
:105940000C8048462946DA465A462346F461C04749
:10595000F06D49465A4680684368B06D5C68C6E998
:105960000243A0470446706CC6F84490416848461C
:1059700089465946C847E0071FD082B0544930696C
:10598000736979444FF48072009028469A46B4694E
:10599000A04702B0746C29462046DA465A46F3699D
:1059A000C047F06C2146DA465A46D6E90253A8476A
:1059B000804620465946C84775E0756D5946D6E978
:1059C00013A0D5F818802A46C047D6F82490D6F8F8
:1059D00058A0484659462A46C6F804B0C04782B087
:1059E0003C48B46B7844594600F15803803000902D
:1059F000F06D224604F063FF02B0D0F828C082B0F8
:105A0000D6F850B00090B06C59464A46A24623469C
:105A1000E04702B0B06A214645684846F565A847A8
:105A200058462146A84782B0306AD6F83480D6F866
:105A300030A00090404621465246336C04F03FFFB0
:105A400002B0456882B02449D6F82C9079444FF4CE
:105A50008072009048465346A84702B0D8F80C50D0
:105A600058464946A24622464346A84782B01B48AC
:105A7000716878442246F36B00680090706D04F002
:105A80001EFF02B04368D6F8489048465946D3F8FE
:105A900004C02246E047804658462146F56DA84797
:105AA00048462146A847A7F11C044046A546BDE844
:105AB000000FF0BD94F3FF1F96F3FF1F7CF3FF1F51
:105AC00054F3FF1F4AF3FF1F8CF2FF1FF4C7FF1FA1
:105AD0009AC7FF1F94D3FF1FD0C6FF1F36F1FF1FC9
:105AE00080B56F4600F000F8F0B503AF2DE9000770
:105AF00084B0104803217844012201F06DFF8046F4
:105B00000D488946924678445721012201F064FFEE
:105B100004460A480D4678444FF4E061164602F008
:105B2000F5F902904046494652462346CDE90056D3
:105B3000FFF782FB2BC6FF1F06C8FF1FC6C9FF1F4A
:105B4000F0B503AF2DE9000F87B06C466FF3030487
:105B5000A5466E46D2688846F060D2F8089082B0BA
:105B600020492148794478444246D0F800B0096879
:105B70000020009149465B4604F0A3FE02B0824635
:105B800050F8040C006A073020F00700ADEB00006D
:105B900020F00F04A54682B014484146784452468E
:105BA0005B4600680090484604F089FE02B0D0F8D9
:105BB00004C082B00E494FF48072794400902046B0
:105BC0005346E04702B0D9F80C50F0682146C2466F
:105BD00042464B46A847A7F11C04A546BDE8000F66
:105BE000F0BD00BF34F0FF1F2AF0FF1FF8EFFF1FCA
:105BF00062C5FF1FC0B501AF4DF804AD9B6892466A
:105C00005B68D3F804C0E0475DF804ABBDE8C04072
:105C100001F074B8C0B501AF4DF804AD1B698446FE
:105C2000084661465B689246D3F808E0F0475DF8A5
:105C300004ABBDE8C04001F061B8C0B501AF4DF89C
:105C400004AD1B6992465B68D3F808C0E0475DF875
:105C500004ABBDE8C04001F051B8C0B501AF4DF88C
:105C600004AD1B698446084661465B689246D3F8DA
:105C700008E0F0475DF804ABC0BD00BFF0B503AF6E
:105C80002DE9000784B0104803217844012201F077
:105C9000A3FE80460D48894692467844572101224A
:105CA00001F09AFE04460A480D4678444FF410610C
:105CB000164602F02BF902904046494652462346CA
:105CC000CDE90056FFF7B8FA97C4FF1F72C6FF1F51
:105CD0001AC8FF1FF0B503AF2DE9000784B01048C4
:105CE00003217844012201F077FE80460D48894661
:105CF000924678445721012201F06EFE04460A487C
:105D00000D4678444FF41061164602F0FFF80290F9
:105D10004046494652462346CDE90056FFF78CFAE5
:105D20003FC4FF1F1AC6FF1FD2C7FF1F8A69104753
:105D3000CA69104780B56F46D3F820C0E04780BDE0
:105D400080B56F4682B0D7F808C0DCF824E0CDF803
:105D500000C0F04702B080BD80B56F4682B0D7F872
:105D600008C0DCF828E0CDF800C0F04702B080BDE4
:105D700080B56F4682B0D7F808C0DCF82CE0CDF8CB
:105D800000C0F04702B080BD80B56F4682B0D7F842
:105D900008C0DCF830E0CDF800C0F04702B080BDAC
:105DA00080B56F4682B0D7F808C0DCF834E0CDF893
:105DB00000C0F04702B080BDD3F838C06047D3F8C8
:105DC0003CC06047D3F840C06047D3F844C0604748
:105DD000D3F848C0604780B56F46D7F808C0DCF8F4
:105DE0004CE0C7F808C0F446BDE880406047136D3A
:105DF000184780B56F46536D984780BD80B56F4694
:105E000000F001F880BDC0B501AF4DF804AD844687
:105E1000D3F808E0084661469246F0475DF804ABC7
:105E2000BDE8C04000F06ABF80B56F4600F001F8E1
:105E300080BDC0B501AF4DF804ADD3F808C092469F
:105E4000E0475DF804ABBDE8C04000F057BF80B547
:105E50006F4600F001F880BDC0B501AF4DF804AD4C
:105E60008446D3F808E0084661469246F0475DF85C
:105E700004ABC0BDD3F808C06047D3F80CC060477E
:105E8000D3F810C06047D3F814C06047704770471C
:105E9000B0B502AF04460A48784440F20111FDF75C
:105EA000BFFF0546074878444FF48071FDF7B8FFFF
:105EB000421E20462946BDE8B04004F0FBBC00BFAE
:105EC00008C6FF1F76C2FF1F704780B56F4652F8A5
:105ED000043C9B68984780BDDAF800007047016079
:105EE0007047082304F0E7BC0968016070477047F9
:105EF000B9B101290ED0017961B1C17842788378B6
:105F0000007843EA012140EA022040EA01400130E2
:105F1000013070470068002818BF4FF0FF30013093
:105F200070474FF0FF3001307047012907D8022A2F
:105F300001D30022027151B1002101607047022A91
:105F4000A1F10201016038BF704701210171704762
:105F500080B56F4682B0034A7A44009200F004F89C
:105F600002B080BD24D0FF1F80B56F4684B0CDE95C
:105F70000112BA6801A9039304F0A0FC04B080BD2B
:105F8000C0B501AF4DF804ADD7F808C08A46114638
:105F90001A46DCF828E06346F0475DF804ABC0BD64
:105FA000F0B503AF2DE9000F83B06C466FF3030427
:105FB000A54652F8045C83466E461446286A994604
:105FC0000730884620F00700ADEB000020F00F0AF4
:105FD000D5462B69504659469847D9F828C05846A7
:105FE000414622464B46E0476A6850462146904764
:105FF000A7F11C04A546BDE8000FF0BDC0B501AF78
:106000004DF804ADD7F808C08A4611461A46DCF8A8
:106010002CE06346F0475DF804ABC0BDF0B503AFBC
:106020002DE9000F83B06C466FF30304A54652F8C8
:10603000045C83466E461446286A994607308846B3
:1060400020F00700ADEB000020F00F0AD5462B69C9
:10605000504659469847D9F82CC0584641462246E2
:106060004B46E0476A68504621469047A7F11C041A
:10607000A546BDE8000FF0BDF0B503AF2DE9000F58
:106080008FB06C466FF30304A5466E465D681446F8
:10609000F362EB68C6E907109D6882B0454A46483E
:1060A0007A44784429467562D0F800A0126800202E
:1060B00000922246534604F004FC02B0834650F896
:1060C000040C006A073020F00700ADEB000020F060
:1060D0000F007061854654F8040CB061006A073007
:1060E00020F00700ADEB000121F00F09CD46ADEB2C
:1060F000000020F00F00B062854682B02F48214694
:1061000078445A46534600680090284604F0D7FB6E
:1061100002B0F0604568356182B02949D6F8148034
:1061200079444FF4807200904046DA465B46C6F8E8
:1061300004B0A84702B0736A48464146A246DD68EB
:106140002246B560C346A847F36AB06AF169CA46F9
:10615000DD6A22463560A847B0692146D0F8048040
:106160004846C04782B01749F068736879444FF4D5
:106170000072009058469A463569A84702B04846D2
:106180005946A2462246736AB568A847306A49460E
:10619000D6F828A02246F36A3568A8474846214623
:1061A000C04750462146C047A7F11C04A546BDE89C
:1061B000000FF0BDF8EAFF1FEEEAFF1F94EAFF1F91
:1061C000FCBFFF1F50C3FF1FC0B501AF4DF804ADAA
:1061D000CA69824690475DF804ABC0BDCA691047E2
:1061E00080B56F46136A984780BD80B56F46536A85
:1061F000984780BDD3F828C06047D3F82CC06047CB
:10620000D3F830C06047D3F834C06047D3F838C003
:10621000604780B56F46D7F808C0DCF83CE0C7F8A7
:1062200008C0F446BDE880406047D0B502AFD7E96A
:1062300002ECDCF84040C7E902ECA446BDE8D040DF
:106240006047D4D4F0B503AF2DE9000D6C466FF371
:106250000304A54652F8044C80466E469246206AD6
:106260000A46073020F00700ADEB000020F00F05D4
:10627000AD46D3F818C082B0009328464146534635
:10628000E04702B063694046294652469847A7F165
:106290001804A546BDE8000DF0BDF0B503AF2DE92B
:1062A000000D6C466FF30304A54652F8044C80467B
:1062B0006E469246206A0A46073020F00700ADEB92
:1062C000000020F00F05AD46D3F818C082B000934F
:1062D000284641465346E04702B063694046294696
:1062E00052469847A7F11804A546BDE8000DF0BD39
:1062F000F0B503AF4DF8048D82B06C466FF3030424
:10630000A54651F8048C6E460C461346D8F820007A
:10631000073020F00700ADEB000020F00F05AD4680
:1063200000203071D2F820C0311D28462246E047B7
:10633000D8F80420504621469047D8F810305046EF
:10634000294622469847A7F11004A5465DF8048B1C
:10635000F0BDF0B503AF4DF8048D82B06C466FF31D
:106360000304A54651F8048C6E460C461346D8F833
:106370002000073020F00700ADEB000020F00F05F3
:10638000AD4600203071D2F820C0311D284622468B
:10639000E047D8F80420504621469047D8F81030FE
:1063A0005046294622469847A7F11004A5465DF8B5
:1063B000048BF0BDC0B501AF4DF804AD8246D3F8F3
:1063C00028C0084611461A46E0475DF804ABC0BD38
:1063D000C0B501AF4DF804AD8246D3F82CC00846D5
:1063E00011461A46E0475DF804ABC0BDC0B501AF29
:1063F0004DF804AD8246D3F830C0084611461A461F
:10640000E0475DF804ABC0BDC0B501AF4DF804ADC9
:10641000D3F82CC08A4611461A46E0475DF804AB13
:10642000C0BDC0B501AF4DF804ADD3F830C08A4649
:1064300011461A46E0475DF804ABC0BD80B56F4613
:1064400082B013460A4600218DF80410D3F820C00C
:1064500001A9E04702B080BD80B56F4682B00A4610
:10646000014600208DF80400536A01A8984702B045
:1064700080BD80B56F4682B0D7F808C0DCF818E060
:10648000CDF800C0F04702B080BDD3F81CC0604713
:1064900080B56F46D3F820C0E04780BD536A1847E7
:1064A000936A1847D36A1847136B184700F000B86F
:1064B000F0B503AF2DE9000D6C466FF30304A5465C
:1064C00052F8044C80466E469246206A0A460730CF
:1064D00020F00700ADEB000020F00F05AD46D3F82B
:1064E0001CC082B00093284641465346E04702B0A4
:1064F00063694046294652469847A7F11804A546C5
:10650000BDE8000DF0BD80B56F469369984780BD2A
:1065100080B56F4682B0D7F808C0DCF81CE0CDF833
:1065200000C0F04702B080BDD3F820C06047D4D48B
:10653000012000F0CFBBF0B503AF2DE9000F83B011
:106540006C466FF30304A54651F804BC80466E46C2
:106550000C46DBF820009146073020F00700ADEB39
:10656000000020F00F05AD46536A28469847D9F839
:10657000043040462946A246D3F820C02246E047D0
:10658000DBF80420284621469047A7F11C04A546C5
:10659000BDE8000FF0BD00BFF0B503AF2DE9000F5F
:1065A00087B06C466FF30304A54652686E46884672
:1065B000D268F060D2F8089082B02049204879442F
:1065C00078444246D0F800B009680020009149465E
:1065D0005B4604F076F902B0824650F8040C006A7B
:1065E000073020F00700ADEB000020F00F04A546B7
:1065F00082B014484146784452465B460068009099
:10660000484604F05CF902B0D0F804C082B00E49EC
:106610004FF480727944009020465346E04702B020
:10662000D9F80C50F0682146C24642464B46A8476E
:10663000A7F11C04A546BDE8000FF0BDDAE5FF1F79
:10664000D0E5FF1F9EE5FF1F08BBFF1FF0B503AF9E
:106650002DE9000F93B06C466FF30304A5466E4618
:106660000C4651F8041CF063086A31630730C6F821
:1066700010A020F00700ADEB000121F00F01F16048
:106680008D46ADEB000020F00F007061854650682C
:10669000F062C068D0F8089082B06C496C487944C8
:1066A00078442246056809680020009149462B4637
:1066B00004F007F902B0804650F8040C006A073075
:1066C00020F00700ADEB000020F00F0BDD4682B09C
:1066D00060482146784442462B4600680090484670
:1066E00004F0EDF802B0456882B05B494FF4807267
:1066F0007944B06100905846C2464346F561A847C8
:1067000002B0D9F80C5070695946A24622464B4651
:10671000C6F834B0C6F8389081463562A847F06AAA
:106720004946224680684368F06B5D68C6E90935D2
:10673000A8470546306B2146426848463263904779
:10674000E80721D082B04549B069D6F834B0794421
:106750004FF4807200905846C2464346F569A847F8
:1067600002B048465946A2462246B36B356AA8474E
:10677000306949462246D6E90935A84705464846C4
:106780002146326B904759E082B03549B069D6F85E
:1067900034B0794440F2011200905846C246434654
:1067A000F569A84702B048465946A2462246B36B4F
:1067B000356AA847F06B49462246D6E90935A8470D
:1067C000054648462146326B9047E80704D0012031
:1067D00000F080FA054631E0F06A856A82B00090E8
:1067E00048463169F26BA2462346A84702B082B000
:1067F0001C49B069D6F834B079444FF480720090E7
:106800005846C2464346F569A84702B0D6F80C8000
:1068100059464046A2462246B36B356AA8474846C9
:1068200041462246D6E90935A84705464046214655
:10683000D6F83080C04748462146C047A7F11C041F
:106840002846A546BDE8000FF0BD00BFFAE4FF1FD3
:10685000F0E4FF1FC0E4FF1F2CBAFF1FCEB9FF1FDB
:106860000EBDFF1F24B9FF1FF0B503AF4DF804ADF7
:10687000144652F8042C1D468246936822469847D7
:10688000EA682046294690475DF804ABF0BDF0B5B4
:1068900003AF4DF804AD144652F8042C1D46824651
:1068A000936822469847EA682046294690475DF853
:1068B00004ABF0BDF0B503AF2DE9000F87B06C4617
